{"abi":[{"type":"constructor","inputs":[],"stateMutability":"nonpayable"},{"type":"function","name":"UPGRADE_INTERFACE_VERSION","inputs":[],"outputs":[{"name":"","type":"string","internalType":"string"}],"stateMutability":"view"},{"type":"function","name":"addBatchEvent","inputs":[{"name":"_batchId","type":"uint256","internalType":"uint256"},{"name":"_status","type":"uint8","internalType":"enum BatchManager.BatchStatus"},{"name":"_note","type":"string","internalType":"string"},{"name":"_location","type":"string","internalType":"string"}],"outputs":[{"name":"","type":"uint256","internalType":"uint256"}],"stateMutability":"nonpayable"},{"type":"function","name":"addBatchEventDetail","inputs":[{"name":"_batchEventId","type":"uint256","internalType":"uint256"},{"name":"_location","type":"string","internalType":"string"},{"name":"_description","type":"string","internalType":"string"}],"outputs":[{"name":"","type":"uint256","internalType":"uint256"}],"stateMutability":"nonpayable"},{"type":"function","name":"batchEventDetails","inputs":[{"name":"","type":"uint256","internalType":"uint256"}],"outputs":[{"name":"id","type":"uint256","internalType":"uint256"},{"name":"batchEventId","type":"uint256","internalType":"uint256"},{"name":"location","type":"string","internalType":"string"},{"name":"description","type":"string","internalType":"string"},{"name":"timestamp","type":"uint256","internalType":"uint256"}],"stateMutability":"view"},{"type":"function","name":"batchEvents","inputs":[{"name":"","type":"uint256","internalType":"uint256"}],"outputs":[{"name":"id","type":"uint256","internalType":"uint256"},{"name":"batchId","type":"uint256","internalType":"uint256"},{"name":"status","type":"uint8","internalType":"enum BatchManager.BatchStatus"},{"name":"timestamp","type":"uint256","internalType":"uint256"},{"name":"updatedBy","type":"address","internalType":"address"},{"name":"note","type":"string","internalType":"string"},{"name":"location","type":"string","internalType":"string"}],"stateMutability":"view"},{"type":"function","name":"batches","inputs":[{"name":"","type":"uint256","internalType":"uint256"}],"outputs":[{"name":"id","type":"uint256","internalType":"uint256"},{"name":"productId","type":"uint256","internalType":"uint256"},{"name":"quantity","type":"uint256","internalType":"uint256"},{"name":"workspaceId","type":"uint256","internalType":"uint256"},{"name":"supplierId","type":"address","internalType":"address"},{"name":"supplierAssignmentStatus","type":"uint8","internalType":"enum BatchManager.AssignmentStatus"},{"name":"transporterId","type":"address","internalType":"address"},{"name":"transporterAssignmentStatus","type":"uint8","internalType":"enum BatchManager.AssignmentStatus"},{"name":"status","type":"uint8","internalType":"enum BatchManager.BatchStatus"},{"name":"locationHash","type":"bytes32","internalType":"bytes32"},{"name":"imageQRHash","type":"bytes32","internalType":"bytes32"},{"name":"createdAt","type":"uint256","internalType":"uint256"},{"name":"isActive","type":"bool","internalType":"bool"}],"stateMutability":"view"},{"type":"function","name":"createBatch","inputs":[{"name":"_productId","type":"uint256","internalType":"uint256"},{"name":"_quantity","type":"uint256","internalType":"uint256"},{"name":"supplierAssignmentType","type":"uint8","internalType":"enum BatchManager.AssignmentStatus"},{"name":"_imageQRHash","type":"bytes32","internalType":"bytes32"}],"outputs":[{"name":"","type":"uint256","internalType":"uint256"}],"stateMutability":"nonpayable"},{"type":"function","name":"deleteBatch","inputs":[{"name":"_batchId","type":"uint256","internalType":"uint256"}],"outputs":[],"stateMutability":"nonpayable"},{"type":"function","name":"getBatch","inputs":[{"name":"_batchId","type":"uint256","internalType":"uint256"}],"outputs":[{"name":"","type":"tuple","internalType":"struct BatchManager.Batch","components":[{"name":"id","type":"uint256","internalType":"uint256"},{"name":"productId","type":"uint256","internalType":"uint256"},{"name":"quantity","type":"uint256","internalType":"uint256"},{"name":"workspaceId","type":"uint256","internalType":"uint256"},{"name":"supplierId","type":"address","internalType":"address"},{"name":"supplierAssignmentStatus","type":"uint8","internalType":"enum BatchManager.AssignmentStatus"},{"name":"transporterId","type":"address","internalType":"address"},{"name":"transporterAssignmentStatus","type":"uint8","internalType":"enum BatchManager.AssignmentStatus"},{"name":"status","type":"uint8","internalType":"enum BatchManager.BatchStatus"},{"name":"locationHash","type":"bytes32","internalType":"bytes32"},{"name":"imageQRHash","type":"bytes32","internalType":"bytes32"},{"name":"createdAt","type":"uint256","internalType":"uint256"},{"name":"isActive","type":"bool","internalType":"bool"}]}],"stateMutability":"view"},{"type":"function","name":"getBatchEvent","inputs":[{"name":"_batchEventId","type":"uint256","internalType":"uint256"}],"outputs":[{"name":"","type":"tuple","internalType":"struct BatchManager.BatchEvent","components":[{"name":"id","type":"uint256","internalType":"uint256"},{"name":"batchId","type":"uint256","internalType":"uint256"},{"name":"status","type":"uint8","internalType":"enum BatchManager.BatchStatus"},{"name":"timestamp","type":"uint256","internalType":"uint256"},{"name":"updatedBy","type":"address","internalType":"address"},{"name":"note","type":"string","internalType":"string"},{"name":"location","type":"string","internalType":"string"}]}],"stateMutability":"view"},{"type":"function","name":"getBatchEventDetail","inputs":[{"name":"_batchEventDetailId","type":"uint256","internalType":"uint256"}],"outputs":[{"name":"","type":"tuple","internalType":"struct BatchManager.BatchEventDetail","components":[{"name":"id","type":"uint256","internalType":"uint256"},{"name":"batchEventId","type":"uint256","internalType":"uint256"},{"name":"location","type":"string","internalType":"string"},{"name":"description","type":"string","internalType":"string"},{"name":"timestamp","type":"uint256","internalType":"uint256"}]}],"stateMutability":"view"},{"type":"function","name":"initialize","inputs":[{"name":"initialOwner","type":"address","internalType":"address"},{"name":"_productManager","type":"address","internalType":"address"},{"name":"_workspaceManager","type":"address","internalType":"address"}],"outputs":[],"stateMutability":"nonpayable"},{"type":"function","name":"inviteManager","inputs":[],"outputs":[{"name":"","type":"address","internalType":"address"}],"stateMutability":"view"},{"type":"function","name":"owner","inputs":[],"outputs":[{"name":"","type":"address","internalType":"address"}],"stateMutability":"view"},{"type":"function","name":"productManager","inputs":[],"outputs":[{"name":"","type":"address","internalType":"contract IProductManager"}],"stateMutability":"view"},{"type":"function","name":"proxiableUUID","inputs":[],"outputs":[{"name":"","type":"bytes32","internalType":"bytes32"}],"stateMutability":"view"},{"type":"function","name":"renounceOwnership","inputs":[],"outputs":[],"stateMutability":"nonpayable"},{"type":"function","name":"setInviteManager","inputs":[{"name":"_inviteManager","type":"address","internalType":"address"}],"outputs":[],"stateMutability":"nonpayable"},{"type":"function","name":"setSupplier","inputs":[{"name":"_batchId","type":"uint256","internalType":"uint256"},{"name":"_supplierId","type":"address","internalType":"address"}],"outputs":[],"stateMutability":"nonpayable"},{"type":"function","name":"setTransporter","inputs":[{"name":"_batchId","type":"uint256","internalType":"uint256"},{"name":"_transporterId","type":"address","internalType":"address"}],"outputs":[],"stateMutability":"nonpayable"},{"type":"function","name":"transferOwnership","inputs":[{"name":"newOwner","type":"address","internalType":"address"}],"outputs":[],"stateMutability":"nonpayable"},{"type":"function","name":"updateSupplierAssignmentStatus","inputs":[{"name":"_batchId","type":"uint256","internalType":"uint256"},{"name":"_assignmentStatus","type":"uint8","internalType":"enum BatchManager.AssignmentStatus"}],"outputs":[],"stateMutability":"nonpayable"},{"type":"function","name":"updateTransporterAssignmentStatus","inputs":[{"name":"_batchId","type":"uint256","internalType":"uint256"},{"name":"_assignmentStatus","type":"uint8","internalType":"enum BatchManager.AssignmentStatus"},{"name":"_locationHash","type":"bytes32","internalType":"bytes32"}],"outputs":[],"stateMutability":"nonpayable"},{"type":"function","name":"upgradeToAndCall","inputs":[{"name":"newImplementation","type":"address","internalType":"address"},{"name":"data","type":"bytes","internalType":"bytes"}],"outputs":[],"stateMutability":"payable"},{"type":"function","name":"workspaceManager","inputs":[],"outputs":[{"name":"","type":"address","internalType":"contract IWorkspaceManager"}],"stateMutability":"view"},{"type":"event","name":"BatchCreated","inputs":[{"name":"batchId","type":"uint256","indexed":true,"internalType":"uint256"},{"name":"productId","type":"uint256","indexed":true,"internalType":"uint256"},{"name":"workspaceId","type":"uint256","indexed":true,"internalType":"uint256"},{"name":"quantity","type":"uint256","indexed":false,"internalType":"uint256"}],"anonymous":false},{"type":"event","name":"BatchDeleted","inputs":[{"name":"batchId","type":"uint256","indexed":true,"internalType":"uint256"}],"anonymous":false},{"type":"event","name":"BatchEventAdded","inputs":[{"name":"batchEventId","type":"uint256","indexed":true,"internalType":"uint256"},{"name":"batchId","type":"uint256","indexed":true,"internalType":"uint256"},{"name":"status","type":"uint8","indexed":false,"internalType":"enum BatchManager.BatchStatus"}],"anonymous":false},{"type":"event","name":"BatchEventDetailAdded","inputs":[{"name":"batchEventDetailId","type":"uint256","indexed":true,"internalType":"uint256"},{"name":"batchEventId","type":"uint256","indexed":true,"internalType":"uint256"},{"name":"location","type":"string","indexed":false,"internalType":"string"}],"anonymous":false},{"type":"event","name":"BatchStatusUpdated","inputs":[{"name":"batchId","type":"uint256","indexed":true,"internalType":"uint256"},{"name":"status","type":"uint8","indexed":false,"internalType":"enum BatchManager.BatchStatus"}],"anonymous":false},{"type":"event","name":"Initialized","inputs":[{"name":"version","type":"uint64","indexed":false,"internalType":"uint64"}],"anonymous":false},{"type":"event","name":"OwnershipTransferred","inputs":[{"name":"previousOwner","type":"address","indexed":true,"internalType":"address"},{"name":"newOwner","type":"address","indexed":true,"internalType":"address"}],"anonymous":false},{"type":"event","name":"SupplierAssignmentTypeUpdated","inputs":[{"name":"batchId","type":"uint256","indexed":true,"internalType":"uint256"},{"name":"assignmentStatus","type":"uint8","indexed":false,"internalType":"enum BatchManager.AssignmentStatus"}],"anonymous":false},{"type":"event","name":"SupplierUpdated","inputs":[{"name":"batchId","type":"uint256","indexed":true,"internalType":"uint256"},{"name":"supplierId","type":"address","indexed":false,"internalType":"address"}],"anonymous":false},{"type":"event","name":"TransporterAssignmentTypeUpdated","inputs":[{"name":"batchId","type":"uint256","indexed":true,"internalType":"uint256"},{"name":"assignmentStatus","type":"uint8","indexed":false,"internalType":"enum BatchManager.AssignmentStatus"}],"anonymous":false},{"type":"event","name":"TransporterUpdated","inputs":[{"name":"batchId","type":"uint256","indexed":true,"internalType":"uint256"},{"name":"transporterId","type":"address","indexed":false,"internalType":"address"}],"anonymous":false},{"type":"event","name":"Upgraded","inputs":[{"name":"implementation","type":"address","indexed":true,"internalType":"address"}],"anonymous":false},{"type":"error","name":"AddressEmptyCode","inputs":[{"name":"target","type":"address","internalType":"address"}]},{"type":"error","name":"ERC1967InvalidImplementation","inputs":[{"name":"implementation","type":"address","internalType":"address"}]},{"type":"error","name":"ERC1967NonPayable","inputs":[]},{"type":"error","name":"FailedCall","inputs":[]},{"type":"error","name":"InvalidInitialization","inputs":[]},{"type":"error","name":"NotInitializing","inputs":[]},{"type":"error","name":"OwnableInvalidOwner","inputs":[{"name":"owner","type":"address","internalType":"address"}]},{"type":"error","name":"OwnableUnauthorizedAccount","inputs":[{"name":"account","type":"address","internalType":"address"}]},{"type":"error","name":"UUPSUnauthorizedCallContext","inputs":[]},{"type":"error","name":"UUPSUnsupportedProxiableUUID","inputs":[{"name":"slot","type":"bytes32","internalType":"bytes32"}]}],"bytecode":{"object":"0x60a080604052346100c257306080525f5160206124aa5f395f51905f525460ff8160401c166100b3576002600160401b03196001600160401b03821601610060575b6040516123e390816100c78239608051818181611577015261161a0152f35b6001600160401b0319166001600160401b039081175f5160206124aa5f395f51905f525581527fc7f505b2f371ae2175ee4913f4499e1f2633a7b5936321eed1cdaeb6115181d290602090a15f80610041565b63f92ee8a960e01b5f5260045ffd5b5f80fdfe6080806040526004361015610012575f80fd5b5f905f3560e01c9081630fdb3b6d14611d7c5750806311e132aa14611cf357806322663a681461188057806325bbe1e5146117fe57806327ebfd52146117965780634f1ef286146115cb57806352d1902d146115655780635ac4428214611375578063715018a61461130e57806374dd8d63146112695780637836417814610f2f57806378e812a814610e7a5780638da5cb5b14610e465780639e52b14b14610d13578063a5dd4f3e14610c30578063a948d6d714610c08578063ad3cb1cc14610bbd578063b32c4d8d14610ada578063c0c53b8b14610949578063d06b1da814610837578063d5499ce3146107b5578063e3aa635c1461072c578063f2fde38b14610701578063f426306f146106da5763fc8a5f0414610131575f80fd5b34610610576080366003190112610610576024356004356007821015610610576044356001600160401b03811161061057610170903690600401611e8f565b916064356001600160401b03811161061057610190903690600401611e8f565b825f52600360205260405f2060018060a01b03600482015416331480156106c4575b8015610650575b6101c39150612133565b825f52600360205260405f20805415610614576101e383600583016121ce565b837fcf4d4f3dcd5294f4d19269f489155c2187699f4a9fb9004b6a303752b00b282f60206040516102148188611fb6565ba2600583146105a6575b5061022a600754612170565b93846007556040519061023c82611e02565b858252602082018581526040830161025486826121c2565b6060840190428252608085019233845260a0860194855260c08601968752898b52600460205260408b2095518655516001860155600285019051600781101561059257815460ff191660ff91909116179055516003840155516004830180546001600160a01b039092166001600160a01b031990921691909117905551805160058301916001600160401b03821161057e576102f08354611ead565b601f811161052c575b50602090601f83116001146104c6576006949392918a91836104bb575b50508160011b915f199060031b1c19161790555b019051948551906001600160401b0382116104a7576103498354611ead565b601f8111610455575b5060209686949392918891906001601f8511146103cd579289949281927f40af9637bca50a35fb9bea797552cd9ca451a9d56da35619c12e2f96f71a12a89795926103c2575b50508160011b915f199060031b1c19161790555b6103b96040518092611fb6565ba3604051908152f35b015190505f80610398565b9190601f198416858452828420935b81811061043b57509260019285927f40af9637bca50a35fb9bea797552cd9ca451a9d56da35619c12e2f96f71a12a898968d989610610423575b505050811b0190556103ac565b01515f1960f88460031b161c191690555f8080610416565b8284015185558a9850600190940193928b01928b016103dc565b82811115610352579683825260208220601f840160051c906020851061049f575b810198601f0160051c03825b81811061049157505096610352565b80846001928c015501610482565b839150610476565b634e487b7160e01b81526041600452602490fd5b015190505f80610316565b838a52818a209190601f1984168b5b8181106105145750916001939185600698979694106104fc575b505050811b01905561032a565b01515f1960f88460031b161c191690555f80806104ef565b929360206001819287860151815501950193016104d5565b828111156102f957838a5260208a20601f840160051c9060208510610576575b81601f9101920160051c03908a5b8281106105685750506102f9565b808c6001928401550161055a565b8b915061054c565b634e487b7160e01b89526041600452602489fd5b634e487b7160e01b8b52602160045260248bfd5b60018060a01b035f54169060026001820154910154823b156106105760445f9283604051958694859363c11e4e0b60e01b8552600485015260248401525af18015610605571561021e576105fd9195505f90611e1d565b5f935f61021e565b6040513d5f823e3d90fd5b5f80fd5b60405162461bcd60e51b815260206004820152601460248201527310985d18da08191bd95cc81b9bdd08195e1a5cdd60621b6044820152606490fd5b505f600360018060a01b0360015416920154602460405180948193636649254160e11b835260048301525afa8015610605576101c3915f916106a2575b50608001516001600160a01b031633146101b9565b6106be91503d805f833e6106b68183611e1d565b810190612057565b5f61068d565b5060058101546001600160a01b031633146101b2565b34610610575f366003190112610610575f546040516001600160a01b039091168152602090f35b346106105760203660031901126106105761072a61071d611db5565b610725612263565b6121f2565b005b34610610576040366003190112610610576004357f179cb8967446bf74dd944b87dc1e7d397d3f988b1f49330f71def4f36cbf4950602061076b611d9f565b61078060018060a01b03600254163314611fc3565b5f8481526003835260409081902060050180546001600160a01b0319166001600160a01b0393909316928317905551908152a2005b346106105760603660031901126106105760043560243560038110156106105760207fefee2e21676dd81e2e92d0db893c3b8a72ce23946733430b9342b3ef735f167091604435845f526003835260405f206108148360058301612192565b8161082c575b50506108296040518092611fa9565ba2005b60060155848061081a565b3461061057602036600319011261061057600435805f52600360205260405f2060018060a01b03600154165f6003830154602460405180948193636649254160e11b835260048301525afa908115610605575f9161092f575b50608001516001600160a01b031633036108d557600901805460ff191690557f261cffd1af894873ee437261895842c8e0089fd0ec77bd0362f606f66f4892705f80a2005b60405162461bcd60e51b815260206004820152602c60248201527f4f6e6c7920776f726b7370616365206f776e65722063616e20706572666f726d60448201526b103a3434b99030b1ba34b7b760a11b6064820152608490fd5b61094391503d805f833e6106b68183611e1d565b83610890565b3461061057606036600319011261061057610962611db5565b61096a611d9f565b6044356001600160a01b0381169190829003610610575f51602061238e5f395f51905f525460ff8160401c1615936001600160401b03821680159081610ad2575b6001149081610ac8575b159081610abf575b50610ab05767ffffffffffffffff1982166001175f51602061238e5f395f51905f52556109fb9185610a84575b506109f3612296565b610725612296565b60018060a01b03166001600160601b0360a01b5f5416175f556001600160601b0360a01b6001541617600155610a2d57005b68ff0000000000000000195f51602061238e5f395f51905f5254165f51602061238e5f395f51905f52557fc7f505b2f371ae2175ee4913f4499e1f2633a7b5936321eed1cdaeb6115181d2602060405160018152a1005b68ffffffffffffffffff191668010000000000000001175f51602061238e5f395f51905f5255856109ea565b63f92ee8a960e01b5f5260045ffd5b905015866109bd565b303b1591506109b5565b8691506109ab565b34610610576020366003190112610610576004355f5260036020526101a060405f2080549060018101549060028101546003820154610ba16004840154610b6d60058601549160068701549460078801549660ff600960088b01549a015416996040519b8c5260208c015260408b015260608a015260018060a01b03811660808a015260ff60a08a019160a01c16611fa9565b6001600160a01b03811660c0880152610b9060e0880160a083901c60ff16611fa9565b60ff61010088019160a81c16611fb6565b6101208501526101408401526101608301521515610180820152f35b34610610575f36600319011261061057610c04604051610bde604082611e1d565b60058152640352e302e360dc1b6020820152604051918291602083526020830190611f85565b0390f35b34610610575f366003190112610610576001546040516001600160a01b039091168152602090f35b34610610576020366003190112610610575f6080604051610c5081611dcb565b8281528260208201526060604082015260608082015201526004355f52600560205260405f20604051610c8281611dcb565b8154815260018201549160208201928352610d08610ca260028301611ee5565b9160408401928352610cf56004610cbb60038401611ee5565b926060870193845201549360808601948552604051968796602088525160208801525160408701525160a0606087015260c0860190611f85565b9051848203601f19016080860152611f85565b905160a08301520390f35b3461061057602036600319011261061057606060c0604051610d3481611e02565b5f81525f60208201525f60408201525f838201525f60808201528260a082015201526004355f52600460205260405f20604051610d7081611e02565b81548152610c0460018301549260208301938452610e3360ff60028301541691610d9e6040860193846121c2565b60038101546060860190815260048201546001600160a01b03166080870190815290610e0b610de26006610dd460058701611ee5565b9560a08b0196875201611ee5565b9560c08901968752604051998a9960208b525160208b01525160408a0152516060890190611fb6565b516080870152516001600160a01b031660a08601525160e060c0860152610100850190611f85565b9051838203601f190160e0850152611f85565b34610610575f366003190112610610575f51602061234e5f395f51905f52546040516001600160a01b039091168152602090f35b3461061057602036600319011261061057610e93611db5565b600254906001600160a01b038216610efc576001600160a01b0316908115610ec5576001600160a01b03191617600255005b60405162461bcd60e51b815260206004820152600f60248201526e496e76616c6964206164647265737360881b6044820152606490fd5b60405162461bcd60e51b815260206004820152600b60248201526a105b1c9958591e481cd95d60aa1b6044820152606490fd5b3461061057608036600319011261061057604435600435600382101561061057610f6460018060a01b03600254163314611fc3565b5f8054604051631362710d60e11b8152600481018490529190829060249082906001600160a01b03165afa8015610605575f9061114c575b60c091500151610fad600654612170565b918260065582604051610fbf81611de6565b818152602081019083825260408101916024358352606082019286845260808301985f8a52610ff260a0850191826121b6565b60c08401995f8b5260e08501905f82526101008601925f84526101208701975f895261014088019560643587526101608901974289526101808a019b60018d525f52600360205260405f2099518a555160018a0155516002890155516003880155600487019160018060a01b039060018060a01b03905116166001600160601b0360a01b8354161782555160038110156111385761108f91612192565b99516005850180546001600160a01b0319166001600160a01b039290921691909117815599516003811015611138576110c8908b612192565b51936007851015611138576110e160099560209b6121ce565b516006840155516007830155516008820155019051151560ff80198354169116179055827f3f4885000dcfbb6799ee05ca18d15569363186b6ef17fecd1842249038718b79856040516024358152a4604051908152f35b634e487b7160e01b5f52602160045260245ffd5b503d805f833e61115c8183611e1d565b810190602081830312610610578051906001600160401b03821161061057019061012082820312610610576040519061012082018281106001600160401b03821117611255576040528251825260208301516001600160401b03811161061057816111c8918501612004565b602083015260408301516001600160401b03811161061057816111ec918501612004565b6040830152606083015160608301526080830151926001600160401b038411610610576112206101009260c0958301612004565b608084015260a081015160a0840152838101518484015261124360e0820161204a565b60e08401520151610100820152610f9c565b634e487b7160e01b5f52604160045260245ffd5b34610610576020366003190112610610576004355f52600460205260405f208054610c0460018301549261130060ff60028301541691600381015460018060a01b03600483015416906112e56112cd60066112c660058701611ee5565b9501611ee5565b95604051998a998a5260208a01526040890190611fb6565b6060870152608086015260e060a086015260e0850190611f85565b9083820360c0850152611f85565b34610610575f36600319011261061057611326612263565b5f51602061234e5f395f51905f5280546001600160a01b031981169091555f906001600160a01b03167f8be0079c531659141344cd1fd0a4f28419497f9722a3daafe3b4186f6b6457e08280a3005b346106105760203660031901126106105760405161139281611de6565b5f8152602081015f9052604081015f9052606081015f9052608081015f905260a081015f905260c081015f905260e081015f905261010081015f905261012081015f905261014081015f905261016081015f9052610180015f90526004355f52600360205260405f206040519061140882611de6565b8054825260018101549060208301918252600281015460408401908152600382015460608501908152600483015460808601600160a01b600190038216815260a087019160a01c60ff1661145c90836121b6565b60058501546001600160a01b03811660c08901908152909260e089019261148a60ff60a087901c16856121b6565b6101008a019460a81c60ff166114a090866121c2565b6006880154956101208b019687526007890154976101408c0198895260088a0154996101608d019a8b526009015460ff169a6101808d019b15158c526040519c518d525160208d01525160408c01525160608b0152600160a01b6001900390511660808a01525160a0890161151491611fa9565b516001600160a01b031660c0880152516115329060e0880190611fa9565b51610100860161154191611fb6565b5161012085015251610140840152516101608301525115156101808201526101a090f35b34610610575f366003190112610610577f00000000000000000000000000000000000000000000000000000000000000006001600160a01b031630036115bc5760206040515f51602061236e5f395f51905f528152f35b63703e46dd60e11b5f5260045ffd5b6040366003190112610610576115df611db5565b6024356001600160401b03811161061057366023820112156106105761160f903690602481600401359101611e59565b906001600160a01b037f000000000000000000000000000000000000000000000000000000000000000016308114908115611774575b506115bc57611652612263565b6040516352d1902d60e01b81526001600160a01b0382169290602081600481875afa5f9181611740575b506116945783634c9c8ce360e01b5f5260045260245ffd5b805f51602061236e5f395f51905f5285920361172e5750823b1561171c575f51602061236e5f395f51905f5280546001600160a01b031916821790557fbc7cd75a20ee27fd9adebab32041f755214dbc6bffa90cc0225b39da2e5c2d3b5f80a28051156117045761072a916122c1565b50503461170d57005b63b398979f60e01b5f5260045ffd5b634c9c8ce360e01b5f5260045260245ffd5b632a87526960e21b5f5260045260245ffd5b9091506020813d60201161176c575b8161175c60209383611e1d565b810103126106105751908561167c565b3d915061174f565b5f51602061236e5f395f51905f52546001600160a01b03161415905083611645565b346106105760403660031901126106105760043560243560038110156106105760207f9fee93ca76eb0e64cc9c4359ee3121dcfd7c32d623505f3e36dc71a2cc81ba0c91835f52600382526117f181600460405f2001612192565b6108296040518092611fa9565b34610610576020366003190112610610576004355f52600560205260405f20805460018201549161187661183460028301611ee5565b91611868600461184660038401611ee5565b920154936040519687968752602087015260a0604087015260a0860190611f85565b908482036060860152611f85565b9060808301520390f35b34610610576060366003190112610610576004356024356001600160401b038111610610576118b3903690600401611e8f565b6044356001600160401b038111610610576118d2903690600401611e8f565b91805f526004602052600160405f2001545f52600360205260405f2060018060a01b0360048201541633148015611cdd575b8015611c71575b6119159150612133565b805f52600460205260405f205415611c2c57611932600854612170565b918260085560405161194381611dcb565b8381526020810183815260408201838152606083019687526080830191428352865f52600560205260405f20935184555160018401556002830190518051906001600160401b03821161125557819061199c8454611ead565b601f8111611bd3575b50602090601f8311600114611b70575f92611b65575b50508160011b915f199060031b1c19161790555b6003820195519586516001600160401b038111611255576119f08254611ead565b601f8111611b14575b509086949392916020988990601f8311600114611a855792826004937f0ae146a007d2522d01852bcfd2078f91262f217f3968e0fe65d34a772f972015989693611a6f98965f92611a7a575b50508160011b915f199060031b1c19161790555b5191015560405191829188835288830190611f85565b0390a3604051908152f35b015190508d80611a45565b90601f19831691845f52815f20925f5b818110611afa5750937f0ae146a007d2522d01852bcfd2078f91262f217f3968e0fe65d34a772f972015989693611a6f9896936001938360049810611ae2575b505050811b019055611a59565b01515f1960f88460031b161c191690558d8080611ad5565b8284015185558c9a50600190940193928d01928d01611a95565b818111156119f95797825f5260205f20601f830160051c9060208410611b5d575b810199601f0160051c035f5b818110611b50575050976119f9565b5f8b820155600101611b41565b5f9150611b35565b0151905089806119bb565b5f8581528281209350601f198516905b818110611bbb5750908460019594939210611ba3575b505050811b0190556119cf565b01515f1960f88460031b161c19169055898080611b96565b92936020600181928786015181550195019301611b80565b828111156119a557909150835f5260205f20601f840160051c9060208510611c24575b849392601f0160051c82900391015f5b828110611c145750506119a5565b5f81830155859450600101611c06565b5f9150611bf6565b60405162461bcd60e51b815260206004820152601a60248201527f4261746368206576656e7420646f6573206e6f742065786973740000000000006044820152606490fd5b505f600360018060a01b0360015416920154602460405180948193636649254160e11b835260048301525afa801561060557611915915f91611cc3575b50608001516001600160a01b0316331461190b565b611cd791503d805f833e6106b68183611e1d565b85611cae565b5060058101546001600160a01b03163314611904565b34610610576040366003190112610610576004357f05cbfe3649051b917ac0274064838de8cdbed42856e619dcf4146db75f2777ff6020611d32611d9f565b611d4760018060a01b03600254163314611fc3565b5f8481526003835260409081902060040180546001600160a01b0319166001600160a01b0393909316928317905551908152a2005b34610610575f366003190112610610576002546001600160a01b03168152602090f35b602435906001600160a01b038216820361061057565b600435906001600160a01b038216820361061057565b60a081019081106001600160401b0382111761125557604052565b6101a081019081106001600160401b0382111761125557604052565b60e081019081106001600160401b0382111761125557604052565b90601f801991011681019081106001600160401b0382111761125557604052565b6001600160401b03811161125557601f01601f191660200190565b929192611e6582611e3e565b91611e736040519384611e1d565b829481845281830111610610578281602093845f960137010152565b9080601f8301121561061057816020611eaa93359101611e59565b90565b90600182811c92168015611edb575b6020831014611ec757565b634e487b7160e01b5f52602260045260245ffd5b91607f1691611ebc565b9060405191825f825492611ef884611ead565b8084529360018116908115611f635750600114611f1f575b50611f1d92500383611e1d565b565b90505f9291925260205f20905f915b818310611f47575050906020611f1d928201015f611f10565b6020919350806001915483858901015201910190918492611f2e565b905060209250611f1d94915060ff191682840152151560051b8201015f611f10565b805180835260209291819084018484015e5f828201840152601f01601f1916010190565b9060038210156111385752565b9060078210156111385752565b15611fca57565b60405162461bcd60e51b815260206004820152601260248201527127b7363c9024b73b34ba32a6b0b730b3b2b960711b6044820152606490fd5b81601f820112156106105780519061201b82611e3e565b926120296040519485611e1d565b8284526020838301011161061057815f9260208093018386015e8301015290565b5190811515820361061057565b602081830312610610578051906001600160401b038211610610570160e081830312610610576040519161208a83611e02565b8151835260208201516001600160401b03811161061057816120ad918401612004565b602084015260408201516001600160401b03811161061057816120d1918401612004565b60408401526060820151906001600160401b038211610610576120f5918301612004565b60608301526080810151906001600160a01b03821682036106105760c091608084015261212460a0820161204a565b60a0840152015160c082015290565b1561213a57565b60405162461bcd60e51b815260206004820152600e60248201526d139bdd08185d5d1a1bdc9a5e995960921b6044820152606490fd5b5f19811461217e5760010190565b634e487b7160e01b5f52601160045260245ffd5b90600381101561113857815460ff60a01b191660a09190911b60ff60a01b16179055565b60038210156111385752565b60078210156111385752565b90600781101561113857815460ff60a81b191660a89190911b60ff60a81b16179055565b6001600160a01b03168015612250575f51602061234e5f395f51905f5280546001600160a01b0319811683179091556001600160a01b03167f8be0079c531659141344cd1fd0a4f28419497f9722a3daafe3b4186f6b6457e05f80a3565b631e4fbdf760e01b5f525f60045260245ffd5b5f51602061234e5f395f51905f52546001600160a01b0316330361228357565b63118cdaa760e01b5f523360045260245ffd5b60ff5f51602061238e5f395f51905f525460401c16156122b257565b631afcd79f60e31b5f5260045ffd5b905f8091602081519101845af4808061233a575b156122f55750506040513d81523d5f602083013e60203d82010160405290565b1561231a57639996b31560e01b5f9081526001600160a01b0391909116600452602490fd5b3d1561232b576040513d5f823e3d90fd5b63d6bda27560e01b5f5260045ffd5b503d1515806122d55750813b15156122d556fe9016d09d72d40fdae2fd8ceac6b6234c7706214fd39c1cd1e609a0528c199300360894a13ba1a3210667c828492db98dca3e2076cc3735a920a3ca505d382bbcf0c57e16840df040f15088dc2f81fe391c3923bec73e23a9662efc9c229c6a00a264697066735822122095cf861eb97e45aed7ecbd016e122fd699c2aac226cf6301bd23b960ab27fdff64736f6c63430008210033f0c57e16840df040f15088dc2f81fe391c3923bec73e23a9662efc9c229c6a00","linkReferences":{}},"methodIdentifiers":{"UPGRADE_INTERFACE_VERSION()":"ad3cb1cc","addBatchEvent(uint256,uint8,string,string)":"fc8a5f04","addBatchEventDetail(uint256,string,string)":"22663a68","batchEventDetails(uint256)":"25bbe1e5","batchEvents(uint256)":"74dd8d63","batches(uint256)":"b32c4d8d","createBatch(uint256,uint256,uint8,bytes32)":"78364178","deleteBatch(uint256)":"d06b1da8","getBatch(uint256)":"5ac44282","getBatchEvent(uint256)":"9e52b14b","getBatchEventDetail(uint256)":"a5dd4f3e","initialize(address,address,address)":"c0c53b8b","inviteManager()":"0fdb3b6d","owner()":"8da5cb5b","productManager()":"f426306f","proxiableUUID()":"52d1902d","renounceOwnership()":"715018a6","setInviteManager(address)":"78e812a8","setSupplier(uint256,address)":"11e132aa","setTransporter(uint256,address)":"e3aa635c","transferOwnership(address)":"f2fde38b","updateSupplierAssignmentStatus(uint256,uint8)":"27ebfd52","updateTransporterAssignmentStatus(uint256,uint8,bytes32)":"d5499ce3","upgradeToAndCall(address,bytes)":"4f1ef286","workspaceManager()":"a948d6d7"},"storageLayout":{"storage":[{"astId":37501,"contract":"src/contracts/BatchManager.sol:BatchManager","label":"productManager","offset":0,"slot":"0","type":"t_contract(IProductManager)39469"},{"astId":37504,"contract":"src/contracts/BatchManager.sol:BatchManager","label":"workspaceManager","offset":0,"slot":"1","type":"t_contract(IWorkspaceManager)39787"},{"astId":37506,"contract":"src/contracts/BatchManager.sol:BatchManager","label":"inviteManager","offset":0,"slot":"2","type":"t_address"},{"astId":37580,"contract":"src/contracts/BatchManager.sol:BatchManager","label":"batches","offset":0,"slot":"3","type":"t_mapping(t_uint256,t_struct(Batch)37548_storage)"},{"astId":37585,"contract":"src/contracts/BatchManager.sol:BatchManager","label":"batchEvents","offset":0,"slot":"4","type":"t_mapping(t_uint256,t_struct(BatchEvent)37564_storage)"},{"astId":37590,"contract":"src/contracts/BatchManager.sol:BatchManager","label":"batchEventDetails","offset":0,"slot":"5","type":"t_mapping(t_uint256,t_struct(BatchEventDetail)37575_storage)"},{"astId":37592,"contract":"src/contracts/BatchManager.sol:BatchManager","label":"batchCounter","offset":0,"slot":"6","type":"t_uint256"},{"astId":37594,"contract":"src/contracts/BatchManager.sol:BatchManager","label":"batchEventCounter","offset":0,"slot":"7","type":"t_uint256"},{"astId":37596,"contract":"src/contracts/BatchManager.sol:BatchManager","label":"batchEventDetailCounter","offset":0,"slot":"8","type":"t_uint256"},{"astId":37600,"contract":"src/contracts/BatchManager.sol:BatchManager","label":"__gap","offset":0,"slot":"9","type":"t_array(t_uint256)50_storage"}],"types":{"t_address":{"encoding":"inplace","label":"address","numberOfBytes":"20"},"t_array(t_uint256)50_storage":{"encoding":"inplace","label":"uint256[50]","numberOfBytes":"1600","base":"t_uint256"},"t_bool":{"encoding":"inplace","label":"bool","numberOfBytes":"1"},"t_bytes32":{"encoding":"inplace","label":"bytes32","numberOfBytes":"32"},"t_contract(IProductManager)39469":{"encoding":"inplace","label":"contract IProductManager","numberOfBytes":"20"},"t_contract(IWorkspaceManager)39787":{"encoding":"inplace","label":"contract IWorkspaceManager","numberOfBytes":"20"},"t_enum(AssignmentStatus)37510":{"encoding":"inplace","label":"enum BatchManager.AssignmentStatus","numberOfBytes":"1"},"t_enum(BatchStatus)37518":{"encoding":"inplace","label":"enum BatchManager.BatchStatus","numberOfBytes":"1"},"t_mapping(t_uint256,t_struct(Batch)37548_storage)":{"encoding":"mapping","key":"t_uint256","label":"mapping(uint256 => struct BatchManager.Batch)","numberOfBytes":"32","value":"t_struct(Batch)37548_storage"},"t_mapping(t_uint256,t_struct(BatchEvent)37564_storage)":{"encoding":"mapping","key":"t_uint256","label":"mapping(uint256 => struct BatchManager.BatchEvent)","numberOfBytes":"32","value":"t_struct(BatchEvent)37564_storage"},"t_mapping(t_uint256,t_struct(BatchEventDetail)37575_storage)":{"encoding":"mapping","key":"t_uint256","label":"mapping(uint256 => struct BatchManager.BatchEventDetail)","numberOfBytes":"32","value":"t_struct(BatchEventDetail)37575_storage"},"t_string_storage":{"encoding":"bytes","label":"string","numberOfBytes":"32"},"t_struct(Batch)37548_storage":{"encoding":"inplace","label":"struct BatchManager.Batch","numberOfBytes":"320","members":[{"astId":37520,"contract":"src/contracts/BatchManager.sol:BatchManager","label":"id","offset":0,"slot":"0","type":"t_uint256"},{"astId":37522,"contract":"src/contracts/BatchManager.sol:BatchManager","label":"productId","offset":0,"slot":"1","type":"t_uint256"},{"astId":37524,"contract":"src/contracts/BatchManager.sol:BatchManager","label":"quantity","offset":0,"slot":"2","type":"t_uint256"},{"astId":37526,"contract":"src/contracts/BatchManager.sol:BatchManager","label":"workspaceId","offset":0,"slot":"3","type":"t_uint256"},{"astId":37528,"contract":"src/contracts/BatchManager.sol:BatchManager","label":"supplierId","offset":0,"slot":"4","type":"t_address"},{"astId":37531,"contract":"src/contracts/BatchManager.sol:BatchManager","label":"supplierAssignmentStatus","offset":20,"slot":"4","type":"t_enum(AssignmentStatus)37510"},{"astId":37533,"contract":"src/contracts/BatchManager.sol:BatchManager","label":"transporterId","offset":0,"slot":"5","type":"t_address"},{"astId":37536,"contract":"src/contracts/BatchManager.sol:BatchManager","label":"transporterAssignmentStatus","offset":20,"slot":"5","type":"t_enum(AssignmentStatus)37510"},{"astId":37539,"contract":"src/contracts/BatchManager.sol:BatchManager","label":"status","offset":21,"slot":"5","type":"t_enum(BatchStatus)37518"},{"astId":37541,"contract":"src/contracts/BatchManager.sol:BatchManager","label":"locationHash","offset":0,"slot":"6","type":"t_bytes32"},{"astId":37543,"contract":"src/contracts/BatchManager.sol:BatchManager","label":"imageQRHash","offset":0,"slot":"7","type":"t_bytes32"},{"astId":37545,"contract":"src/contracts/BatchManager.sol:BatchManager","label":"createdAt","offset":0,"slot":"8","type":"t_uint256"},{"astId":37547,"contract":"src/contracts/BatchManager.sol:BatchManager","label":"isActive","offset":0,"slot":"9","type":"t_bool"}]},"t_struct(BatchEvent)37564_storage":{"encoding":"inplace","label":"struct BatchManager.BatchEvent","numberOfBytes":"224","members":[{"astId":37550,"contract":"src/contracts/BatchManager.sol:BatchManager","label":"id","offset":0,"slot":"0","type":"t_uint256"},{"astId":37552,"contract":"src/contracts/BatchManager.sol:BatchManager","label":"batchId","offset":0,"slot":"1","type":"t_uint256"},{"astId":37555,"contract":"src/contracts/BatchManager.sol:BatchManager","label":"status","offset":0,"slot":"2","type":"t_enum(BatchStatus)37518"},{"astId":37557,"contract":"src/contracts/BatchManager.sol:BatchManager","label":"timestamp","offset":0,"slot":"3","type":"t_uint256"},{"astId":37559,"contract":"src/contracts/BatchManager.sol:BatchManager","label":"updatedBy","offset":0,"slot":"4","type":"t_address"},{"astId":37561,"contract":"src/contracts/BatchManager.sol:BatchManager","label":"note","offset":0,"slot":"5","type":"t_string_storage"},{"astId":37563,"contract":"src/contracts/BatchManager.sol:BatchManager","label":"location","offset":0,"slot":"6","type":"t_string_storage"}]},"t_struct(BatchEventDetail)37575_storage":{"encoding":"inplace","label":"struct BatchManager.BatchEventDetail","numberOfBytes":"160","members":[{"astId":37566,"contract":"src/contracts/BatchManager.sol:BatchManager","label":"id","offset":0,"slot":"0","type":"t_uint256"},{"astId":37568,"contract":"src/contracts/BatchManager.sol:BatchManager","label":"batchEventId","offset":0,"slot":"1","type":"t_uint256"},{"astId":37570,"contract":"src/contracts/BatchManager.sol:BatchManager","label":"location","offset":0,"slot":"2","type":"t_string_storage"},{"astId":37572,"contract":"src/contracts/BatchManager.sol:BatchManager","label":"description","offset":0,"slot":"3","type":"t_string_storage"},{"astId":37574,"contract":"src/contracts/BatchManager.sol:BatchManager","label":"timestamp","offset":0,"slot":"4","type":"t_uint256"}]},"t_uint256":{"encoding":"inplace","label":"uint256","numberOfBytes":"32"}}},"id":29}