{"abi":[{"type":"constructor","inputs":[],"stateMutability":"nonpayable"},{"type":"function","name":"UPGRADE_INTERFACE_VERSION","inputs":[],"outputs":[{"name":"","type":"string","internalType":"string"}],"stateMutability":"view"},{"type":"function","name":"certifications","inputs":[{"name":"","type":"uint256","internalType":"uint256"}],"outputs":[{"name":"id","type":"uint256","internalType":"uint256"},{"name":"name","type":"string","internalType":"string"},{"name":"issuer","type":"string","internalType":"string"},{"name":"issueDate","type":"uint256","internalType":"uint256"},{"name":"expiryDate","type":"uint256","internalType":"uint256"},{"name":"fileHash","type":"string","internalType":"string"},{"name":"userId","type":"address","internalType":"address"},{"name":"isActive","type":"bool","internalType":"bool"}],"stateMutability":"view"},{"type":"function","name":"expireCertification","inputs":[{"name":"_certificationId","type":"uint256","internalType":"uint256"}],"outputs":[],"stateMutability":"nonpayable"},{"type":"function","name":"getCertification","inputs":[{"name":"_certificationId","type":"uint256","internalType":"uint256"}],"outputs":[{"name":"","type":"tuple","internalType":"struct CertificationManager.Certification","components":[{"name":"id","type":"uint256","internalType":"uint256"},{"name":"name","type":"string","internalType":"string"},{"name":"issuer","type":"string","internalType":"string"},{"name":"issueDate","type":"uint256","internalType":"uint256"},{"name":"expiryDate","type":"uint256","internalType":"uint256"},{"name":"fileHash","type":"string","internalType":"string"},{"name":"userId","type":"address","internalType":"address"},{"name":"isActive","type":"bool","internalType":"bool"}]}],"stateMutability":"view"},{"type":"function","name":"initialize","inputs":[{"name":"initialOwner","type":"address","internalType":"address"}],"outputs":[],"stateMutability":"nonpayable"},{"type":"function","name":"issueCertification","inputs":[{"name":"_name","type":"string","internalType":"string"},{"name":"_issuer","type":"string","internalType":"string"},{"name":"_issueDate","type":"uint256","internalType":"uint256"},{"name":"_expiryDate","type":"uint256","internalType":"uint256"},{"name":"_fileHash","type":"string","internalType":"string"}],"outputs":[{"name":"","type":"uint256","internalType":"uint256"}],"stateMutability":"nonpayable"},{"type":"function","name":"owner","inputs":[],"outputs":[{"name":"","type":"address","internalType":"address"}],"stateMutability":"view"},{"type":"function","name":"proxiableUUID","inputs":[],"outputs":[{"name":"","type":"bytes32","internalType":"bytes32"}],"stateMutability":"view"},{"type":"function","name":"renounceOwnership","inputs":[],"outputs":[],"stateMutability":"nonpayable"},{"type":"function","name":"transferOwnership","inputs":[{"name":"newOwner","type":"address","internalType":"address"}],"outputs":[],"stateMutability":"nonpayable"},{"type":"function","name":"upgradeToAndCall","inputs":[{"name":"newImplementation","type":"address","internalType":"address"},{"name":"data","type":"bytes","internalType":"bytes"}],"outputs":[],"stateMutability":"payable"},{"type":"event","name":"CertificationCreated","inputs":[{"name":"certificationId","type":"uint256","indexed":true,"internalType":"uint256"},{"name":"userId","type":"address","indexed":true,"internalType":"address"},{"name":"name","type":"string","indexed":false,"internalType":"string"},{"name":"expiryDate","type":"uint256","indexed":false,"internalType":"uint256"}],"anonymous":false},{"type":"event","name":"CertificationExpired","inputs":[{"name":"certificationId","type":"uint256","indexed":true,"internalType":"uint256"},{"name":"userId","type":"address","indexed":true,"internalType":"address"}],"anonymous":false},{"type":"event","name":"Initialized","inputs":[{"name":"version","type":"uint64","indexed":false,"internalType":"uint64"}],"anonymous":false},{"type":"event","name":"OwnershipTransferred","inputs":[{"name":"previousOwner","type":"address","indexed":true,"internalType":"address"},{"name":"newOwner","type":"address","indexed":true,"internalType":"address"}],"anonymous":false},{"type":"event","name":"Upgraded","inputs":[{"name":"implementation","type":"address","indexed":true,"internalType":"address"}],"anonymous":false},{"type":"error","name":"AddressEmptyCode","inputs":[{"name":"target","type":"address","internalType":"address"}]},{"type":"error","name":"ERC1967InvalidImplementation","inputs":[{"name":"implementation","type":"address","internalType":"address"}]},{"type":"error","name":"ERC1967NonPayable","inputs":[]},{"type":"error","name":"FailedCall","inputs":[]},{"type":"error","name":"InvalidInitialization","inputs":[]},{"type":"error","name":"NotInitializing","inputs":[]},{"type":"error","name":"OwnableInvalidOwner","inputs":[{"name":"owner","type":"address","internalType":"address"}]},{"type":"error","name":"OwnableUnauthorizedAccount","inputs":[{"name":"account","type":"address","internalType":"address"}]},{"type":"error","name":"UUPSUnauthorizedCallContext","inputs":[]},{"type":"error","name":"UUPSUnsupportedProxiableUUID","inputs":[{"name":"slot","type":"bytes32","internalType":"bytes32"}]}],"bytecode":{"object":"0x60a080604052346100c257306080525f51602061127a5f395f51905f525460ff8160401c166100b3576002600160401b03196001600160401b03821601610060575b6040516111b390816100c782396080518181816105b6015261065a0152f35b6001600160401b0319166001600160401b039081175f51602061127a5f395f51905f525581527fc7f505b2f371ae2175ee4913f4499e1f2633a7b5936321eed1cdaeb6115181d290602090a15f80610041565b63f92ee8a960e01b5f5260045ffd5b5f80fdfe60806040526004361015610011575f80fd5b5f3560e01c80632478f2ad1461089a5780633c0359a4146107d65780634f1ef2861461060a57806352d1902d146105a4578063715018a61461053d5780638da5cb5b14610509578063ad3cb1cc146104be578063c3cf7f9214610367578063c4d66de81461021f578063ec981eac146100c15763f2fde38b14610092575f80fd5b346100bd5760203660031901126100bd576100bb6100ae610fac565b6100b6611033565b610fc2565b005b5f80fd5b346100bd5760203660031901126100bd575f60e06040516100e181610e0d565b8281526060602082015260606040820152826060820152826080820152606060a08201528260c082015201526004355f525f60205260405f2060405161012681610e0d565b8154815261013660018301610ee8565b916020820192835261014a60028201610ee8565b906040830191825261020260038201546060850190815260048301549260808601938452600661017c60058301610ee8565b9160a088019283520154936101e360c088019660018060a01b038716885260ff60e08a019760a01c16151587526101d06040519a8b9a60208c525160208c01525161010060408c01526101208b0190610f88565b9051898203601f190160608b0152610f88565b925160808801525160a087015251858203601f190160c0870152610f88565b91516001600160a01b031660e08401525115156101008301520390f35b346100bd5760203660031901126100bd57610238610fac565b5f51602061115e5f395f51905f525460ff8160401c16159167ffffffffffffffff82168015908161035f575b6001149081610355575b15908161034c575b5061033d5767ffffffffffffffff1982166001175f51602061115e5f395f51905f52556102b49183610311575b506102ac611066565b6100b6611066565b6102ba57005b68ff0000000000000000195f51602061115e5f395f51905f5254165f51602061115e5f395f51905f52557fc7f505b2f371ae2175ee4913f4499e1f2633a7b5936321eed1cdaeb6115181d2602060405160018152a1005b68ffffffffffffffffff191668010000000000000001175f51602061115e5f395f51905f5255836102a3565b63f92ee8a960e01b5f5260045ffd5b90501584610276565b303b15915061026e565b849150610264565b346100bd5760203660031901126100bd576004355f8181526020819052604090206006810180546001600160a01b038116939284156104795760040154421061042a5760ff8160a01c16156103e55760ff60a01b191690557f26ef8d216913a4125a40c11dfb4f91faa3b6ffbb6f54cc3b2803fe2e94f0c4fa5f80a3005b60405162461bcd60e51b815260206004820152601d60248201527f43657274696669636174696f6e20616c726561647920657870697265640000006044820152606490fd5b60405162461bcd60e51b815260206004820152602160248201527f43657274696669636174696f6e20686173206e6f7420657870697265642079656044820152601d60fa1b6064820152608490fd5b60405162461bcd60e51b815260206004820152601c60248201527f43657274696669636174696f6e20646f6573206e6f74206578697374000000006044820152606490fd5b346100bd575f3660031901126100bd576105056040516104df604082610e2a565b60058152640352e302e360dc1b6020820152604051918291602083526020830190610f88565b0390f35b346100bd575f3660031901126100bd575f51602061111e5f395f51905f52546040516001600160a01b039091168152602090f35b346100bd575f3660031901126100bd57610555611033565b5f51602061111e5f395f51905f5280546001600160a01b031981169091555f906001600160a01b03167f8be0079c531659141344cd1fd0a4f28419497f9722a3daafe3b4186f6b6457e08280a3005b346100bd575f3660031901126100bd577f00000000000000000000000000000000000000000000000000000000000000006001600160a01b031630036105fb5760206040515f51602061113e5f395f51905f528152f35b63703e46dd60e11b5f5260045ffd5b60403660031901126100bd5761061e610fac565b60243567ffffffffffffffff81116100bd57366023820112156100bd5761064f903690602481600401359101610e4c565b906001600160a01b037f0000000000000000000000000000000000000000000000000000000000000000163081149081156107b4575b506105fb57610692611033565b6040516352d1902d60e01b81526001600160a01b0382169290602081600481875afa5f9181610780575b506106d45783634c9c8ce360e01b5f5260045260245ffd5b805f51602061113e5f395f51905f5285920361076e5750823b1561075c575f51602061113e5f395f51905f5280546001600160a01b031916821790557fbc7cd75a20ee27fd9adebab32041f755214dbc6bffa90cc0225b39da2e5c2d3b5f80a2805115610744576100bb91611091565b50503461074d57005b63b398979f60e01b5f5260045ffd5b634c9c8ce360e01b5f5260045260245ffd5b632a87526960e21b5f5260045260245ffd5b9091506020813d6020116107ac575b8161079c60209383610e2a565b810103126100bd575190856106bc565b3d915061078f565b5f51602061113e5f395f51905f52546001600160a01b03161415905083610685565b346100bd5760203660031901126100bd576004355f525f60205260405f20805461080260018301610ee8565b9160ff61087961081460028401610ee8565b926003810154906004810154610861600661083160058501610ee8565b930154966108536040519a8b9a8b5261010060208c01526101008b0190610f88565b9089820360408b0152610f88565b926060880152608087015285820360a0870152610f88565b6001600160a01b03831660c085015260a09290921c16151560e08301520390f35b346100bd5760a03660031901126100bd5760043567ffffffffffffffff81116100bd576108cb903690600401610e92565b60243567ffffffffffffffff81116100bd576108eb903690600401610e92565b60643560443560843567ffffffffffffffff81116100bd57610911903690600401610e92565b9381831115610dbc576001545f198114610da85760010193846001556040519261093a84610e0d565b85845260208401908382526040850192835260608501908152608085019086825260a0860198895260c086019333855260e087019360018552895f525f60205260405f209751885560018801905180519067ffffffffffffffff8211610c065781906109a68454610eb0565b601f8111610d4f575b50602090601f8311600114610cec575f92610ce1575b50508160011b915f199060031b1c19161790555b518051600288019167ffffffffffffffff8211610c065781906109fc8454610eb0565b601f8111610c88575b50602090601f8311600114610c25575f92610c1a575b50508160011b915f199060031b1c19161790555b51600386015551600485015560058401965196875167ffffffffffffffff8111610c0657610a5d8254610eb0565b601f8111610bb5575b509087949392916020998a90601f8311600114610b27579180600694927f772f380849890f14113d1ba495e5efc295c9df28a7c3b63ce138dd7a203d9bff999a945f92610b1c575b50508160011b915f199060031b1c19161790555b92519201805491516001600160a81b03199092166001600160a01b03939093169290921790151560a01b60ff60a01b161790556040805181815291610b0991830190610f88565b93868201528033940390a3604051908152f35b015190508d80610aae565b97929190601f19821698835f52815f20995f5b818110610b9b575099600192849260069796957f772f380849890f14113d1ba495e5efc295c9df28a7c3b63ce138dd7a203d9bff9c9d10610b83575b505050811b019055610ac2565b01515f1960f88460031b161c191690558d8080610b76565b838301518c556001909b019a8d9a50928e01928e01610b3a565b81811115610a665798825f5260205f20601f830160051c9060208410610bfe575b81019a601f0160051c035f5b818110610bf157505098610a66565b5f8c820155600101610be2565b5f9150610bd6565b634e487b7160e01b5f52604160045260245ffd5b015190508c80610a1b565b5f8581528281209350601f198516905b818110610c705750908460019594939210610c58575b505050811b019055610a2f565b01515f1960f88460031b161c191690558c8080610c4b565b92936020600181928786015181550195019301610c35565b82811115610a0557909150835f5260205f20601f840160051c9060208510610cd9575b849392601f0160051c82900391015f5b828110610cc9575050610a05565b5f81830155859450600101610cbb565b5f9150610cab565b015190508d806109c5565b5f8581528281209350601f198516905b818110610d375750908460019594939210610d1f575b505050811b0190556109d9565b01515f1960f88460031b161c191690558d8080610d12565b92936020600181928786015181550195019301610cfc565b828111156109af57909150835f5260205f20601f840160051c9060208510610da0575b849392601f0160051c82900391015f5b828110610d905750506109af565b5f81830155859450600101610d82565b5f9150610d72565b634e487b7160e01b5f52601160045260245ffd5b60405162461bcd60e51b8152602060048201526024808201527f4578706972792064617465206d757374206265206166746572206973737565206044820152636461746560e01b6064820152608490fd5b610100810190811067ffffffffffffffff821117610c0657604052565b90601f8019910116810190811067ffffffffffffffff821117610c0657604052565b92919267ffffffffffffffff8211610c065760405191610e76601f8201601f191660200184610e2a565b8294818452818301116100bd578281602093845f960137010152565b9080601f830112156100bd57816020610ead93359101610e4c565b90565b90600182811c92168015610ede575b6020831014610eca57565b634e487b7160e01b5f52602260045260245ffd5b91607f1691610ebf565b9060405191825f825492610efb84610eb0565b8084529360018116908115610f665750600114610f22575b50610f2092500383610e2a565b565b90505f9291925260205f20905f915b818310610f4a575050906020610f20928201015f610f13565b6020919350806001915483858901015201910190918492610f31565b905060209250610f2094915060ff191682840152151560051b8201015f610f13565b805180835260209291819084018484015e5f828201840152601f01601f1916010190565b600435906001600160a01b03821682036100bd57565b6001600160a01b03168015611020575f51602061111e5f395f51905f5280546001600160a01b0319811683179091556001600160a01b03167f8be0079c531659141344cd1fd0a4f28419497f9722a3daafe3b4186f6b6457e05f80a3565b631e4fbdf760e01b5f525f60045260245ffd5b5f51602061111e5f395f51905f52546001600160a01b0316330361105357565b63118cdaa760e01b5f523360045260245ffd5b60ff5f51602061115e5f395f51905f525460401c161561108257565b631afcd79f60e31b5f5260045ffd5b905f8091602081519101845af4808061110a575b156110c55750506040513d81523d5f602083013e60203d82010160405290565b156110ea57639996b31560e01b5f9081526001600160a01b0391909116600452602490fd5b3d156110fb576040513d5f823e3d90fd5b63d6bda27560e01b5f5260045ffd5b503d1515806110a55750813b15156110a556fe9016d09d72d40fdae2fd8ceac6b6234c7706214fd39c1cd1e609a0528c199300360894a13ba1a3210667c828492db98dca3e2076cc3735a920a3ca505d382bbcf0c57e16840df040f15088dc2f81fe391c3923bec73e23a9662efc9c229c6a00a2646970667358221220a3840a34aaeb2029ccd45d15aae40b608c5fb38f4cce0ceef331657b8502f28b64736f6c63430008210033f0c57e16840df040f15088dc2f81fe391c3923bec73e23a9662efc9c229c6a00","linkReferences":{}},"methodIdentifiers":{"UPGRADE_INTERFACE_VERSION()":"ad3cb1cc","certifications(uint256)":"3c0359a4","expireCertification(uint256)":"c3cf7f92","getCertification(uint256)":"ec981eac","initialize(address)":"c4d66de8","issueCertification(string,string,uint256,uint256,string)":"2478f2ad","owner()":"8da5cb5b","proxiableUUID()":"52d1902d","renounceOwnership()":"715018a6","transferOwnership(address)":"f2fde38b","upgradeToAndCall(address,bytes)":"4f1ef286"},"storageLayout":{"storage":[{"astId":43532,"contract":"src/contracts/CertificationManager.sol:CertificationManager","label":"certifications","offset":0,"slot":"0","type":"t_mapping(t_uint256,t_struct(Certification)43527_storage)"},{"astId":43534,"contract":"src/contracts/CertificationManager.sol:CertificationManager","label":"certificationCounter","offset":0,"slot":"1","type":"t_uint256"},{"astId":43538,"contract":"src/contracts/CertificationManager.sol:CertificationManager","label":"__gap","offset":0,"slot":"2","type":"t_array(t_uint256)50_storage"}],"types":{"t_address":{"encoding":"inplace","label":"address","numberOfBytes":"20"},"t_array(t_uint256)50_storage":{"encoding":"inplace","label":"uint256[50]","numberOfBytes":"1600","base":"t_uint256"},"t_bool":{"encoding":"inplace","label":"bool","numberOfBytes":"1"},"t_mapping(t_uint256,t_struct(Certification)43527_storage)":{"encoding":"mapping","key":"t_uint256","label":"mapping(uint256 => struct CertificationManager.Certification)","numberOfBytes":"32","value":"t_struct(Certification)43527_storage"},"t_string_storage":{"encoding":"bytes","label":"string","numberOfBytes":"32"},"t_struct(Certification)43527_storage":{"encoding":"inplace","label":"struct CertificationManager.Certification","numberOfBytes":"224","members":[{"astId":43512,"contract":"src/contracts/CertificationManager.sol:CertificationManager","label":"id","offset":0,"slot":"0","type":"t_uint256"},{"astId":43514,"contract":"src/contracts/CertificationManager.sol:CertificationManager","label":"name","offset":0,"slot":"1","type":"t_string_storage"},{"astId":43516,"contract":"src/contracts/CertificationManager.sol:CertificationManager","label":"issuer","offset":0,"slot":"2","type":"t_string_storage"},{"astId":43518,"contract":"src/contracts/CertificationManager.sol:CertificationManager","label":"issueDate","offset":0,"slot":"3","type":"t_uint256"},{"astId":43520,"contract":"src/contracts/CertificationManager.sol:CertificationManager","label":"expiryDate","offset":0,"slot":"4","type":"t_uint256"},{"astId":43522,"contract":"src/contracts/CertificationManager.sol:CertificationManager","label":"fileHash","offset":0,"slot":"5","type":"t_string_storage"},{"astId":43524,"contract":"src/contracts/CertificationManager.sol:CertificationManager","label":"userId","offset":0,"slot":"6","type":"t_address"},{"astId":43526,"contract":"src/contracts/CertificationManager.sol:CertificationManager","label":"isActive","offset":20,"slot":"6","type":"t_bool"}]},"t_uint256":{"encoding":"inplace","label":"uint256","numberOfBytes":"32"}}},"id":38}