{"abi":[{"type":"constructor","inputs":[],"stateMutability":"nonpayable"},{"type":"function","name":"UPGRADE_INTERFACE_VERSION","inputs":[],"outputs":[{"name":"","type":"string","internalType":"string"}],"stateMutability":"view"},{"type":"function","name":"addCropEvent","inputs":[{"name":"_cropId","type":"uint256","internalType":"uint256"},{"name":"_description","type":"string","internalType":"string"},{"name":"_status","type":"uint8","internalType":"enum CropManager.CropEventStatus"}],"outputs":[{"name":"","type":"uint256","internalType":"uint256"}],"stateMutability":"nonpayable"},{"type":"function","name":"createCrop","inputs":[{"name":"_name","type":"string","internalType":"string"},{"name":"_startDate","type":"uint256","internalType":"uint256"},{"name":"_expectedHarvestDate","type":"uint256","internalType":"uint256"},{"name":"_productId","type":"uint256","internalType":"uint256"},{"name":"_location","type":"string","internalType":"string"},{"name":"_cultivationArea","type":"uint256","internalType":"uint256"}],"outputs":[{"name":"","type":"uint256","internalType":"uint256"}],"stateMutability":"nonpayable"},{"type":"function","name":"cropEventRecords","inputs":[{"name":"","type":"uint256","internalType":"uint256"}],"outputs":[{"name":"id","type":"uint256","internalType":"uint256"},{"name":"cropId","type":"uint256","internalType":"uint256"},{"name":"status","type":"uint8","internalType":"enum CropManager.CropEventStatus"},{"name":"description","type":"string","internalType":"string"},{"name":"timestamp","type":"uint256","internalType":"uint256"}],"stateMutability":"view"},{"type":"function","name":"crops","inputs":[{"name":"","type":"uint256","internalType":"uint256"}],"outputs":[{"name":"id","type":"uint256","internalType":"uint256"},{"name":"name","type":"string","internalType":"string"},{"name":"startDate","type":"uint256","internalType":"uint256"},{"name":"expectedHarvestDate","type":"uint256","internalType":"uint256"},{"name":"productId","type":"uint256","internalType":"uint256"},{"name":"location","type":"string","internalType":"string"},{"name":"cultivationArea","type":"uint256","internalType":"uint256"},{"name":"userId","type":"address","internalType":"address"},{"name":"isActive","type":"bool","internalType":"bool"}],"stateMutability":"view"},{"type":"function","name":"deleteCrop","inputs":[{"name":"_cropId","type":"uint256","internalType":"uint256"}],"outputs":[],"stateMutability":"nonpayable"},{"type":"function","name":"getCrop","inputs":[{"name":"_cropId","type":"uint256","internalType":"uint256"}],"outputs":[{"name":"","type":"tuple","internalType":"struct CropManager.Crop","components":[{"name":"id","type":"uint256","internalType":"uint256"},{"name":"name","type":"string","internalType":"string"},{"name":"startDate","type":"uint256","internalType":"uint256"},{"name":"expectedHarvestDate","type":"uint256","internalType":"uint256"},{"name":"productId","type":"uint256","internalType":"uint256"},{"name":"location","type":"string","internalType":"string"},{"name":"cultivationArea","type":"uint256","internalType":"uint256"},{"name":"userId","type":"address","internalType":"address"},{"name":"isActive","type":"bool","internalType":"bool"}]}],"stateMutability":"view"},{"type":"function","name":"getCropEvents","inputs":[{"name":"_cropEventId","type":"uint256","internalType":"uint256"}],"outputs":[{"name":"","type":"tuple","internalType":"struct CropManager.CropEvent","components":[{"name":"id","type":"uint256","internalType":"uint256"},{"name":"cropId","type":"uint256","internalType":"uint256"},{"name":"status","type":"uint8","internalType":"enum CropManager.CropEventStatus"},{"name":"description","type":"string","internalType":"string"},{"name":"timestamp","type":"uint256","internalType":"uint256"}]}],"stateMutability":"view"},{"type":"function","name":"initialize","inputs":[{"name":"initialOwner","type":"address","internalType":"address"},{"name":"_userManager","type":"address","internalType":"address"}],"outputs":[],"stateMutability":"nonpayable"},{"type":"function","name":"owner","inputs":[],"outputs":[{"name":"","type":"address","internalType":"address"}],"stateMutability":"view"},{"type":"function","name":"proxiableUUID","inputs":[],"outputs":[{"name":"","type":"bytes32","internalType":"bytes32"}],"stateMutability":"view"},{"type":"function","name":"renounceOwnership","inputs":[],"outputs":[],"stateMutability":"nonpayable"},{"type":"function","name":"transferOwnership","inputs":[{"name":"newOwner","type":"address","internalType":"address"}],"outputs":[],"stateMutability":"nonpayable"},{"type":"function","name":"updateCrop","inputs":[{"name":"_cropId","type":"uint256","internalType":"uint256"},{"name":"_name","type":"string","internalType":"string"},{"name":"_expectedHarvestDate","type":"uint256","internalType":"uint256"},{"name":"_location","type":"string","internalType":"string"},{"name":"_cultivationArea","type":"uint256","internalType":"uint256"}],"outputs":[],"stateMutability":"nonpayable"},{"type":"function","name":"upgradeToAndCall","inputs":[{"name":"newImplementation","type":"address","internalType":"address"},{"name":"data","type":"bytes","internalType":"bytes"}],"outputs":[],"stateMutability":"payable"},{"type":"function","name":"userManager","inputs":[],"outputs":[{"name":"","type":"address","internalType":"contract IUserManager"}],"stateMutability":"view"},{"type":"event","name":"CropCreated","inputs":[{"name":"cropId","type":"uint256","indexed":true,"internalType":"uint256"},{"name":"userId","type":"address","indexed":true,"internalType":"address"},{"name":"name","type":"string","indexed":false,"internalType":"string"},{"name":"productId","type":"uint256","indexed":false,"internalType":"uint256"}],"anonymous":false},{"type":"event","name":"CropDeleted","inputs":[{"name":"cropId","type":"uint256","indexed":true,"internalType":"uint256"}],"anonymous":false},{"type":"event","name":"CropEventCreated","inputs":[{"name":"cropEventId","type":"uint256","indexed":true,"internalType":"uint256"},{"name":"cropId","type":"uint256","indexed":true,"internalType":"uint256"},{"name":"description","type":"string","indexed":false,"internalType":"string"}],"anonymous":false},{"type":"event","name":"CropUpdated","inputs":[{"name":"cropId","type":"uint256","indexed":true,"internalType":"uint256"},{"name":"name","type":"string","indexed":false,"internalType":"string"}],"anonymous":false},{"type":"event","name":"Initialized","inputs":[{"name":"version","type":"uint64","indexed":false,"internalType":"uint64"}],"anonymous":false},{"type":"event","name":"OwnershipTransferred","inputs":[{"name":"previousOwner","type":"address","indexed":true,"internalType":"address"},{"name":"newOwner","type":"address","indexed":true,"internalType":"address"}],"anonymous":false},{"type":"event","name":"Upgraded","inputs":[{"name":"implementation","type":"address","indexed":true,"internalType":"address"}],"anonymous":false},{"type":"error","name":"AddressEmptyCode","inputs":[{"name":"target","type":"address","internalType":"address"}]},{"type":"error","name":"ERC1967InvalidImplementation","inputs":[{"name":"implementation","type":"address","internalType":"address"}]},{"type":"error","name":"ERC1967NonPayable","inputs":[]},{"type":"error","name":"FailedCall","inputs":[]},{"type":"error","name":"InvalidInitialization","inputs":[]},{"type":"error","name":"NotInitializing","inputs":[]},{"type":"error","name":"OwnableInvalidOwner","inputs":[{"name":"owner","type":"address","internalType":"address"}]},{"type":"error","name":"OwnableUnauthorizedAccount","inputs":[{"name":"account","type":"address","internalType":"address"}]},{"type":"error","name":"UUPSUnauthorizedCallContext","inputs":[]},{"type":"error","name":"UUPSUnsupportedProxiableUUID","inputs":[{"name":"slot","type":"bytes32","internalType":"bytes32"}]}],"bytecode":{"object":"0x60a080604052346100c257306080525f51602061197f5f395f51905f525460ff8160401c166100b3576002600160401b03196001600160401b03821601610060575b6040516118b890816100c7823960805181818161078301526108260152f35b6001600160401b0319166001600160401b039081175f51602061197f5f395f51905f525581527fc7f505b2f371ae2175ee4913f4499e1f2633a7b5936321eed1cdaeb6115181d290602090a15f80610041565b63f92ee8a960e01b5f5260045ffd5b5f80fdfe6080806040526004361015610012575f80fd5b5f3560e01c908162f1efbe1461135e575080630dd19da914610eba5780631ad8fe5114610e255780631fd8938d14610b8f578063260e71da14610b14578063485cc955146109a25780634f1ef286146107d757806352d1902d146107715780635c8a76871461074a57806370c9f1a51461068d578063715018a6146106265780638bc7fa9c146104c55780638da5cb5b146104915780639b97aef914610145578063ad3cb1cc146100fa5763f2fde38b146100cb575f80fd5b346100f65760203660031901126100f6576100f46100e7611611565b6100ef611738565b6116c7565b005b5f80fd5b346100f6575f3660031901126100f65761014160405161011b6040826114b5565b60058152640352e302e360dc1b602082015260405191829160208352602083019061145a565b0390f35b346100f65760a03660031901126100f6576004356024356001600160401b0381116100f65761017890369060040161151b565b6064356001600160401b0381116100f65761019790369060040161151b565b825f5260016020526101b960018060a01b03600760405f200154163314611649565b825f5260016020526101d760ff600760405f20015460a01c16611686565b825f52600160205260405f20906001820183516001600160401b0381116103c0576102028254611539565b601f8111610440575b50806020601f82116001146103df575f916103d4575b508160011b915f199060031b1c19161790555b6044356003830155805160058301916001600160401b0382116103c05761025b8354611539565b601f811161036f575b50602090601f83116001146102e55791807f7c93ff952fdf840f9f4032c580992aac4ee67156408d636a4b2ea38ad68b91d89694926102d596945f926102da575b50508160011b915f199060031b1c19161790555b600660843591015560405191829160208352602083019061145a565b0390a2005b0151905088806102a5565b90601f19831691845f52815f20925f5b81811061035757509260019285926102d598967f7c93ff952fdf840f9f4032c580992aac4ee67156408d636a4b2ea38ad68b91d89a98961061033f575b505050811b0190556102b9565b01515f1960f88460031b161c19169055888080610332565b929360206001819287860151815501950193016102f5565b8281111561026457835f5260205f20601f840160051c90602085106103b8575b81601f9101920160051c03905f5b8281106103ab575050610264565b5f8282015560010161039d565b5f915061038f565b634e487b7160e01b5f52604160045260245ffd5b905085015187610221565b5f8481528181209250601f198416905b81811061042857509083600194939210610410575b5050811b019055610234565b8701515f1960f88460031b161c191690558780610404565b9192602060018192868c0151815501940192016103ef565b8181111561020b57825f5260205f20601f830160051c9060208410610489575b81601f9101920160051c03905f5b82811061047c57505061020b565b5f8282015560010161046e565b5f9150610460565b346100f6575f3660031901126100f6575f5160206118235f395f51905f52546040516001600160a01b039091168152602090f35b346100f65760203660031901126100f6575f6101006040516104e681611499565b82815260606020820152826040820152826060820152826080820152606060a08201528260c08201528260e082015201526004355f52600160205260405f2060405161053181611499565b8154815261054160018301611571565b91602082019283526002810154604083019081526003820154606084019081526106026004840154926080860193845261057d60058601611571565b60a08701908152600760068701549660c0890197885201549460e088019460018060a01b038716865260ff6101008a019760a01c16151587526105dd6040519a8b9a60208c525160208c01525161012060408c01526101408b019061145a565b935160608a01525160808901525160a088015251868203601f190160c088015261145a565b925160e0850152516001600160a01b03166101008401525115156101208301520390f35b346100f6575f3660031901126100f65761063e611738565b5f5160206118235f395f51905f5280546001600160a01b031981169091555f906001600160a01b03167f8be0079c531659141344cd1fd0a4f28419497f9722a3daafe3b4186f6b6457e08280a3005b346100f65760203660031901126100f6576004355f52600160205260405f2080546106ba60018301611571565b9160ff600282015461072360038401549160048501546106dc60058701611571565b9060076006880154970154946107066040519a8b9a8b5261012060208c01526101208b019061145a565b9360408a01526060890152608088015286820360a088015261145a565b60c08501939093526001600160a01b03811660e085015260a01c1615156101008301520390f35b346100f6575f3660031901126100f6575f546040516001600160a01b039091168152602090f35b346100f6575f3660031901126100f6577f00000000000000000000000000000000000000000000000000000000000000006001600160a01b031630036107c85760206040515f5160206118435f395f51905f528152f35b63703e46dd60e11b5f5260045ffd5b60403660031901126100f6576107eb611611565b6024356001600160401b0381116100f657366023820112156100f65761081b9036906024816004013591016114d6565b906001600160a01b037f000000000000000000000000000000000000000000000000000000000000000016308114908115610980575b506107c85761085e611738565b6040516352d1902d60e01b81526001600160a01b0382169290602081600481875afa5f918161094c575b506108a05783634c9c8ce360e01b5f5260045260245ffd5b805f5160206118435f395f51905f5285920361093a5750823b15610928575f5160206118435f395f51905f5280546001600160a01b031916821790557fbc7cd75a20ee27fd9adebab32041f755214dbc6bffa90cc0225b39da2e5c2d3b5f80a2805115610910576100f491611796565b50503461091957005b63b398979f60e01b5f5260045ffd5b634c9c8ce360e01b5f5260045260245ffd5b632a87526960e21b5f5260045260245ffd5b9091506020813d602011610978575b81610968602093836114b5565b810103126100f657519085610888565b3d915061095b565b5f5160206118435f395f51905f52546001600160a01b03161415905083610851565b346100f65760403660031901126100f6576109bb611611565b6024356001600160a01b038116908190036100f6575f5160206118635f395f51905f525460ff8160401c1615926001600160401b03821680159081610b0c575b6001149081610b02575b159081610af9575b50610aea5767ffffffffffffffff1982166001175f5160206118635f395f51905f5255610a4b9184610abe575b50610a4361176b565b6100ef61176b565b6bffffffffffffffffffffffff60a01b5f5416175f55610a6757005b68ff0000000000000000195f5160206118635f395f51905f5254165f5160206118635f395f51905f52557fc7f505b2f371ae2175ee4913f4499e1f2633a7b5936321eed1cdaeb6115181d2602060405160018152a1005b68ffffffffffffffffff191668010000000000000001175f5160206118635f395f51905f525584610a3a565b63f92ee8a960e01b5f5260045ffd5b90501585610a0d565b303b159150610a05565b8591506109fb565b346100f65760203660031901126100f6576004355f52600260205260405f208054600182015491610b8560ff600283015416916004610b5560038301611571565b9101549260405195869586526020860152610b6f8161143c565b604085015260a0606085015260a084019061145a565b9060808301520390f35b346100f65760603660031901126100f6576004356024356001600160401b0381116100f657610bc290369060040161151b565b6044359160058310156100f657805f526001602052610bf160018060a01b03600760405f200154163314611649565b805f526001602052610c0f60ff600760405f20015460a01c16611686565b610c1a600454611627565b9182600455604051610c2b8161147e565b838152602081018381526040820195610c438161143c565b865260608201958387526080830191428352865f52600260205260405f2093518455516001840155600283019051610c7a8161143c565b610c838161143c565b60ff801983541691161790556003820195519586516001600160401b0381116103c057610cb08254611539565b601f8111610dd4575b509086949392916020988990601f8311600114610d455792826004937fa404d8f8f09dd8f657dbe61499dec30e3246ba007003637f2a6b70e93520b4e6989693610d2f98965f92610d3a575b50508160011b915f199060031b1c19161790555b519101556040519182918883528883019061145a565b0390a3604051908152f35b015190508d80610d05565b90601f19831691845f52815f20925f5b818110610dba5750937fa404d8f8f09dd8f657dbe61499dec30e3246ba007003637f2a6b70e93520b4e6989693610d2f9896936001938360049810610da2575b505050811b019055610d19565b01515f1960f88460031b161c191690558d8080610d95565b8284015185558c9a50600190940193928d01928d01610d55565b81811115610cb95797825f5260205f20601f830160051c9060208410610e1d575b810199601f0160051c035f5b818110610e1057505097610cb9565b5f8b820155600101610e01565b5f9150610df5565b346100f65760203660031901126100f657600435805f526001602052610e5b60018060a01b03600760405f200154163314611649565b805f526001602052610e7960ff600760405f20015460a01c16611686565b5f818152600160205260408120600701805460ff60a01b191690557f9d42767aa4cb0a7b32f48ee9e57487338cb7d436a21fcb6a72a90025f74c966f9080a2005b346100f65760c03660031901126100f6576004356001600160401b0381116100f657610eea90369060040161151b565b606435906084356001600160401b0381116100f657610f0d90369060040161151b565b5f54604051632782085160e01b815233600482015291939190602090829060249082906001600160a01b03165afa8015611353575f90611317575b60039150610f558161143c565b036112d257610f65600354611627565b918260035560405190610f7782611499565b83825260208201818152604083019060243582526060840160443581526080850186815260a0860198895260c086019160a435835260e0870194338652610100880194600186528a5f52600160205260405f20985189556001890190518051906001600160401b0382116103c0578190610ff18454611539565b601f8111611279575b50602090601f8311600114611216575f9261120b575b50508160011b915f199060031b1c19161790555b5160028801555160038701555160048601556005850197519788516001600160401b0381116103c0576110578254611539565b601f81116111ba575b509088959493929160209a8b90601f83116001146111295791807ffcfebe45929ee6de382523eef477de18eb36a15a246a36caa6f8fbb181b00b06999a9492600796945f9261111e575b50508160011b915f199060031b1c19161790555b51600682015592519201805491516001600160a81b03199092166001600160a01b03939093169290921790151560a01b60ff60a01b16179055604080518181529161110b9183019061145a565b93868201528033940390a3604051908152f35b015190508e806110aa565b601f99949392919919821690835f528a5f20915f5b8181106111a05750917ffcfebe45929ee6de382523eef477de18eb36a15a246a36caa6f8fbb181b00b069a9b849260079897969560019510611188575b505050811b0190556110be565b01515f1960f88460031b161c191690558e808061117b565b828d015184559b8f019b8e9b506001909301928f0161113e565b818111156110605799825f5260205f20601f830160051c9060208410611203575b81019b601f0160051c035f5b8181106111f657505099611060565b5f8d8201556001016111e7565b5f91506111db565b015190508e80611010565b5f8581528281209350601f198516905b8181106112615750908460019594939210611249575b505050811b019055611024565b01515f1960f88460031b161c191690558e808061123c565b92936020600181928786015181550195019301611226565b82811115610ffa57909150835f5260205f20601f840160051c90602085106112ca575b849392601f0160051c82900391015f5b8281106112ba575050610ffa565b5f818301558594506001016112ac565b5f915061129c565b60405162461bcd60e51b815260206004820152601f60248201527f4f6e6c7920737570706c696572732063616e206372656174652063726f7073006044820152606490fd5b506020813d60201161134b575b81611331602093836114b5565b810103126100f6575160058110156100f657600390610f48565b3d9150611324565b6040513d5f823e3d90fd5b346100f65760203660031901126100f65760808161137c5f9361147e565b82815282602082015282604082015260608082015201526004355f52600260205260405f206040516113ad8161147e565b815481526001820154916020820192835261143160ff6002830154169160408401926113d88161143c565b835260046113e860038301611571565b916060860192835201549260808501938452604051958695602087525160208701525160408601525161141a8161143c565b60608501525160a0608085015260c084019061145a565b905160a08301520390f35b6005111561144657565b634e487b7160e01b5f52602160045260245ffd5b805180835260209291819084018484015e5f828201840152601f01601f1916010190565b60a081019081106001600160401b038211176103c057604052565b61012081019081106001600160401b038211176103c057604052565b90601f801991011681019081106001600160401b038211176103c057604052565b9291926001600160401b0382116103c057604051916114ff601f8201601f1916602001846114b5565b8294818452818301116100f6578281602093845f960137010152565b9080601f830112156100f657816020611536933591016114d6565b90565b90600182811c92168015611567575b602083101461155357565b634e487b7160e01b5f52602260045260245ffd5b91607f1691611548565b9060405191825f82549261158484611539565b80845293600181169081156115ef57506001146115ab575b506115a9925003836114b5565b565b90505f9291925260205f20905f915b8183106115d35750509060206115a9928201015f61159c565b60209193508060019154838589010152019101909184926115ba565b9050602092506115a994915060ff191682840152151560051b8201015f61159c565b600435906001600160a01b03821682036100f657565b5f1981146116355760010190565b634e487b7160e01b5f52601160045260245ffd5b1561165057565b60405162461bcd60e51b815260206004820152600e60248201526d139bdd08185d5d1a1bdc9a5e995960921b6044820152606490fd5b1561168d57565b60405162461bcd60e51b815260206004820152601260248201527143726f70206973206e6f742061637469766560701b6044820152606490fd5b6001600160a01b03168015611725575f5160206118235f395f51905f5280546001600160a01b0319811683179091556001600160a01b03167f8be0079c531659141344cd1fd0a4f28419497f9722a3daafe3b4186f6b6457e05f80a3565b631e4fbdf760e01b5f525f60045260245ffd5b5f5160206118235f395f51905f52546001600160a01b0316330361175857565b63118cdaa760e01b5f523360045260245ffd5b60ff5f5160206118635f395f51905f525460401c161561178757565b631afcd79f60e31b5f5260045ffd5b905f8091602081519101845af4808061180f575b156117ca5750506040513d81523d5f602083013e60203d82010160405290565b156117ef57639996b31560e01b5f9081526001600160a01b0391909116600452602490fd5b3d15611800576040513d5f823e3d90fd5b63d6bda27560e01b5f5260045ffd5b503d1515806117aa5750813b15156117aa56fe9016d09d72d40fdae2fd8ceac6b6234c7706214fd39c1cd1e609a0528c199300360894a13ba1a3210667c828492db98dca3e2076cc3735a920a3ca505d382bbcf0c57e16840df040f15088dc2f81fe391c3923bec73e23a9662efc9c229c6a00a2646970667358221220ef2d1786ba3bd03f917381740912bd14477a677f01f79d2fd7b5299cf5a7c9a664736f6c63430008210033f0c57e16840df040f15088dc2f81fe391c3923bec73e23a9662efc9c229c6a00","linkReferences":{}},"methodIdentifiers":{"UPGRADE_INTERFACE_VERSION()":"ad3cb1cc","addCropEvent(uint256,string,uint8)":"1fd8938d","createCrop(string,uint256,uint256,uint256,string,uint256)":"0dd19da9","cropEventRecords(uint256)":"260e71da","crops(uint256)":"70c9f1a5","deleteCrop(uint256)":"1ad8fe51","getCrop(uint256)":"8bc7fa9c","getCropEvents(uint256)":"00f1efbe","initialize(address,address)":"485cc955","owner()":"8da5cb5b","proxiableUUID()":"52d1902d","renounceOwnership()":"715018a6","transferOwnership(address)":"f2fde38b","updateCrop(uint256,string,uint256,string,uint256)":"9b97aef9","upgradeToAndCall(address,bytes)":"4f1ef286","userManager()":"5c8a7687"},"storageLayout":{"storage":[{"astId":43722,"contract":"src/contracts/CropManager.sol:CropManager","label":"userManager","offset":0,"slot":"0","type":"t_contract(IUserManager)48133"},{"astId":43764,"contract":"src/contracts/CropManager.sol:CropManager","label":"crops","offset":0,"slot":"1","type":"t_mapping(t_uint256,t_struct(Crop)43747_storage)"},{"astId":43769,"contract":"src/contracts/CropManager.sol:CropManager","label":"cropEventRecords","offset":0,"slot":"2","type":"t_mapping(t_uint256,t_struct(CropEvent)43759_storage)"},{"astId":43771,"contract":"src/contracts/CropManager.sol:CropManager","label":"cropCounter","offset":0,"slot":"3","type":"t_uint256"},{"astId":43773,"contract":"src/contracts/CropManager.sol:CropManager","label":"cropEventCounter","offset":0,"slot":"4","type":"t_uint256"},{"astId":43777,"contract":"src/contracts/CropManager.sol:CropManager","label":"__gap","offset":0,"slot":"5","type":"t_array(t_uint256)50_storage"}],"types":{"t_address":{"encoding":"inplace","label":"address","numberOfBytes":"20"},"t_array(t_uint256)50_storage":{"encoding":"inplace","label":"uint256[50]","numberOfBytes":"1600","base":"t_uint256"},"t_bool":{"encoding":"inplace","label":"bool","numberOfBytes":"1"},"t_contract(IUserManager)48133":{"encoding":"inplace","label":"contract IUserManager","numberOfBytes":"20"},"t_enum(CropEventStatus)43728":{"encoding":"inplace","label":"enum CropManager.CropEventStatus","numberOfBytes":"1"},"t_mapping(t_uint256,t_struct(Crop)43747_storage)":{"encoding":"mapping","key":"t_uint256","label":"mapping(uint256 => struct CropManager.Crop)","numberOfBytes":"32","value":"t_struct(Crop)43747_storage"},"t_mapping(t_uint256,t_struct(CropEvent)43759_storage)":{"encoding":"mapping","key":"t_uint256","label":"mapping(uint256 => struct CropManager.CropEvent)","numberOfBytes":"32","value":"t_struct(CropEvent)43759_storage"},"t_string_storage":{"encoding":"bytes","label":"string","numberOfBytes":"32"},"t_struct(Crop)43747_storage":{"encoding":"inplace","label":"struct CropManager.Crop","numberOfBytes":"256","members":[{"astId":43730,"contract":"src/contracts/CropManager.sol:CropManager","label":"id","offset":0,"slot":"0","type":"t_uint256"},{"astId":43732,"contract":"src/contracts/CropManager.sol:CropManager","label":"name","offset":0,"slot":"1","type":"t_string_storage"},{"astId":43734,"contract":"src/contracts/CropManager.sol:CropManager","label":"startDate","offset":0,"slot":"2","type":"t_uint256"},{"astId":43736,"contract":"src/contracts/CropManager.sol:CropManager","label":"expectedHarvestDate","offset":0,"slot":"3","type":"t_uint256"},{"astId":43738,"contract":"src/contracts/CropManager.sol:CropManager","label":"productId","offset":0,"slot":"4","type":"t_uint256"},{"astId":43740,"contract":"src/contracts/CropManager.sol:CropManager","label":"location","offset":0,"slot":"5","type":"t_string_storage"},{"astId":43742,"contract":"src/contracts/CropManager.sol:CropManager","label":"cultivationArea","offset":0,"slot":"6","type":"t_uint256"},{"astId":43744,"contract":"src/contracts/CropManager.sol:CropManager","label":"userId","offset":0,"slot":"7","type":"t_address"},{"astId":43746,"contract":"src/contracts/CropManager.sol:CropManager","label":"isActive","offset":20,"slot":"7","type":"t_bool"}]},"t_struct(CropEvent)43759_storage":{"encoding":"inplace","label":"struct CropManager.CropEvent","numberOfBytes":"160","members":[{"astId":43749,"contract":"src/contracts/CropManager.sol:CropManager","label":"id","offset":0,"slot":"0","type":"t_uint256"},{"astId":43751,"contract":"src/contracts/CropManager.sol:CropManager","label":"cropId","offset":0,"slot":"1","type":"t_uint256"},{"astId":43754,"contract":"src/contracts/CropManager.sol:CropManager","label":"status","offset":0,"slot":"2","type":"t_enum(CropEventStatus)43728"},{"astId":43756,"contract":"src/contracts/CropManager.sol:CropManager","label":"description","offset":0,"slot":"3","type":"t_string_storage"},{"astId":43758,"contract":"src/contracts/CropManager.sol:CropManager","label":"timestamp","offset":0,"slot":"4","type":"t_uint256"}]},"t_uint256":{"encoding":"inplace","label":"uint256","numberOfBytes":"32"}}},"id":39}