{"abi":[{"type":"constructor","inputs":[],"stateMutability":"nonpayable"},{"type":"function","name":"UPGRADE_INTERFACE_VERSION","inputs":[],"outputs":[{"name":"","type":"string","internalType":"string"}],"stateMutability":"view"},{"type":"function","name":"batchManager","inputs":[],"outputs":[{"name":"","type":"address","internalType":"contract IBatchManager"}],"stateMutability":"view"},{"type":"function","name":"createBatchWithSupplier","inputs":[{"name":"_productId","type":"uint256","internalType":"uint256"},{"name":"_quantity","type":"uint256","internalType":"uint256"},{"name":"_assignmentStatus","type":"uint8","internalType":"enum IBatchManager.AssignmentStatus"},{"name":"_imageQRHash","type":"bytes32","internalType":"bytes32"},{"name":"_supplierId","type":"address","internalType":"address"},{"name":"_bidPrice","type":"uint256","internalType":"uint256"}],"outputs":[{"name":"batchId","type":"uint256","internalType":"uint256"}],"stateMutability":"nonpayable"},{"type":"function","name":"createShippingInvitation","inputs":[{"name":"_batchId","type":"uint256","internalType":"uint256"},{"name":"_transporterId","type":"address","internalType":"address"},{"name":"_bidPrice","type":"uint256","internalType":"uint256"}],"outputs":[{"name":"","type":"uint256","internalType":"uint256"}],"stateMutability":"nonpayable"},{"type":"function","name":"createSupplyInvitation","inputs":[{"name":"_batchId","type":"uint256","internalType":"uint256"},{"name":"_supplierId","type":"address","internalType":"address"},{"name":"_cropId","type":"uint256","internalType":"uint256"},{"name":"_bidPrice","type":"uint256","internalType":"uint256"}],"outputs":[{"name":"","type":"uint256","internalType":"uint256"}],"stateMutability":"nonpayable"},{"type":"function","name":"getShippingInvitation","inputs":[{"name":"_invitationId","type":"uint256","internalType":"uint256"}],"outputs":[{"name":"","type":"tuple","internalType":"struct InviteManager.ShippingInvitation","components":[{"name":"id","type":"uint256","internalType":"uint256"},{"name":"batchId","type":"uint256","internalType":"uint256"},{"name":"transporterId","type":"address","internalType":"address"},{"name":"bidPrice","type":"uint256","internalType":"uint256"},{"name":"bidTime","type":"uint256","internalType":"uint256"},{"name":"status","type":"uint8","internalType":"enum InviteManager.InvitationStatus"}]}],"stateMutability":"view"},{"type":"function","name":"getShippingInvitationsByBatch","inputs":[{"name":"_batchId","type":"uint256","internalType":"uint256"}],"outputs":[{"name":"","type":"uint256[]","internalType":"uint256[]"}],"stateMutability":"view"},{"type":"function","name":"getSupplyInvitation","inputs":[{"name":"_invitationId","type":"uint256","internalType":"uint256"}],"outputs":[{"name":"","type":"tuple","internalType":"struct InviteManager.SupplyInvitation","components":[{"name":"id","type":"uint256","internalType":"uint256"},{"name":"batchId","type":"uint256","internalType":"uint256"},{"name":"supplierId","type":"address","internalType":"address"},{"name":"cropId","type":"uint256","internalType":"uint256"},{"name":"bidPrice","type":"uint256","internalType":"uint256"},{"name":"bidTime","type":"uint256","internalType":"uint256"},{"name":"status","type":"uint8","internalType":"enum InviteManager.InvitationStatus"}]}],"stateMutability":"view"},{"type":"function","name":"getSupplyInvitationsByBatch","inputs":[{"name":"_batchId","type":"uint256","internalType":"uint256"}],"outputs":[{"name":"","type":"uint256[]","internalType":"uint256[]"}],"stateMutability":"view"},{"type":"function","name":"initialize","inputs":[{"name":"initialOwner","type":"address","internalType":"address"},{"name":"_batchManager","type":"address","internalType":"address"},{"name":"_workspaceManager","type":"address","internalType":"address"},{"name":"_productManager","type":"address","internalType":"address"}],"outputs":[],"stateMutability":"nonpayable"},{"type":"function","name":"owner","inputs":[],"outputs":[{"name":"","type":"address","internalType":"address"}],"stateMutability":"view"},{"type":"function","name":"productManager","inputs":[],"outputs":[{"name":"","type":"address","internalType":"contract IProductManager"}],"stateMutability":"view"},{"type":"function","name":"proxiableUUID","inputs":[],"outputs":[{"name":"","type":"bytes32","internalType":"bytes32"}],"stateMutability":"view"},{"type":"function","name":"renounceOwnership","inputs":[],"outputs":[],"stateMutability":"nonpayable"},{"type":"function","name":"setAssignedTransporterForBatch","inputs":[{"name":"_batchId","type":"uint256","internalType":"uint256"},{"name":"_transporterId","type":"address","internalType":"address"},{"name":"_bidPrice","type":"uint256","internalType":"uint256"},{"name":"_locationHash","type":"bytes32","internalType":"bytes32"}],"outputs":[],"stateMutability":"nonpayable"},{"type":"function","name":"shippingInvitations","inputs":[{"name":"","type":"uint256","internalType":"uint256"}],"outputs":[{"name":"id","type":"uint256","internalType":"uint256"},{"name":"batchId","type":"uint256","internalType":"uint256"},{"name":"transporterId","type":"address","internalType":"address"},{"name":"bidPrice","type":"uint256","internalType":"uint256"},{"name":"bidTime","type":"uint256","internalType":"uint256"},{"name":"status","type":"uint8","internalType":"enum InviteManager.InvitationStatus"}],"stateMutability":"view"},{"type":"function","name":"shippingInvitationsByBatch","inputs":[{"name":"","type":"uint256","internalType":"uint256"},{"name":"","type":"uint256","internalType":"uint256"}],"outputs":[{"name":"","type":"uint256","internalType":"uint256"}],"stateMutability":"view"},{"type":"function","name":"supplyInvitations","inputs":[{"name":"","type":"uint256","internalType":"uint256"}],"outputs":[{"name":"id","type":"uint256","internalType":"uint256"},{"name":"batchId","type":"uint256","internalType":"uint256"},{"name":"supplierId","type":"address","internalType":"address"},{"name":"cropId","type":"uint256","internalType":"uint256"},{"name":"bidPrice","type":"uint256","internalType":"uint256"},{"name":"bidTime","type":"uint256","internalType":"uint256"},{"name":"status","type":"uint8","internalType":"enum InviteManager.InvitationStatus"}],"stateMutability":"view"},{"type":"function","name":"supplyInvitationsByBatch","inputs":[{"name":"","type":"uint256","internalType":"uint256"},{"name":"","type":"uint256","internalType":"uint256"}],"outputs":[{"name":"","type":"uint256","internalType":"uint256"}],"stateMutability":"view"},{"type":"function","name":"transferOwnership","inputs":[{"name":"newOwner","type":"address","internalType":"address"}],"outputs":[],"stateMutability":"nonpayable"},{"type":"function","name":"updateStatusShippingInvitationAssigned","inputs":[{"name":"_invitationId","type":"uint256","internalType":"uint256"},{"name":"_status","type":"uint8","internalType":"enum InviteManager.InvitationStatus"}],"outputs":[],"stateMutability":"nonpayable"},{"type":"function","name":"updateStatusShippingInvitationBidding","inputs":[{"name":"_invitationId","type":"uint256","internalType":"uint256"}],"outputs":[],"stateMutability":"nonpayable"},{"type":"function","name":"updateStatusSupplyInvitationAssigned","inputs":[{"name":"_invitationId","type":"uint256","internalType":"uint256"},{"name":"_status","type":"uint8","internalType":"enum InviteManager.InvitationStatus"},{"name":"_cropId","type":"uint256","internalType":"uint256"}],"outputs":[],"stateMutability":"nonpayable"},{"type":"function","name":"updateStatusSupplyInvitationBidding","inputs":[{"name":"_invitationId","type":"uint256","internalType":"uint256"}],"outputs":[],"stateMutability":"nonpayable"},{"type":"function","name":"upgradeToAndCall","inputs":[{"name":"newImplementation","type":"address","internalType":"address"},{"name":"data","type":"bytes","internalType":"bytes"}],"outputs":[],"stateMutability":"payable"},{"type":"function","name":"workspaceManager","inputs":[],"outputs":[{"name":"","type":"address","internalType":"contract IWorkspaceManager"}],"stateMutability":"view"},{"type":"event","name":"Initialized","inputs":[{"name":"version","type":"uint64","indexed":false,"internalType":"uint64"}],"anonymous":false},{"type":"event","name":"OwnershipTransferred","inputs":[{"name":"previousOwner","type":"address","indexed":true,"internalType":"address"},{"name":"newOwner","type":"address","indexed":true,"internalType":"address"}],"anonymous":false},{"type":"event","name":"ShippingInvitationCreated","inputs":[{"name":"invitationId","type":"uint256","indexed":true,"internalType":"uint256"},{"name":"batchId","type":"uint256","indexed":true,"internalType":"uint256"},{"name":"transporterId","type":"address","indexed":true,"internalType":"address"}],"anonymous":false},{"type":"event","name":"ShippingInvitationStatusUpdated","inputs":[{"name":"invitationId","type":"uint256","indexed":true,"internalType":"uint256"},{"name":"batchId","type":"uint256","indexed":true,"internalType":"uint256"},{"name":"status","type":"uint8","indexed":false,"internalType":"enum InviteManager.InvitationStatus"}],"anonymous":false},{"type":"event","name":"SupplyInvitationCreated","inputs":[{"name":"invitationId","type":"uint256","indexed":true,"internalType":"uint256"},{"name":"batchId","type":"uint256","indexed":true,"internalType":"uint256"},{"name":"supplierId","type":"address","indexed":true,"internalType":"address"}],"anonymous":false},{"type":"event","name":"SupplyInvitationStatusUpdated","inputs":[{"name":"invitationId","type":"uint256","indexed":true,"internalType":"uint256"},{"name":"batchId","type":"uint256","indexed":true,"internalType":"uint256"},{"name":"status","type":"uint8","indexed":false,"internalType":"enum InviteManager.InvitationStatus"}],"anonymous":false},{"type":"event","name":"Upgraded","inputs":[{"name":"implementation","type":"address","indexed":true,"internalType":"address"}],"anonymous":false},{"type":"error","name":"AddressEmptyCode","inputs":[{"name":"target","type":"address","internalType":"address"}]},{"type":"error","name":"ERC1967InvalidImplementation","inputs":[{"name":"implementation","type":"address","internalType":"address"}]},{"type":"error","name":"ERC1967NonPayable","inputs":[]},{"type":"error","name":"FailedCall","inputs":[]},{"type":"error","name":"InvalidInitialization","inputs":[]},{"type":"error","name":"NotInitializing","inputs":[]},{"type":"error","name":"OwnableInvalidOwner","inputs":[{"name":"owner","type":"address","internalType":"address"}]},{"type":"error","name":"OwnableUnauthorizedAccount","inputs":[{"name":"account","type":"address","internalType":"address"}]},{"type":"error","name":"UUPSUnauthorizedCallContext","inputs":[]},{"type":"error","name":"UUPSUnsupportedProxiableUUID","inputs":[{"name":"slot","type":"bytes32","internalType":"bytes32"}]}],"bytecode":{"object":"0x60a080604052346100c257306080525f5160206126de5f395f51905f525460ff8160401c166100b3576002600160401b03196001600160401b03821601610060575b60405161261790816100c782396080518181816113c901526114960152f35b6001600160401b0319166001600160401b039081175f5160206126de5f395f51905f525581527fc7f505b2f371ae2175ee4913f4499e1f2633a7b5936321eed1cdaeb6115181d290602090a15f80610041565b63f92ee8a960e01b5f5260045ffd5b5f80fdfe6080806040526004361015610012575f80fd5b5f905f3560e01c90816308618a1d146118a9575080631a49ce731461168a5780631a9f3a7e146116265780634f1ef2861461141d57806352d1902d146113b6578063618c3dab1461133957806371343948146112c6578063715018a61461125d578063799f2be81461115f5780638da5cb5b1461112a5780638f02f96a146110425780639094454e14610e9c57806392b157a314610dbd5780639523aed514610d8b57806399ed676614610d4a578063a948d6d714610d21578063ad3cb1cc14610cc5578063c6ad080b14610c92578063dae4129314610c6b578063e47bf9bc14610833578063e62c4a6b1461064f578063f1961963146105db578063f2fde38b146105b3578063f426306f1461058a578063f7b98378146103075763f8c8765e1461013c575f80fd5b3461030457608036600319011261030457610155611b3a565b61015d611b24565b6044356001600160a01b03811690819003610302576064356001600160a01b03811692908390036102fe575f5160206125c25f395f51905f52549360ff8560401c1615946001600160401b038116801590816102f6575b60011490816102ec575b1590816102e3575b506102d45767ffffffffffffffff1981166001175f5160206125c25f395f51905f525561020a9190866102a8575b506101fd6124ca565b6102056124ca565b612426565b60018060a01b03166001600160601b0360a01b8554161784556001600160601b0360a01b60015416176001556001600160601b0360a01b60025416176002556102505780f35b68ff0000000000000000195f5160206125c25f395f51905f5254165f5160206125c25f395f51905f52557fc7f505b2f371ae2175ee4913f4499e1f2633a7b5936321eed1cdaeb6115181d2602060405160018152a180f35b68ffffffffffffffffff191668010000000000000001175f5160206125c25f395f51905f52555f6101f4565b63f92ee8a960e01b8752600487fd5b9050155f6101c6565b303b1591506101be565b8791506101b4565b8480fd5b835b80fd5b50346103045760603660031901126103045760243560043560058210156104ef578083526003602052604083206002810180546001600160a01b03163303610528576006820160ff8154166005811015610514576103659015611c5b565b60018514908686838015610507575b926103826103879394611ca7565b611ce4565b6104f357859190156104525760443560038401558154600184015491546001600160a01b03918216929116823b15610302576040516308f0995560e11b815260048101929092526001600160a01b031660248201529082908290604490829084905af1801561044757610432575b5050602060017f8a94a7afcae486268aa4ffcea2ae3159779547e929e8ba9ff436a4528897fd86925b01549361042e6040518092611c0f565ba380f35b8161043c91611bd3565b61030257835f6103f5565b6040513d84823e3d90fd5b505060028314610488575b602060017f8a94a7afcae486268aa4ffcea2ae3159779547e929e8ba9ff436a4528897fd869261041e565b8354600182015485916001600160a01b031690813b156104ef5782916044839260405194859384926313f5fea960e11b84526004840152600260248401525af18015610447576104da575b505061045d565b816104e491611bd3565b61030257835f6104d3565b8280fd5b634e487b7160e01b86526021600452602486fd5b5088915060028114610374565b634e487b7160e01b87526021600452602487fd5b60405162461bcd60e51b815260206004820152603460248201527f4f6e6c792074686520696e766974656420737570706c6965722063616e20616360448201527331b2b83a103a3434b99034b73b34ba30ba34b7b760611b6064820152608490fd5b50346103045780600319360112610304576002546040516001600160a01b039091168152602090f35b5034610304576020366003190112610304576105d86105d0611b3a565b610205612497565b80f35b5034610304576020366003190112610304576004358152600660205260408120604051918260208354918281520192825260208220915b818110610639576106358561062981870382611bd3565b60405191829182611b50565b0390f35b8254845260209093019260019283019201610612565b50346103045760203660031901126103045760043580825260046020526040822061067c8154151561209a565b60018060a01b038354169060018101916101a08354602460405180948193632d62214160e11b835260048301525afa9081156107f9578591610804575b5084606060018060a01b0360015416920151602460405180948193636649254160e11b835260048301525afa80156107f95761070b9186916107d7575b50608001516001600160a01b031633146121fe565b6005810160ff81541660058110156104f3579061072a86939215611c5b565b805460ff19166003179055815483546002909201546001600160a01b03918216929116823b15610302576040516338ea98d760e21b815260048101929092526001600160a01b031660248201529082908290604490829084905af18015610447576107c2575b505054907f50ac28c90c58ffc3c71db6b14443111bfc80976ee1bc05d9e096776876df2fb0602060405160038152a380f35b816107cc91611bd3565b6104ef57825f610790565b6107f391503d8088833e6107eb8183611bd3565b81019061212c565b5f6106f6565b6040513d87823e3d90fd5b61082691506101a03d811161082c575b61081e8183611bd3565b810190611d1d565b5f6106b9565b503d610814565b50346103045760c03660031901126103045760043590604435600381109081156104ef57608435916001600160a01b038316908184036102fe57600254604051631362710d60e11b81526004810188905260a43594918790829060249082906001600160a01b03165afa8015610b37578790610b42575b60c00151600154604051636649254160e11b815260048101929092529091508790829060249082906001600160a01b03165afa908115610b37578791610b1d575b50608001516001600160a01b03163303610ab9576001811492836109c6575b508554604051630f06c82f60e31b8152600481019890985260248035908901526001600160a01b031691156104f357608487876020948294604484015260643560648401525af19384156109ba578094610985575b6020955050610973575b5050604051908152f35b61097d9183611e64565b505f80610969565b93506020853d6020116109b2575b816109a060209383611bd3565b8101031261030257602094519361095f565b3d9150610993565b604051903d90823e3d90fd5b15610a4e5783156109d7575f61090a565b60405162461bcd60e51b815260206004820152604360248201527f426964207072696365206d7573742062652067726561746572207468616e203060448201527f207768656e2061737369676e6d656e74207374617475732069732041737369676064820152621b995960ea1b608482015260a490fd5b60405162461bcd60e51b815260206004820152603f60248201527f537570706c696572204944206d7573742062652070726f76696465642077686560448201527f6e2061737369676e6d656e74207374617475732069732041737369676e6564006064820152608490fd5b60405162461bcd60e51b815260206004820152603660248201527f4f6e6c7920776f726b7370616365206f776e65722063616e206372656174652060448201527518985d18da08199bdc881d1a1a5cc81c1c9bd91d58dd60521b6064820152608490fd5b610b3191503d8089833e6107eb8183611bd3565b5f6108eb565b6040513d89823e3d90fd5b503d8088833e610b528183611bd3565b810190602081830312610c63578051906001600160401b038211610c67570161012081830312610c63576040519161012083018381106001600160401b03821117610c4f576040528151835260208201516001600160401b038111610c4b5781610bbd9184016120e6565b602084015260408201516001600160401b038111610c4b5781610be19184016120e6565b60408401526060820151606084015260808201516001600160401b038111610c4b5791610c166101009260c0959483016120e6565b608084015260a081015160a08401528381015184840152610c3960e08201611d10565b60e084015201516101008201526108aa565b8980fd5b634e487b7160e01b8a52604160045260248afd5b8780fd5b8880fd5b5034610304578060031936011261030457546040516001600160a01b039091168152602090f35b5034610304576060366003190112610304576020610cbd610cb1611b24565b60443590600435612270565b604051908152f35b503461030457806003193601126103045760408051610ce48282611bd3565b6005815260208101640352e302e360dc1b81528251938492602084525180928160208601528585015e828201840152601f01601f19168101030190f35b50346103045780600319360112610304576001546040516001600160a01b039091168152602090f35b503461030457610d5936611c1c565b91908152600560205260408120908154831015610304576020610d7c8484611c32565b90549060031b1c604051908152f35b503461030457610d9a36611c1c565b91908152600660205260408120908154831015610304576020610d7c8484611c32565b503461030457608036600319011261030457600435610dda611b24565b604435908115610e5757835484906001600160a01b0316803b15610e535781809160646040518094819363d5499ce360e01b83528a600484015260016024840152833560448401525af1801561044757610e3e575b5050610e3a92612270565b5080f35b81610e4891611bd3565b61030257835f610e2f565b5080fd5b60405162461bcd60e51b815260206004820152601a60248201527f426964207072696365206d75737420626520706f7369746976650000000000006044820152606490fd5b503461030457602036600319011261030457600435808252600360205260408220610ec98154151561209a565b60018060a01b038354169060018101916101a08354602460405180948193632d62214160e11b835260048301525afa9081156107f9578591611023575b5084606060018060a01b0360015416920151602460405180948193636649254160e11b835260048301525afa80156107f957610f579186916107d75750608001516001600160a01b031633146121fe565b6006810160ff81541660058110156104f35790610f7686939215611c5b565b805460ff19166003179055815483546002909201546001600160a01b03918216929116823b15610302576040516308f0995560e11b815260048101929092526001600160a01b031660248201529082908290604490829084905af180156104475761100e575b505054907f8a94a7afcae486268aa4ffcea2ae3159779547e929e8ba9ff436a4528897fd86602060405160038152a380f35b8161101891611bd3565b6104ef57825f610fdc565b61103c91506101a03d811161082c5761081e8183611bd3565b5f610f06565b50346103045760203660031901126103045760408160c09260a0835161106781611bb8565b8281528260208201528285820152826060820152826080820152015260043581526004602052206111286040519161109e83611bb8565b805483526001810154906020840191825260018060a01b03600282015416604085019081526003820154906060860191825260ff600560048501549460808901958652015416936110f360a088019586612055565b60408051975188529051602088015290516001600160a01b0316908601525160608501525160808401525160a0830190611c0f565bf35b50346103045780600319360112610304575f5160206125825f395f51905f52546040516001600160a01b039091168152602090f35b50346103045760203660031901126103045760408160e09260c0835161118481611b89565b82815282602082015282858201528260608201528260808201528260a082015201526004358152600360205220611128604051916111c183611b89565b805483526001810154906020840191825260018060a01b03600282015416604085019081526003820154606086019081526004830154916080870192835260ff600660058601549560a08a019687520154169461122260c089019687612055565b60408051985189529051602089015290516001600160a01b0316908701525160608601525160808501525160a08401525160c0830190611c0f565b5034610304578060031936011261030457611276612497565b5f5160206125825f395f51905f5280546001600160a01b0319811690915581906001600160a01b03167f8be0079c531659141344cd1fd0a4f28419497f9722a3daafe3b4186f6b6457e08280a380f35b503461030457602036600319011261030457604060c091600435815260046020522061112881549160018101549060018060a01b0360028201541660038201549060ff600560048501549401541693604051968752602087015260408601526060850152608084015260a0830190611c0f565b503461030457602036600319011261030457604060e091600435815260036020522061112881549160018101549060018060a01b03600282015416600382015460048301549160ff600660058601549501541694604051978852602088015260408701526060860152608085015260a084015260c0830190611c0f565b50346103045780600319360112610304577f00000000000000000000000000000000000000000000000000000000000000006001600160a01b0316300361140e5760206040515f5160206125a25f395f51905f528152f35b63703e46dd60e11b8152600490fd5b50604036600319011261030457611432611b3a565b90602435916001600160401b038311610e535736602384011215610e5357826004013561145e81611bf4565b9361146c6040519586611bd3565b81855236602483830101116103025781849260246020930183880137850101526001600160a01b037f000000000000000000000000000000000000000000000000000000000000000016308114908115611604575b506115f5576114ce612497565b6040516352d1902d60e01b8152926001600160a01b0382169190602085600481865afa809585966115c1575b5061151357634c9c8ce360e01b84526004839052602484fd5b9091845f5160206125a25f395f51905f5281036115af5750823b1561159d575f5160206125a25f395f51905f5280546001600160a01b031916821790557fbc7cd75a20ee27fd9adebab32041f755214dbc6bffa90cc0225b39da2e5c2d3b8480a280511561158457610e3a916124f5565b50503461158e5780f35b63b398979f60e01b8152600490fd5b634c9c8ce360e01b8452600452602483fd5b632a87526960e21b8552600452602484fd5b9095506020813d6020116115ed575b816115dd60209383611bd3565b810103126102fe5751945f6114fa565b3d91506115d0565b63703e46dd60e11b8252600482fd5b5f5160206125a25f395f51905f52546001600160a01b0316141590505f6114c1565b5034610304576020366003190112610304576004358152600560205260408120604051918260208354918281520192825260208220915b818110611674576106358561062981870382611bd3565b825484526020909301926001928301920161165d565b5034610304576080366003190112610304576004356116a7611b24565b8254604051632d62214160e11b815260048101849052906101a090829060249082906001600160a01b03165afa801561187f57606060209161172493879161188a575b50015160015460405163e0180c4b60e01b81526004810192909252336024830152909283916001600160a01b031690829081906044820190565b03915afa801561187f578490611844575b61173f9150611e01565b61174a600754612033565b918260075560405161175b81611b89565b83815260208101828152604082019360018060a01b0316938481526060830160443581526080840190606435825260a085019242845260c08601948a8652898b52600360205260408b209651875551600187015560018060a01b03905116600286019060018060a01b03166001600160601b0360a01b825416179055516003850155516004840155516005830155519060058210156104f357602095611826869360067f91df92539e78383113a6c531355c316fdd24f5537bf0127d8d64248b3bd9e0f29401611ce4565b8381526005875261183a8360408320612061565b80a4604051908152f35b506020813d602011611877575b8161185e60209383611bd3565b810103126103025761187261173f91611d10565b611735565b3d9150611851565b6040513d86823e3d90fd5b6118a391506101a03d811161082c5761081e8183611bd3565b5f6116ea565b905034611a89576040366003190112611a8957600435602435916005831015611a89575f828152600460205260409020600281018054919290916001600160a01b03163303611aae5750600582019060ff8254166005811015611a8d576119109015611c5b565b60018514915f86848015611aa1575b9261038261192d9394611ca7565b611a8d578591156119df578154600184015491546001600160a01b03918216929116823b15610302576040516338ea98d760e21b815260048101929092526001600160a01b031660248201529082908290604490829084905af18015610447576119ca575b5050602060017f50ac28c90c58ffc3c71db6b14443111bfc80976ee1bc05d9e096776876df2fb09201549361042e6040518092611c0f565b816119d491611bd3565b61030257835f611992565b505060028314611a15575b602060017f50ac28c90c58ffc3c71db6b14443111bfc80976ee1bc05d9e096776876df2fb09261041e565b60018060a01b035f54166001820154813b15611a89575f9160648392604051948593849263d5499ce360e01b84526004840152600260248401528160448401525af18015611a7e57611a68575b506119ea565b611a759194505f90611bd3565b5f926020611a62565b6040513d5f823e3d90fd5b5f80fd5b634e487b7160e01b5f52602160045260245ffd5b505f91506002811461191f565b62461bcd60e51b815260206004820152604560248201527f4f6e6c792074686520696e7669746564207472616e73706f727465722063616e60448201527f207570646174652074686520737461747573206f66207468697320696e76697460648201526430ba34b7b760d91b608482015260a490fd5b602435906001600160a01b0382168203611a8957565b600435906001600160a01b0382168203611a8957565b60206040818301928281528451809452019201905f5b818110611b735750505090565b8251845260209384019390920191600101611b66565b60e081019081106001600160401b03821117611ba457604052565b634e487b7160e01b5f52604160045260245ffd5b60c081019081106001600160401b03821117611ba457604052565b90601f801991011681019081106001600160401b03821117611ba457604052565b6001600160401b038111611ba457601f01601f191660200190565b906005821015611a8d5752565b6040906003190112611a89576004359060243590565b8054821015611c47575f5260205f2001905f90565b634e487b7160e01b5f52603260045260245ffd5b15611c6257565b60405162461bcd60e51b815260206004820152601960248201527f496e7669746174696f6e206973206e6f742070656e64696e67000000000000006044820152606490fd5b15611cae57565b60405162461bcd60e51b815260206004820152600e60248201526d496e76616c69642073746174757360901b6044820152606490fd5b906005811015611a8d5760ff80198354169116179055565b51906001600160a01b0382168203611a8957565b51908115158203611a8957565b90816101a0910312611a8957604051906101a082018281106001600160401b03821117611ba45760405280518252602081015160208301526040810151604083015260608101516060830152611d7560808201611cfc565b608083015260a08101516003811015611a895760a0830152611d9960c08201611cfc565b60c083015260e08101516003811015611a895760e08301526101008101516007811015611a8957611df8916101809161010085015261012081015161012085015261014081015161014085015261016081015161016085015201611d10565b61018082015290565b15611e0857565b60405162461bcd60e51b815260206004820152602e60248201527f4f6e6c7920776f726b7370616365206d656d626572732063616e20706572666f60448201526d3936903a3434b99030b1ba34b7b760911b6064820152608490fd5b5f54604051632d62214160e11b815260048101839052929392906101a090829060249082906001600160a01b03165afa8015611a7e576060602091611ee3935f9161188a5750015160015460405163e0180c4b60e01b81526004810192909252336024830152909283916001600160a01b031690829081906044820190565b03915afa8015611a7e575f90611ff8575b611efe9150611e01565b611f09600754612033565b928360075560405190611f1b82611b89565b8482526020820190838252604083019060018060a01b031694858252606084015f81526080850191825260a085019242845260c08601945f8652895f52600360205260405f209651875551600187015560018060a01b03905116600286019060018060a01b03166001600160601b0360a01b825416179055516003850155516004840155516005830155516005811015611a8d576006611fbb9201611ce4565b805f526005602052611fd08360405f20612061565b827f91df92539e78383113a6c531355c316fdd24f5537bf0127d8d64248b3bd9e0f25f80a490565b506020813d60201161202b575b8161201260209383611bd3565b81010312611a8957612026611efe91611d10565b611ef4565b3d9150612005565b5f1981146120415760010190565b634e487b7160e01b5f52601160045260245ffd5b6005821015611a8d5752565b805468010000000000000000811015611ba45761208391600182018155611c32565b819291549060031b91821b915f19901b1916179055565b156120a157565b60405162461bcd60e51b815260206004820152601960248201527f496e7669746174696f6e20646f6573206e6f74206578697374000000000000006044820152606490fd5b81601f82011215611a89578051906120fd82611bf4565b9261210b6040519485611bd3565b82845260208383010111611a8957815f9260208093018386015e8301015290565b602081830312611a89578051906001600160401b038211611a8957019060e082820312611a89576040519161216083611b89565b8051835260208101516001600160401b038111611a8957826121839183016120e6565b602084015260408101516001600160401b038111611a8957826121a79183016120e6565b604084015260608101516001600160401b038111611a895760c0926121cd9183016120e6565b60608401526121de60808201611cfc565b60808401526121ef60a08201611d10565b60a0840152015160c082015290565b1561220557565b60405162461bcd60e51b815260206004820152603d60248201527f4f6e6c7920776f726b7370616365206f776e65722063616e207570646174652060448201527f74686520737461747573206f66207468697320696e7669746174696f6e0000006064820152608490fd5b5f54604051632d62214160e11b815260048101839052929392906101a090829060249082906001600160a01b03165afa8015611a7e5760606020916122ef935f9161188a5750015160015460405163e0180c4b60e01b81526004810192909252336024830152909283916001600160a01b031690829081906044820190565b03915afa8015611a7e575f906123eb575b61230a9150611e01565b612315600854612033565b92836008556040519061232782611bb8565b84825260208083018481526001600160a01b0392831660408086018281526060870198895242608088019081525f60a089018181528c82526004978890529390209751885593516001880155516002870180546001600160a01b0319169190961617909455955160038501555190830155516005811015611a8d5760056123ae9201611ce4565b805f5260066020526123c38360405f20612061565b827f331fdab940324392c483e2fb729173fd6e2fe9b4e9ac61121602b836b80795aa5f80a490565b506020813d60201161241e575b8161240560209383611bd3565b81010312611a895761241961230a91611d10565b612300565b3d91506123f8565b6001600160a01b03168015612484575f5160206125825f395f51905f5280546001600160a01b0319811683179091556001600160a01b03167f8be0079c531659141344cd1fd0a4f28419497f9722a3daafe3b4186f6b6457e05f80a3565b631e4fbdf760e01b5f525f60045260245ffd5b5f5160206125825f395f51905f52546001600160a01b031633036124b757565b63118cdaa760e01b5f523360045260245ffd5b60ff5f5160206125c25f395f51905f525460401c16156124e657565b631afcd79f60e31b5f5260045ffd5b905f8091602081519101845af4808061256e575b156125295750506040513d81523d5f602083013e60203d82010160405290565b1561254e57639996b31560e01b5f9081526001600160a01b0391909116600452602490fd5b3d1561255f576040513d5f823e3d90fd5b63d6bda27560e01b5f5260045ffd5b503d1515806125095750813b151561250956fe9016d09d72d40fdae2fd8ceac6b6234c7706214fd39c1cd1e609a0528c199300360894a13ba1a3210667c828492db98dca3e2076cc3735a920a3ca505d382bbcf0c57e16840df040f15088dc2f81fe391c3923bec73e23a9662efc9c229c6a00a26469706673582212203c396c0c82e4b3c02aa682f06d54695b40880f79bc20af26591a3c10474c8eff64736f6c63430008210033f0c57e16840df040f15088dc2f81fe391c3923bec73e23a9662efc9c229c6a00","linkReferences":{}},"methodIdentifiers":{"UPGRADE_INTERFACE_VERSION()":"ad3cb1cc","batchManager()":"dae41293","createBatchWithSupplier(uint256,uint256,uint8,bytes32,address,uint256)":"e47bf9bc","createShippingInvitation(uint256,address,uint256)":"c6ad080b","createSupplyInvitation(uint256,address,uint256,uint256)":"1a49ce73","getShippingInvitation(uint256)":"8f02f96a","getShippingInvitationsByBatch(uint256)":"f1961963","getSupplyInvitation(uint256)":"799f2be8","getSupplyInvitationsByBatch(uint256)":"1a9f3a7e","initialize(address,address,address,address)":"f8c8765e","owner()":"8da5cb5b","productManager()":"f426306f","proxiableUUID()":"52d1902d","renounceOwnership()":"715018a6","setAssignedTransporterForBatch(uint256,address,uint256,bytes32)":"92b157a3","shippingInvitations(uint256)":"71343948","shippingInvitationsByBatch(uint256,uint256)":"9523aed5","supplyInvitations(uint256)":"618c3dab","supplyInvitationsByBatch(uint256,uint256)":"99ed6766","transferOwnership(address)":"f2fde38b","updateStatusShippingInvitationAssigned(uint256,uint8)":"08618a1d","updateStatusShippingInvitationBidding(uint256)":"e62c4a6b","updateStatusSupplyInvitationAssigned(uint256,uint8,uint256)":"f7b98378","updateStatusSupplyInvitationBidding(uint256)":"9094454e","upgradeToAndCall(address,bytes)":"4f1ef286","workspaceManager()":"a948d6d7"},"storageLayout":{"storage":[{"astId":37500,"contract":"src/contracts/InviteManager.sol:InviteManager","label":"batchManager","offset":0,"slot":"0","type":"t_contract(IBatchManager)39180"},{"astId":37503,"contract":"src/contracts/InviteManager.sol:InviteManager","label":"workspaceManager","offset":0,"slot":"1","type":"t_contract(IWorkspaceManager)39672"},{"astId":37506,"contract":"src/contracts/InviteManager.sol:InviteManager","label":"productManager","offset":0,"slot":"2","type":"t_contract(IProductManager)39354"},{"astId":37547,"contract":"src/contracts/InviteManager.sol:InviteManager","label":"supplyInvitations","offset":0,"slot":"3","type":"t_mapping(t_uint256,t_struct(SupplyInvitation)37528_storage)"},{"astId":37552,"contract":"src/contracts/InviteManager.sol:InviteManager","label":"shippingInvitations","offset":0,"slot":"4","type":"t_mapping(t_uint256,t_struct(ShippingInvitation)37542_storage)"},{"astId":37557,"contract":"src/contracts/InviteManager.sol:InviteManager","label":"supplyInvitationsByBatch","offset":0,"slot":"5","type":"t_mapping(t_uint256,t_array(t_uint256)dyn_storage)"},{"astId":37562,"contract":"src/contracts/InviteManager.sol:InviteManager","label":"shippingInvitationsByBatch","offset":0,"slot":"6","type":"t_mapping(t_uint256,t_array(t_uint256)dyn_storage)"},{"astId":37564,"contract":"src/contracts/InviteManager.sol:InviteManager","label":"supplyInvitationCounter","offset":0,"slot":"7","type":"t_uint256"},{"astId":37566,"contract":"src/contracts/InviteManager.sol:InviteManager","label":"shippingInvitationCounter","offset":0,"slot":"8","type":"t_uint256"},{"astId":37570,"contract":"src/contracts/InviteManager.sol:InviteManager","label":"__gap","offset":0,"slot":"9","type":"t_array(t_uint256)50_storage"}],"types":{"t_address":{"encoding":"inplace","label":"address","numberOfBytes":"20"},"t_array(t_uint256)50_storage":{"encoding":"inplace","label":"uint256[50]","numberOfBytes":"1600","base":"t_uint256"},"t_array(t_uint256)dyn_storage":{"encoding":"dynamic_array","label":"uint256[]","numberOfBytes":"32","base":"t_uint256"},"t_contract(IBatchManager)39180":{"encoding":"inplace","label":"contract IBatchManager","numberOfBytes":"20"},"t_contract(IProductManager)39354":{"encoding":"inplace","label":"contract IProductManager","numberOfBytes":"20"},"t_contract(IWorkspaceManager)39672":{"encoding":"inplace","label":"contract IWorkspaceManager","numberOfBytes":"20"},"t_enum(InvitationStatus)37512":{"encoding":"inplace","label":"enum InviteManager.InvitationStatus","numberOfBytes":"1"},"t_mapping(t_uint256,t_array(t_uint256)dyn_storage)":{"encoding":"mapping","key":"t_uint256","label":"mapping(uint256 => uint256[])","numberOfBytes":"32","value":"t_array(t_uint256)dyn_storage"},"t_mapping(t_uint256,t_struct(ShippingInvitation)37542_storage)":{"encoding":"mapping","key":"t_uint256","label":"mapping(uint256 => struct InviteManager.ShippingInvitation)","numberOfBytes":"32","value":"t_struct(ShippingInvitation)37542_storage"},"t_mapping(t_uint256,t_struct(SupplyInvitation)37528_storage)":{"encoding":"mapping","key":"t_uint256","label":"mapping(uint256 => struct InviteManager.SupplyInvitation)","numberOfBytes":"32","value":"t_struct(SupplyInvitation)37528_storage"},"t_struct(ShippingInvitation)37542_storage":{"encoding":"inplace","label":"struct InviteManager.ShippingInvitation","numberOfBytes":"192","members":[{"astId":37530,"contract":"src/contracts/InviteManager.sol:InviteManager","label":"id","offset":0,"slot":"0","type":"t_uint256"},{"astId":37532,"contract":"src/contracts/InviteManager.sol:InviteManager","label":"batchId","offset":0,"slot":"1","type":"t_uint256"},{"astId":37534,"contract":"src/contracts/InviteManager.sol:InviteManager","label":"transporterId","offset":0,"slot":"2","type":"t_address"},{"astId":37536,"contract":"src/contracts/InviteManager.sol:InviteManager","label":"bidPrice","offset":0,"slot":"3","type":"t_uint256"},{"astId":37538,"contract":"src/contracts/InviteManager.sol:InviteManager","label":"bidTime","offset":0,"slot":"4","type":"t_uint256"},{"astId":37541,"contract":"src/contracts/InviteManager.sol:InviteManager","label":"status","offset":0,"slot":"5","type":"t_enum(InvitationStatus)37512"}]},"t_struct(SupplyInvitation)37528_storage":{"encoding":"inplace","label":"struct InviteManager.SupplyInvitation","numberOfBytes":"224","members":[{"astId":37514,"contract":"src/contracts/InviteManager.sol:InviteManager","label":"id","offset":0,"slot":"0","type":"t_uint256"},{"astId":37516,"contract":"src/contracts/InviteManager.sol:InviteManager","label":"batchId","offset":0,"slot":"1","type":"t_uint256"},{"astId":37518,"contract":"src/contracts/InviteManager.sol:InviteManager","label":"supplierId","offset":0,"slot":"2","type":"t_address"},{"astId":37520,"contract":"src/contracts/InviteManager.sol:InviteManager","label":"cropId","offset":0,"slot":"3","type":"t_uint256"},{"astId":37522,"contract":"src/contracts/InviteManager.sol:InviteManager","label":"bidPrice","offset":0,"slot":"4","type":"t_uint256"},{"astId":37524,"contract":"src/contracts/InviteManager.sol:InviteManager","label":"bidTime","offset":0,"slot":"5","type":"t_uint256"},{"astId":37527,"contract":"src/contracts/InviteManager.sol:InviteManager","label":"status","offset":0,"slot":"6","type":"t_enum(InvitationStatus)37512"}]},"t_uint256":{"encoding":"inplace","label":"uint256","numberOfBytes":"32"}}},"id":29}