{"abi":[{"type":"constructor","inputs":[],"stateMutability":"nonpayable"},{"type":"function","name":"UPGRADE_INTERFACE_VERSION","inputs":[],"outputs":[{"name":"","type":"string","internalType":"string"}],"stateMutability":"view"},{"type":"function","name":"adjustProductQuantity","inputs":[{"name":"_productWorkspaceId","type":"uint256","internalType":"uint256"},{"name":"_delta","type":"int256","internalType":"int256"}],"outputs":[],"stateMutability":"nonpayable"},{"type":"function","name":"batchManager","inputs":[],"outputs":[{"name":"","type":"address","internalType":"address"}],"stateMutability":"view"},{"type":"function","name":"createProductOffer","inputs":[{"name":"_name","type":"string","internalType":"string"},{"name":"_description","type":"string","internalType":"string"},{"name":"_imageHash","type":"bytes32","internalType":"bytes32"}],"outputs":[{"name":"","type":"uint256","internalType":"uint256"}],"stateMutability":"nonpayable"},{"type":"function","name":"createProductWorkspace","inputs":[{"name":"_name","type":"string","internalType":"string"},{"name":"_description","type":"string","internalType":"string"},{"name":"_imageHash","type":"bytes32","internalType":"bytes32"},{"name":"_unit","type":"string","internalType":"string"},{"name":"_workspaceId","type":"uint256","internalType":"uint256"}],"outputs":[{"name":"","type":"uint256","internalType":"uint256"}],"stateMutability":"nonpayable"},{"type":"function","name":"deleteProductOffer","inputs":[{"name":"_productOfferId","type":"uint256","internalType":"uint256"}],"outputs":[],"stateMutability":"nonpayable"},{"type":"function","name":"deleteProductWorkspace","inputs":[{"name":"_productWorkspaceId","type":"uint256","internalType":"uint256"}],"outputs":[],"stateMutability":"nonpayable"},{"type":"function","name":"getProductOffer","inputs":[{"name":"productOfferId","type":"uint256","internalType":"uint256"}],"outputs":[{"name":"","type":"tuple","internalType":"struct ProductManager.ProductOffer","components":[{"name":"id","type":"uint256","internalType":"uint256"},{"name":"name","type":"string","internalType":"string"},{"name":"imageHash","type":"bytes32","internalType":"bytes32"},{"name":"description","type":"string","internalType":"string"},{"name":"supplierId","type":"address","internalType":"address"},{"name":"isActive","type":"bool","internalType":"bool"},{"name":"createdAt","type":"uint256","internalType":"uint256"}]}],"stateMutability":"view"},{"type":"function","name":"getProductWorkspace","inputs":[{"name":"productWorkspaceId","type":"uint256","internalType":"uint256"}],"outputs":[{"name":"","type":"tuple","internalType":"struct ProductManager.ProductWorkspace","components":[{"name":"id","type":"uint256","internalType":"uint256"},{"name":"name","type":"string","internalType":"string"},{"name":"description","type":"string","internalType":"string"},{"name":"imageHash","type":"bytes32","internalType":"bytes32"},{"name":"unit","type":"string","internalType":"string"},{"name":"quantity","type":"uint256","internalType":"uint256"},{"name":"workspaceId","type":"uint256","internalType":"uint256"},{"name":"isActive","type":"bool","internalType":"bool"},{"name":"createdAt","type":"uint256","internalType":"uint256"}]}],"stateMutability":"view"},{"type":"function","name":"initialize","inputs":[{"name":"initialOwner","type":"address","internalType":"address"},{"name":"_workspaceManager","type":"address","internalType":"address"},{"name":"_userManager","type":"address","internalType":"address"}],"outputs":[],"stateMutability":"nonpayable"},{"type":"function","name":"owner","inputs":[],"outputs":[{"name":"","type":"address","internalType":"address"}],"stateMutability":"view"},{"type":"function","name":"productOffers","inputs":[{"name":"","type":"uint256","internalType":"uint256"}],"outputs":[{"name":"id","type":"uint256","internalType":"uint256"},{"name":"name","type":"string","internalType":"string"},{"name":"imageHash","type":"bytes32","internalType":"bytes32"},{"name":"description","type":"string","internalType":"string"},{"name":"supplierId","type":"address","internalType":"address"},{"name":"isActive","type":"bool","internalType":"bool"},{"name":"createdAt","type":"uint256","internalType":"uint256"}],"stateMutability":"view"},{"type":"function","name":"productWorkspaces","inputs":[{"name":"","type":"uint256","internalType":"uint256"}],"outputs":[{"name":"id","type":"uint256","internalType":"uint256"},{"name":"name","type":"string","internalType":"string"},{"name":"description","type":"string","internalType":"string"},{"name":"imageHash","type":"bytes32","internalType":"bytes32"},{"name":"unit","type":"string","internalType":"string"},{"name":"quantity","type":"uint256","internalType":"uint256"},{"name":"workspaceId","type":"uint256","internalType":"uint256"},{"name":"isActive","type":"bool","internalType":"bool"},{"name":"createdAt","type":"uint256","internalType":"uint256"}],"stateMutability":"view"},{"type":"function","name":"proxiableUUID","inputs":[],"outputs":[{"name":"","type":"bytes32","internalType":"bytes32"}],"stateMutability":"view"},{"type":"function","name":"renounceOwnership","inputs":[],"outputs":[],"stateMutability":"nonpayable"},{"type":"function","name":"setBatchManager","inputs":[{"name":"_batchManager","type":"address","internalType":"address"}],"outputs":[],"stateMutability":"nonpayable"},{"type":"function","name":"transferOwnership","inputs":[{"name":"newOwner","type":"address","internalType":"address"}],"outputs":[],"stateMutability":"nonpayable"},{"type":"function","name":"updateProductOffer","inputs":[{"name":"_productOfferId","type":"uint256","internalType":"uint256"},{"name":"_name","type":"string","internalType":"string"},{"name":"_description","type":"string","internalType":"string"},{"name":"_imageHash","type":"bytes32","internalType":"bytes32"}],"outputs":[],"stateMutability":"nonpayable"},{"type":"function","name":"updateProductWorkspace","inputs":[{"name":"_productWorkspaceId","type":"uint256","internalType":"uint256"},{"name":"_name","type":"string","internalType":"string"},{"name":"_description","type":"string","internalType":"string"},{"name":"_imageHash","type":"bytes32","internalType":"bytes32"},{"name":"_unit","type":"string","internalType":"string"}],"outputs":[],"stateMutability":"nonpayable"},{"type":"function","name":"upgradeToAndCall","inputs":[{"name":"newImplementation","type":"address","internalType":"address"},{"name":"data","type":"bytes","internalType":"bytes"}],"outputs":[],"stateMutability":"payable"},{"type":"function","name":"userManager","inputs":[],"outputs":[{"name":"","type":"address","internalType":"contract IUserManager"}],"stateMutability":"view"},{"type":"function","name":"workspaceManager","inputs":[],"outputs":[{"name":"","type":"address","internalType":"contract IWorkspaceManager"}],"stateMutability":"view"},{"type":"event","name":"Initialized","inputs":[{"name":"version","type":"uint64","indexed":false,"internalType":"uint64"}],"anonymous":false},{"type":"event","name":"OwnershipTransferred","inputs":[{"name":"previousOwner","type":"address","indexed":true,"internalType":"address"},{"name":"newOwner","type":"address","indexed":true,"internalType":"address"}],"anonymous":false},{"type":"event","name":"ProductOfferCreated","inputs":[{"name":"productOfferId","type":"uint256","indexed":true,"internalType":"uint256"},{"name":"supplierId","type":"address","indexed":true,"internalType":"address"},{"name":"name","type":"string","indexed":false,"internalType":"string"}],"anonymous":false},{"type":"event","name":"ProductOfferDeleted","inputs":[{"name":"productOfferId","type":"uint256","indexed":true,"internalType":"uint256"}],"anonymous":false},{"type":"event","name":"ProductOfferUpdated","inputs":[{"name":"productOfferId","type":"uint256","indexed":true,"internalType":"uint256"},{"name":"supplierId","type":"address","indexed":true,"internalType":"address"},{"name":"name","type":"string","indexed":false,"internalType":"string"}],"anonymous":false},{"type":"event","name":"ProductQuantityAdjusted","inputs":[{"name":"productWorkspaceId","type":"uint256","indexed":true,"internalType":"uint256"},{"name":"delta","type":"int256","indexed":false,"internalType":"int256"},{"name":"oldQuantity","type":"uint256","indexed":false,"internalType":"uint256"},{"name":"newQuantity","type":"uint256","indexed":false,"internalType":"uint256"}],"anonymous":false},{"type":"event","name":"ProductWorkspaceCreated","inputs":[{"name":"productWorkspaceId","type":"uint256","indexed":true,"internalType":"uint256"},{"name":"workspaceId","type":"uint256","indexed":true,"internalType":"uint256"},{"name":"name","type":"string","indexed":false,"internalType":"string"}],"anonymous":false},{"type":"event","name":"ProductWorkspaceDeleted","inputs":[{"name":"productWorkspaceId","type":"uint256","indexed":true,"internalType":"uint256"}],"anonymous":false},{"type":"event","name":"ProductWorkspaceUpdated","inputs":[{"name":"productWorkspaceId","type":"uint256","indexed":true,"internalType":"uint256"},{"name":"workspaceId","type":"uint256","indexed":true,"internalType":"uint256"},{"name":"name","type":"string","indexed":false,"internalType":"string"}],"anonymous":false},{"type":"event","name":"Upgraded","inputs":[{"name":"implementation","type":"address","indexed":true,"internalType":"address"}],"anonymous":false},{"type":"error","name":"AddressEmptyCode","inputs":[{"name":"target","type":"address","internalType":"address"}]},{"type":"error","name":"ERC1967InvalidImplementation","inputs":[{"name":"implementation","type":"address","internalType":"address"}]},{"type":"error","name":"ERC1967NonPayable","inputs":[]},{"type":"error","name":"FailedCall","inputs":[]},{"type":"error","name":"InvalidInitialization","inputs":[]},{"type":"error","name":"NotInitializing","inputs":[]},{"type":"error","name":"OwnableInvalidOwner","inputs":[{"name":"owner","type":"address","internalType":"address"}]},{"type":"error","name":"OwnableUnauthorizedAccount","inputs":[{"name":"account","type":"address","internalType":"address"}]},{"type":"error","name":"UUPSUnauthorizedCallContext","inputs":[]},{"type":"error","name":"UUPSUnsupportedProxiableUUID","inputs":[{"name":"slot","type":"bytes32","internalType":"bytes32"}]}],"bytecode":{"object":"0x60a080604052346100c257306080525f5160206127f35f395f51905f525460ff8160401c166100b3576002600160401b03196001600160401b03821601610060575b60405161272c90816100c78239608051818181611c500152611cf30152f35b6001600160401b0319166001600160401b039081175f5160206127f35f395f51905f525581527fc7f505b2f371ae2175ee4913f4499e1f2633a7b5936321eed1cdaeb6115181d290602090a15f80610041565b63f92ee8a960e01b5f5260045ffd5b5f80fdfe60806040526004361015610011575f80fd5b5f3560e01c80630261cfe41461207c5780630994a3e114611fda57806326c4e21a14611e6f5780634f1ef28614611ca457806352d1902d14611c3e5780635c8a768714611c165780636479ccc514611b1457806368bdb5ac14611580578063715018a61461151957806380ab8c0c146113ee5780638da5cb5b146113ba578063989ba84214610ee0578063a3d5b1c014610bd3578063a948d6d714610bac578063ad3cb1cc14610b61578063c0c53b8b146109c1578063c11e4e0b14610827578063dae41293146107ff578063eb846b3c14610742578063ebd63e9a146106ad578063f2fde38b146106825763f77c713f1461010b575f80fd5b34610673576060366003190112610673576004356001600160401b0381116106735761013b9036906004016122fe565b6024356001600160401b0381116106735761015a9036906004016122fe565b600154604051636f77926b60e01b8152336004820152905f90829060249082906001600160a01b03165afa8015610677575f9061054a575b604091500151600581101561053657600219016104e0576101b46005546124d3565b80600555604051926101c584612197565b818452602084019381855260408101946044358652606082019485526080820133815260a08301966001885260c0840192428452865f52600360205260405f20945185556001850190518051906001600160401b03821161040557819061022c8454612143565b601f8111610487575b50602090601f8311600114610424575f92610419575b50508160011b915f199060031b1c19161790555b516002840155600383019551968751966001600160401b038811610405576102878154612143565b98601f8a116103b6575b602099508990601f8a1160011461034f5798809160059798999a5f92610344575b50508160011b915f199060031b1c19161790555b9051600485018054925160ff60a01b90151560a01b166001600160a01b039092166001600160a81b03199093169290921717905551910155604051838152339183917fbe70ba3063de9b3be5b58ee092c7e23e58a4db0a62ed45c40d72d0a8cd36620b9181906103399088830190612273565b0390a3604051908152f35b015190505f806102b2565b90601f198a1691835f52815f20925f5b81811061039f575091600193918c60059a9b9c9d9410610387575b505050811b0190556102c6565b01515f1960f88460031b161c191690555f808061037a565b92938d60018192878601518155019501930161035f565b888a111561029157815f5260205f20601f8a0160051c9060208b106103fd575b81019a601f0160051c035f5b8181106103f0575050610291565b5f8c8201556001016103e2565b5f91506103d6565b634e487b7160e01b5f52604160045260245ffd5b015190505f8061024b565b5f8581528281209350601f198516905b81811061046f5750908460019594939210610457575b505050811b01905561025f565b01515f1960f88460031b161c191690555f808061044a565b92936020600181928786015181550195019301610434565b8281111561023557909150835f5260205f20601f840160051c90602085106104d8575b849392601f0160051c82900391015f5b8281106104c8575050610235565b5f818301558594506001016104ba565b5f91506104aa565b60405162461bcd60e51b815260206004820152602860248201527f4f6e6c7920737570706c696572732063616e206372656174652070726f64756360448201526774206f666665727360c01b6064820152608490fd5b634e487b7160e01b5f52602160045260245ffd5b503d805f833e61055a81836121b2565b810190602081830312610673578051906001600160401b03821161067357019061010082820312610673576040519061010082018281106001600160401b038211176104055760405282516001600160401b03811161067357816105bf91850161231c565b825260208301516001600160401b03811161067357816105e091850161231c565b60208301526040830151600581101561067357604083015261060460608401612362565b606083015260808301516001600160401b038111610673578161062891850161231c565b608083015260a0830151926001600160401b0384116106735761065160e092604095830161231c565b60a084015261066260c08201612376565b60c0840152015160e0820152610192565b5f80fd5b6040513d5f823e3d90fd5b34610673576020366003190112610673576106ab61069e612297565b6106a66125ac565b61253b565b005b3461067357602036600319011261067357600435805f5260036020526106e360018060a01b03600460405f2001541633146124e1565b805f52600360205261070160ff600460405f20015460a01c16612492565b5f818152600360205260408120600401805460ff60a01b191690557fd397c063862470c48125f5c060cddc6e03eb32e7cf3f3c5fdda98f9c16597bc69080a2005b346106735760203660031901126106735761075b612297565b6107636125ac565b603854906001600160a01b0382166107cc576001600160a01b0316908115610795576001600160a01b03191617603855005b60405162461bcd60e51b815260206004820152600f60248201526e496e76616c6964206164647265737360881b6044820152606490fd5b60405162461bcd60e51b815260206004820152600b60248201526a105b1c9958591e481cd95d60aa1b6044820152606490fd5b34610673575f366003190112610673576038546040516001600160a01b039091168152602090f35b3461067357604036600319011261067357600435602435815f526002602052600660405f2001545f60018060a01b0381541691602460405180948193636649254160e11b835260048301525afa908115610677575f9161099f575b50608001516001600160a01b03163314801561098b575b6108a290612455565b815f5260026020526108bd60ff600760405f20015416612492565b815f526002602052600560405f20018054918083018181125f8512908015821691151617610977575f8112610926577f3ebef80f7da743f5352b219800a3b811b3262820d5568befbce08ad50bfdcd7493816060945560405192835260208301526040820152a2005b60405162461bcd60e51b815260206004820152602360248201527f50726f64756374207175616e746974792063616e6e6f74206265206e6567617460448201526269766560e81b6064820152608490fd5b634e487b7160e01b5f52601160045260245ffd5b506038546001600160a01b03163314610899565b6109bb91503d805f833e6109b381836121b2565b810190612383565b83610882565b34610673576060366003190112610673576109da612297565b6024356001600160a01b03811690819003610673576044356001600160a01b0381169190829003610673575f5160206126d75f395f51905f525460ff8160401c1615936001600160401b03821680159081610b59575b6001149081610b4f575b159081610b46575b50610b375767ffffffffffffffff1982166001175f5160206126d75f395f51905f5255610a809185610b0b575b50610a786125df565b6106a66125df565b6bffffffffffffffffffffffff60a01b5f5416175f556bffffffffffffffffffffffff60a01b6001541617600155610ab457005b68ff0000000000000000195f5160206126d75f395f51905f5254165f5160206126d75f395f51905f52557fc7f505b2f371ae2175ee4913f4499e1f2633a7b5936321eed1cdaeb6115181d2602060405160018152a1005b68ffffffffffffffffff191668010000000000000001175f5160206126d75f395f51905f525585610a6f565b63f92ee8a960e01b5f5260045ffd5b90501586610a42565b303b159150610a3a565b869150610a30565b34610673575f36600319011261067357610ba8604051610b826040826121b2565b60058152640352e302e360dc1b6020820152604051918291602083526020830190612273565b0390f35b34610673575f366003190112610673575f546040516001600160a01b039091168152602090f35b34610673576080366003190112610673576004356024356001600160401b03811161067357610c069036906004016122fe565b906044356001600160401b03811161067357610c269036906004016122fe565b815f526003602052610c4860018060a01b03600460405f2001541633146124e1565b815f526003602052610c6660ff600460405f20015460a01c16612492565b815f52600360205260405f20906001820184516001600160401b03811161040557610c918254612143565b601f8111610e8f575b50806020601f8211600114610e2e575f91610e23575b508160011b915f199060031b1c19161790555b805160038301916001600160401b038211610405578190610ce48454612143565b601f8111610dca575b50602090601f8311600114610d67575f92610d5c575b50508160011b915f199060031b1c19161790555b60026064359101557fc03c67d553675c0aa5e1a5ce319ad83ebc914bd07ddc5eec254cc8ddf68d85246040516020815280610d5733956020830190612273565b0390a3005b015190508680610d03565b5f8581528281209350601f198516905b818110610db25750908460019594939210610d9a575b505050811b019055610d17565b01515f1960f88460031b161c19169055868080610d8d565b92936020600181928786015181550195019301610d77565b82811115610ced57909150835f5260205f20601f840160051c9060208510610e1b575b849392601f0160051c82900391015f5b828110610e0b575050610ced565b5f81830155859450600101610dfd565b5f9150610ded565b905086015187610cb0565b5f8481528181209250601f198416905b818110610e7757509083600194939210610e5f575b5050811b019055610cc3565b8801515f1960f88460031b161c191690558780610e53565b9192602060018192868d015181550194019201610e3e565b81811115610c9a57825f5260205f20601f830160051c9060208410610ed8575b81601f9101920160051c03905f5b828110610ecb575050610c9a565b5f82820155600101610ebd565b5f9150610eaf565b346106735760a0366003190112610673576004356024356001600160401b03811161067357610f139036906004016122fe565b906044356001600160401b03811161067357610f339036906004016122fe565b6084356001600160401b03811161067357610f529036906004016122fe565b825f526002602052600660405f2001545f60018060a01b0381541691602460405180948193636649254160e11b835260048301525afa908115610677575f916113a0575b50608001516001600160a01b03163314801561138c575b610fb690612455565b825f526002602052610fd160ff600760405f20015416612492565b825f52600260205260405f20916001830185516001600160401b03811161040557610ffc8254612143565b601f811161133b575b50806020601f82116001146112d8575f916112cd575b508160011b915f199060031b1c19161790555b805160028401916001600160401b03821161040557819061104f8454612143565b601f8111611274575b50602090601f8311600114611211575f92611206575b50508160011b915f199060031b1c19161790555b6064356003830155805160048301916001600160401b038211610405576110a98354612143565b601f81116111b5575b50602090601f831160011461112a5792826006937f0150144c916d2bd62cefea18051f904551e540783e28d8036aa39cf1ff2dbfd39693610d57965f9261111f575b50508160011b915f199060031b1c19161790555b015493604051918291602083526020830190612273565b0151905089806110f4565b90601f19831691845f52815f20925f5b81811061119d5750937f0150144c916d2bd62cefea18051f904551e540783e28d8036aa39cf1ff2dbfd39693610d5796936001938360069810611185575b505050811b019055611108565b01515f1960f88460031b161c19169055898080611178565b9293602060018192878601518155019501930161113a565b828111156110b257835f5260205f20601f840160051c90602085106111fe575b81601f9101920160051c03905f5b8281106111f15750506110b2565b5f828201556001016111e3565b5f91506111d5565b01519050878061106e565b5f8581528281209350601f198516905b81811061125c5750908460019594939210611244575b505050811b019055611082565b01515f1960f88460031b161c19169055878080611237565b92936020600181928786015181550195019301611221565b8281111561105857909150835f5260205f20601f840160051c90602085106112c5575b849392601f0160051c82900391015f5b8281106112b5575050611058565b5f818301558594506001016112a7565b5f9150611297565b90508701518861101b565b5f8481528181209250601f198416905b8a828210611323575050908360019493921061130b575b5050811b01905561102e565b8901515f1960f88460031b161c1916905588806112ff565b600184956020939584930151815501940192016112e8565b8181111561100557825f5260205f20601f830160051c9060208410611384575b81601f9101920160051c03905f5b828110611377575050611005565b5f82820155600101611369565b5f915061135b565b506038546001600160a01b03163314610fad565b6113b491503d805f833e6109b381836121b2565b85610f96565b34610673575f366003190112610673575f5160206126975f395f51905f52546040516001600160a01b039091168152602090f35b34610673576020366003190112610673575f60c060405161140e81612197565b828152606060208201528260408201526060808201528260808201528260a082015201526004355f52600360205260405f2060405161144c81612197565b8154815261145c600183016121d3565b916020820192835260028101546040830190815261147c600383016121d3565b90606084019182526114f76004840154916005608087019560018060a01b038516875260ff60a089019560a01c161515855201549360c087019485526114de60405198899860208a525160208a01525160e060408a0152610100890190612273565b9151606088015251868203601f19016080880152612273565b92516001600160a01b031660a085015251151560c08401525160e08301520390f35b34610673575f366003190112610673576115316125ac565b5f5160206126975f395f51905f5280546001600160a01b031981169091555f906001600160a01b03167f8be0079c531659141344cd1fd0a4f28419497f9722a3daafe3b4186f6b6457e08280a3005b346106735760a0366003190112610673576004356001600160401b038111610673576115b09036906004016122fe565b6024356001600160401b038111610673576115cf9036906004016122fe565b6064356001600160401b038111610673576115ee9036906004016122fe565b5f8054604051636649254160e11b8152608435600482018190529395929091829060249082906001600160a01b03165afa908115610677575f91611afa575b50608001516001600160a01b03163303611aa55761164c6004546124d3565b92836004556040519061165e8261217b565b8482526020820190838252604083019081526060830160443581526080840197885260a084015f815260c085019187835260e0860193600185526101008701954287528a5f52600260205260405f20975188556001880190518051906001600160401b0382116104055781906116d48454612143565b601f8111611a4c575b50602090601f83116001146119e9575f926119de575b50508160011b915f199060031b1c19161790555b51805160028801916001600160401b0382116104055781906117298454612143565b601f8111611985575b50602090601f8311600114611922575f92611917575b50508160011b915f199060031b1c19161790555b5160038601556004850198519889516001600160401b038111610405576117838254612143565b601f81116118c6575b5090899796959493929160209b8c90601f8311600114611833579282600896937f1f03683b39dda35363775e1dc0dace77d17e6dafaf80e268554b336986d572499b9996936103399b99965f92611828575b50508160011b915f199060031b1c19161790555b516005860155516006850155600784019051151560ff801983541691161790555191015560405191829188835288830190612273565b015190505f806117de565b90601f19831691845f52815f20925f5b8181106118ab5750937f1f03683b39dda35363775e1dc0dace77d17e6dafaf80e268554b336986d572499b9996936103399b9996936001938360089b9810611893575b505050811b0190556117f2565b01515f1960f88460031b161c191690555f8080611886565b8383015185558f9d5060019094019360209384019301611843565b8181111561178c579a825f5260205f20601f830160051c906020841061190f575b81019c601f0160051c035f5b8181106119025750509a61178c565b5f8e8201556001016118f3565b5f91506118e7565b015190508d80611748565b5f8581528281209350601f198516905b81811061196d5750908460019594939210611955575b505050811b01905561175c565b01515f1960f88460031b161c191690558d8080611948565b92936020600181928786015181550195019301611932565b8281111561173257909150835f5260205f20601f840160051c90602085106119d6575b849392601f0160051c82900391015f5b8281106119c6575050611732565b5f818301558594506001016119b8565b5f91506119a8565b015190508e806116f3565b5f8581528281209350601f198516905b818110611a345750908460019594939210611a1c575b505050811b019055611707565b01515f1960f88460031b161c191690558e8080611a0f565b929360206001819287860151815501950193016119f9565b828111156116dd57909150835f5260205f20601f840160051c9060208510611a9d575b849392601f0160051c82900391015f5b828110611a8d5750506116dd565b5f81830155859450600101611a7f565b5f9150611a6f565b60405162461bcd60e51b815260206004820152602760248201527f4f6e6c7920776f726b7370616365206f776e65722063616e20637265617465206044820152661c1c9bd91d58dd60ca1b6064820152608490fd5b611b0e91503d805f833e6109b381836121b2565b8561162d565b3461067357602036600319011261067357600480355f818152600260205260408082206006015482549151636649254160e11b815294850152919291829060249082906001600160a01b03165afa908115610677575f91611bfc575b50608001516001600160a01b031633148015611be8575b611b9090612455565b805f526002602052611bab60ff600760405f20015416612492565b805f526002602052600760405f200160ff1981541690557fb6152a4908f58ad486696d6fdb7ff64e8bc280042da79b615458b516f57f8cba5f80a2005b506038546001600160a01b03163314611b87565b611c1091503d805f833e6109b381836121b2565b82611b70565b34610673575f366003190112610673576001546040516001600160a01b039091168152602090f35b34610673575f366003190112610673577f00000000000000000000000000000000000000000000000000000000000000006001600160a01b03163003611c955760206040515f5160206126b75f395f51905f528152f35b63703e46dd60e11b5f5260045ffd5b604036600319011261067357611cb8612297565b6024356001600160401b038111610673573660238201121561067357611ce89036906024816004013591016122c8565b906001600160a01b037f000000000000000000000000000000000000000000000000000000000000000016308114908115611e4d575b50611c9557611d2b6125ac565b6040516352d1902d60e01b81526001600160a01b0382169290602081600481875afa5f9181611e19575b50611d6d5783634c9c8ce360e01b5f5260045260245ffd5b805f5160206126b75f395f51905f52859203611e075750823b15611df5575f5160206126b75f395f51905f5280546001600160a01b031916821790557fbc7cd75a20ee27fd9adebab32041f755214dbc6bffa90cc0225b39da2e5c2d3b5f80a2805115611ddd576106ab9161260a565b505034611de657005b63b398979f60e01b5f5260045ffd5b634c9c8ce360e01b5f5260045260245ffd5b632a87526960e21b5f5260045260245ffd5b9091506020813d602011611e45575b81611e35602093836121b2565b8101031261067357519085611d55565b3d9150611e28565b5f5160206126b75f395f51905f52546001600160a01b03161415905083611d1e565b34610673576020366003190112610673575f610100604051611e908161217b565b8281526060602082015260606040820152826060820152606060808201528260a08201528260c08201528260e082015201526004355f52600260205260405f20604051611edc8161217b565b81548152611eec600183016121d3565b9160208201928352611f00600282016121d3565b6040830190815260038201549160608401928352611f20600482016121d3565b60808501908152611fb960058301549460a0870195865260068401549260c08801938452611fa0600860ff6007880154169660e08b0197151588520154966101008a01978852611f8d6040519b8c9b60208d525160208d01525161012060408d01526101408c0190612273565b90518a8203601f190160608c0152612273565b9151608089015251878203601f190160a0890152612273565b935160c08601525160e0850152511515610100840152516101208301520390f35b34610673576020366003190112610673576004355f52600360205260405f208054612007600183016121d3565b91600281015460ff61205961201e600385016121d3565b926005600486015495015493612046604051988998895260e060208a015260e0890190612273565b9160408801528682036060880152612273565b9260018060a01b038116608086015260a01c16151560a084015260c08301520390f35b34610673576020366003190112610673576004355f52600260205260405f2080546120a9600183016121d3565b916120b6600282016121d3565b6003820154916120c8600482016121d3565b612127600583015494600684015492612114600860ff600788015416960154966121066040519b8c9b8c5261012060208d01526101208c0190612273565b908a820360408c0152612273565b9160608901528782036080890152612273565b9360a086015260c0850152151560e08401526101008301520390f35b90600182811c92168015612171575b602083101461215d57565b634e487b7160e01b5f52602260045260245ffd5b91607f1691612152565b61012081019081106001600160401b0382111761040557604052565b60e081019081106001600160401b0382111761040557604052565b90601f801991011681019081106001600160401b0382111761040557604052565b9060405191825f8254926121e684612143565b8084529360018116908115612251575060011461220d575b5061220b925003836121b2565b565b90505f9291925260205f20905f915b81831061223557505090602061220b928201015f6121fe565b602091935080600191548385890101520191019091849261221c565b90506020925061220b94915060ff191682840152151560051b8201015f6121fe565b805180835260209291819084018484015e5f828201840152601f01601f1916010190565b600435906001600160a01b038216820361067357565b6001600160401b03811161040557601f01601f191660200190565b9291926122d4826122ad565b916122e260405193846121b2565b829481845281830111610673578281602093845f960137010152565b9080601f8301121561067357816020612319933591016122c8565b90565b81601f8201121561067357805190612333826122ad565b9261234160405194856121b2565b8284526020838301011161067357815f9260208093018386015e8301015290565b51906001600160a01b038216820361067357565b5190811515820361067357565b602081830312610673578051906001600160401b03821161067357019060e08282031261067357604051916123b783612197565b8051835260208101516001600160401b03811161067357826123da91830161231c565b602084015260408101516001600160401b03811161067357826123fe91830161231c565b604084015260608101516001600160401b0381116106735760c09261242491830161231c565b606084015261243560808201612362565b608084015261244660a08201612376565b60a0840152015160c082015290565b1561245c57565b60405162461bcd60e51b815260206004820152600e60248201526d139bdd08185d5d1a1bdc9a5e995960921b6044820152606490fd5b1561249957565b60405162461bcd60e51b815260206004820152601260248201527150726f64756374206e6f742061637469766560701b6044820152606490fd5b5f1981146109775760010190565b156124e857565b60405162461bcd60e51b815260206004820152602560248201527f4f6e6c7920737570706c6965722063616e20706572666f726d2074686973206160448201526431ba34b7b760d91b6064820152608490fd5b6001600160a01b03168015612599575f5160206126975f395f51905f5280546001600160a01b0319811683179091556001600160a01b03167f8be0079c531659141344cd1fd0a4f28419497f9722a3daafe3b4186f6b6457e05f80a3565b631e4fbdf760e01b5f525f60045260245ffd5b5f5160206126975f395f51905f52546001600160a01b031633036125cc57565b63118cdaa760e01b5f523360045260245ffd5b60ff5f5160206126d75f395f51905f525460401c16156125fb57565b631afcd79f60e31b5f5260045ffd5b905f8091602081519101845af48080612683575b1561263e5750506040513d81523d5f602083013e60203d82010160405290565b1561266357639996b31560e01b5f9081526001600160a01b0391909116600452602490fd5b3d15612674576040513d5f823e3d90fd5b63d6bda27560e01b5f5260045ffd5b503d15158061261e5750813b151561261e56fe9016d09d72d40fdae2fd8ceac6b6234c7706214fd39c1cd1e609a0528c199300360894a13ba1a3210667c828492db98dca3e2076cc3735a920a3ca505d382bbcf0c57e16840df040f15088dc2f81fe391c3923bec73e23a9662efc9c229c6a00a2646970667358221220c73bde8ea6c96a9b5e353cf6237f448965f9c81a71993b8ea396cf8909bbd42264736f6c63430008210033f0c57e16840df040f15088dc2f81fe391c3923bec73e23a9662efc9c229c6a00","linkReferences":{}},"methodIdentifiers":{"UPGRADE_INTERFACE_VERSION()":"ad3cb1cc","adjustProductQuantity(uint256,int256)":"c11e4e0b","batchManager()":"dae41293","createProductOffer(string,string,bytes32)":"f77c713f","createProductWorkspace(string,string,bytes32,string,uint256)":"68bdb5ac","deleteProductOffer(uint256)":"ebd63e9a","deleteProductWorkspace(uint256)":"6479ccc5","getProductOffer(uint256)":"80ab8c0c","getProductWorkspace(uint256)":"26c4e21a","initialize(address,address,address)":"c0c53b8b","owner()":"8da5cb5b","productOffers(uint256)":"0994a3e1","productWorkspaces(uint256)":"0261cfe4","proxiableUUID()":"52d1902d","renounceOwnership()":"715018a6","setBatchManager(address)":"eb846b3c","transferOwnership(address)":"f2fde38b","updateProductOffer(uint256,string,string,bytes32)":"a3d5b1c0","updateProductWorkspace(uint256,string,string,bytes32,string)":"989ba842","upgradeToAndCall(address,bytes)":"4f1ef286","userManager()":"5c8a7687","workspaceManager()":"a948d6d7"},"storageLayout":{"storage":[{"astId":38344,"contract":"src/contracts/ProductManager.sol:ProductManager","label":"workspaceManager","offset":0,"slot":"0","type":"t_contract(IWorkspaceManager)39672"},{"astId":38347,"contract":"src/contracts/ProductManager.sol:ProductManager","label":"userManager","offset":0,"slot":"1","type":"t_contract(IUserManager)39470"},{"astId":38386,"contract":"src/contracts/ProductManager.sol:ProductManager","label":"productWorkspaces","offset":0,"slot":"2","type":"t_mapping(t_uint256,t_struct(ProductWorkspace)38366_storage)"},{"astId":38391,"contract":"src/contracts/ProductManager.sol:ProductManager","label":"productOffers","offset":0,"slot":"3","type":"t_mapping(t_uint256,t_struct(ProductOffer)38381_storage)"},{"astId":38393,"contract":"src/contracts/ProductManager.sol:ProductManager","label":"productWorkspaceCounter","offset":0,"slot":"4","type":"t_uint256"},{"astId":38395,"contract":"src/contracts/ProductManager.sol:ProductManager","label":"productOfferCounter","offset":0,"slot":"5","type":"t_uint256"},{"astId":38399,"contract":"src/contracts/ProductManager.sol:ProductManager","label":"__gap","offset":0,"slot":"6","type":"t_array(t_uint256)50_storage"},{"astId":38451,"contract":"src/contracts/ProductManager.sol:ProductManager","label":"batchManager","offset":0,"slot":"56","type":"t_address"}],"types":{"t_address":{"encoding":"inplace","label":"address","numberOfBytes":"20"},"t_array(t_uint256)50_storage":{"encoding":"inplace","label":"uint256[50]","numberOfBytes":"1600","base":"t_uint256"},"t_bool":{"encoding":"inplace","label":"bool","numberOfBytes":"1"},"t_bytes32":{"encoding":"inplace","label":"bytes32","numberOfBytes":"32"},"t_contract(IUserManager)39470":{"encoding":"inplace","label":"contract IUserManager","numberOfBytes":"20"},"t_contract(IWorkspaceManager)39672":{"encoding":"inplace","label":"contract IWorkspaceManager","numberOfBytes":"20"},"t_mapping(t_uint256,t_struct(ProductOffer)38381_storage)":{"encoding":"mapping","key":"t_uint256","label":"mapping(uint256 => struct ProductManager.ProductOffer)","numberOfBytes":"32","value":"t_struct(ProductOffer)38381_storage"},"t_mapping(t_uint256,t_struct(ProductWorkspace)38366_storage)":{"encoding":"mapping","key":"t_uint256","label":"mapping(uint256 => struct ProductManager.ProductWorkspace)","numberOfBytes":"32","value":"t_struct(ProductWorkspace)38366_storage"},"t_string_storage":{"encoding":"bytes","label":"string","numberOfBytes":"32"},"t_struct(ProductOffer)38381_storage":{"encoding":"inplace","label":"struct ProductManager.ProductOffer","numberOfBytes":"192","members":[{"astId":38368,"contract":"src/contracts/ProductManager.sol:ProductManager","label":"id","offset":0,"slot":"0","type":"t_uint256"},{"astId":38370,"contract":"src/contracts/ProductManager.sol:ProductManager","label":"name","offset":0,"slot":"1","type":"t_string_storage"},{"astId":38372,"contract":"src/contracts/ProductManager.sol:ProductManager","label":"imageHash","offset":0,"slot":"2","type":"t_bytes32"},{"astId":38374,"contract":"src/contracts/ProductManager.sol:ProductManager","label":"description","offset":0,"slot":"3","type":"t_string_storage"},{"astId":38376,"contract":"src/contracts/ProductManager.sol:ProductManager","label":"supplierId","offset":0,"slot":"4","type":"t_address"},{"astId":38378,"contract":"src/contracts/ProductManager.sol:ProductManager","label":"isActive","offset":20,"slot":"4","type":"t_bool"},{"astId":38380,"contract":"src/contracts/ProductManager.sol:ProductManager","label":"createdAt","offset":0,"slot":"5","type":"t_uint256"}]},"t_struct(ProductWorkspace)38366_storage":{"encoding":"inplace","label":"struct ProductManager.ProductWorkspace","numberOfBytes":"288","members":[{"astId":38349,"contract":"src/contracts/ProductManager.sol:ProductManager","label":"id","offset":0,"slot":"0","type":"t_uint256"},{"astId":38351,"contract":"src/contracts/ProductManager.sol:ProductManager","label":"name","offset":0,"slot":"1","type":"t_string_storage"},{"astId":38353,"contract":"src/contracts/ProductManager.sol:ProductManager","label":"description","offset":0,"slot":"2","type":"t_string_storage"},{"astId":38355,"contract":"src/contracts/ProductManager.sol:ProductManager","label":"imageHash","offset":0,"slot":"3","type":"t_bytes32"},{"astId":38357,"contract":"src/contracts/ProductManager.sol:ProductManager","label":"unit","offset":0,"slot":"4","type":"t_string_storage"},{"astId":38359,"contract":"src/contracts/ProductManager.sol:ProductManager","label":"quantity","offset":0,"slot":"5","type":"t_uint256"},{"astId":38361,"contract":"src/contracts/ProductManager.sol:ProductManager","label":"workspaceId","offset":0,"slot":"6","type":"t_uint256"},{"astId":38363,"contract":"src/contracts/ProductManager.sol:ProductManager","label":"isActive","offset":0,"slot":"7","type":"t_bool"},{"astId":38365,"contract":"src/contracts/ProductManager.sol:ProductManager","label":"createdAt","offset":0,"slot":"8","type":"t_uint256"}]},"t_uint256":{"encoding":"inplace","label":"uint256","numberOfBytes":"32"}}},"id":30}