{"abi":[{"type":"constructor","inputs":[],"stateMutability":"nonpayable"},{"type":"function","name":"UPGRADE_INTERFACE_VERSION","inputs":[],"outputs":[{"name":"","type":"string","internalType":"string"}],"stateMutability":"view"},{"type":"function","name":"createSupplyProposal","inputs":[{"name":"_workspaceId","type":"uint256","internalType":"uint256"},{"name":"_productId","type":"uint256","internalType":"uint256"}],"outputs":[{"name":"","type":"uint256","internalType":"uint256"}],"stateMutability":"nonpayable"},{"type":"function","name":"getProductMapping","inputs":[{"name":"_productWorkspaceId","type":"uint256","internalType":"uint256"},{"name":"_productOfferId","type":"uint256","internalType":"uint256"}],"outputs":[{"name":"","type":"tuple","internalType":"struct ProductMappingManager.ProductMapping","components":[{"name":"isActive","type":"bool","internalType":"bool"},{"name":"createdAt","type":"uint256","internalType":"uint256"}]}],"stateMutability":"view"},{"type":"function","name":"getSupplyProposal","inputs":[{"name":"_proposalId","type":"uint256","internalType":"uint256"}],"outputs":[{"name":"","type":"tuple","internalType":"struct ProductMappingManager.SupplyProposal","components":[{"name":"id","type":"uint256","internalType":"uint256"},{"name":"workspaceId","type":"uint256","internalType":"uint256"},{"name":"productId","type":"uint256","internalType":"uint256"},{"name":"status","type":"uint8","internalType":"enum ProductMappingManager.ProposalStatus"},{"name":"userId","type":"address","internalType":"address"},{"name":"createdAt","type":"uint256","internalType":"uint256"}]}],"stateMutability":"view"},{"type":"function","name":"initialize","inputs":[{"name":"initialOwner","type":"address","internalType":"address"},{"name":"_productManager","type":"address","internalType":"address"},{"name":"_workspaceManager","type":"address","internalType":"address"}],"outputs":[],"stateMutability":"nonpayable"},{"type":"function","name":"mapProduct","inputs":[{"name":"_productWorkspaceId","type":"uint256","internalType":"uint256"},{"name":"_productOfferId","type":"uint256","internalType":"uint256"}],"outputs":[],"stateMutability":"nonpayable"},{"type":"function","name":"owner","inputs":[],"outputs":[{"name":"","type":"address","internalType":"address"}],"stateMutability":"view"},{"type":"function","name":"processSupplyProposal","inputs":[{"name":"_proposalId","type":"uint256","internalType":"uint256"},{"name":"_status","type":"uint8","internalType":"enum ProductMappingManager.ProposalStatus"},{"name":"_productWorkspaceId","type":"uint256","internalType":"uint256"},{"name":"_name","type":"string","internalType":"string"},{"name":"_description","type":"string","internalType":"string"},{"name":"_imageHash","type":"bytes32","internalType":"bytes32"},{"name":"_unit","type":"string","internalType":"string"}],"outputs":[],"stateMutability":"nonpayable"},{"type":"function","name":"productManager","inputs":[],"outputs":[{"name":"","type":"address","internalType":"contract IProductManager"}],"stateMutability":"view"},{"type":"function","name":"productMappings","inputs":[{"name":"","type":"uint256","internalType":"uint256"},{"name":"","type":"uint256","internalType":"uint256"}],"outputs":[{"name":"isActive","type":"bool","internalType":"bool"},{"name":"createdAt","type":"uint256","internalType":"uint256"}],"stateMutability":"view"},{"type":"function","name":"proxiableUUID","inputs":[],"outputs":[{"name":"","type":"bytes32","internalType":"bytes32"}],"stateMutability":"view"},{"type":"function","name":"renounceOwnership","inputs":[],"outputs":[],"stateMutability":"nonpayable"},{"type":"function","name":"supplyProposals","inputs":[{"name":"","type":"uint256","internalType":"uint256"}],"outputs":[{"name":"id","type":"uint256","internalType":"uint256"},{"name":"workspaceId","type":"uint256","internalType":"uint256"},{"name":"productId","type":"uint256","internalType":"uint256"},{"name":"status","type":"uint8","internalType":"enum ProductMappingManager.ProposalStatus"},{"name":"userId","type":"address","internalType":"address"},{"name":"createdAt","type":"uint256","internalType":"uint256"}],"stateMutability":"view"},{"type":"function","name":"transferOwnership","inputs":[{"name":"newOwner","type":"address","internalType":"address"}],"outputs":[],"stateMutability":"nonpayable"},{"type":"function","name":"upgradeToAndCall","inputs":[{"name":"newImplementation","type":"address","internalType":"address"},{"name":"data","type":"bytes","internalType":"bytes"}],"outputs":[],"stateMutability":"payable"},{"type":"function","name":"workspaceManager","inputs":[],"outputs":[{"name":"","type":"address","internalType":"contract IWorkspaceManager"}],"stateMutability":"view"},{"type":"event","name":"Initialized","inputs":[{"name":"version","type":"uint64","indexed":false,"internalType":"uint64"}],"anonymous":false},{"type":"event","name":"OwnershipTransferred","inputs":[{"name":"previousOwner","type":"address","indexed":true,"internalType":"address"},{"name":"newOwner","type":"address","indexed":true,"internalType":"address"}],"anonymous":false},{"type":"event","name":"ProductMapped","inputs":[{"name":"productWorkspaceId","type":"uint256","indexed":true,"internalType":"uint256"},{"name":"productOfferId","type":"uint256","indexed":true,"internalType":"uint256"},{"name":"workspaceId","type":"uint256","indexed":true,"internalType":"uint256"}],"anonymous":false},{"type":"event","name":"SupplyProposalCreated","inputs":[{"name":"proposalId","type":"uint256","indexed":true,"internalType":"uint256"},{"name":"workspaceId","type":"uint256","indexed":true,"internalType":"uint256"},{"name":"productId","type":"uint256","indexed":true,"internalType":"uint256"},{"name":"userId","type":"address","indexed":false,"internalType":"address"}],"anonymous":false},{"type":"event","name":"SupplyProposalProcessed","inputs":[{"name":"proposalId","type":"uint256","indexed":true,"internalType":"uint256"},{"name":"workspaceId","type":"uint256","indexed":true,"internalType":"uint256"},{"name":"status","type":"uint8","indexed":false,"internalType":"enum ProductMappingManager.ProposalStatus"}],"anonymous":false},{"type":"event","name":"Upgraded","inputs":[{"name":"implementation","type":"address","indexed":true,"internalType":"address"}],"anonymous":false},{"type":"error","name":"AddressEmptyCode","inputs":[{"name":"target","type":"address","internalType":"address"}]},{"type":"error","name":"ERC1967InvalidImplementation","inputs":[{"name":"implementation","type":"address","internalType":"address"}]},{"type":"error","name":"ERC1967NonPayable","inputs":[]},{"type":"error","name":"FailedCall","inputs":[]},{"type":"error","name":"InvalidInitialization","inputs":[]},{"type":"error","name":"NotInitializing","inputs":[]},{"type":"error","name":"OwnableInvalidOwner","inputs":[{"name":"owner","type":"address","internalType":"address"}]},{"type":"error","name":"OwnableUnauthorizedAccount","inputs":[{"name":"account","type":"address","internalType":"address"}]},{"type":"error","name":"UUPSUnauthorizedCallContext","inputs":[]},{"type":"error","name":"UUPSUnsupportedProxiableUUID","inputs":[{"name":"slot","type":"bytes32","internalType":"bytes32"}]}],"bytecode":{"object":"0x60a080604052346100c257306080525f5160206117b35f395f51905f525460ff8160401c166100b3576002600160401b03196001600160401b03821601610060575b6040516116ec90816100c78239608051818181610d010152610da40152f35b6001600160401b0319166001600160401b039081175f5160206117b35f395f51905f525581527fc7f505b2f371ae2175ee4913f4499e1f2633a7b5936321eed1cdaeb6115181d290602090a15f80610041565b63f92ee8a960e01b5f5260045ffd5b5f80fdfe6080806040526004361015610012575f80fd5b5f3560e01c9081630d2a6e9114610f87575080633d6791e814610f205780634f1ef28614610d5557806352d1902d14610cef57806355d1612a146108cd578063715018a6146108665780638da5cb5b14610832578063a1b82646146107c0578063a948d6d714610798578063ad3cb1cc1461074d578063c0c53b8b146105ad578063c8eb5c56146104c3578063d2e3d33a14610139578063de1b067c14610122578063f2fde38b146100f75763f426306f146100cc575f80fd5b346100f3575f3660031901126100f3575f546040516001600160a01b039091168152602090f35b5f80fd5b346100f35760203660031901126100f357610120610113610fd8565b61011b61156c565b6114fb565b005b346100f35761012061013336610fc2565b90611358565b346100f35761014736610fc2565b60015460405163e0180c4b60e01b81526004810184905233602482015290602090829060449082906001600160a01b03165afa90811561041f575f91610489575b501561042a575f805460405163202ae30360e21b8152600481018490529190829060249082906001600160a01b03165afa90811561041f575f91610350575b5060800151336001600160a01b03909116036102e5576004545f1981146102d1576001019081600455604051926101fd8461101d565b8284526020840193818552604081019483865260608201905f8252608083019633885260a0840191428352875f52600360205260405f20945185555160018501555160028401556003830191519160038310156102bd576020976102636004948361124d565b518154610100600160a81b03191660089190911b610100600160a81b03161790555191015560405133815283907f8145ff7c50bc3f1f9478addb61e8b6e987958946a23b4557fe4bbb387bda609c908690a4604051908152f35b634e487b7160e01b5f52602160045260245ffd5b634e487b7160e01b5f52601160045260245ffd5b60405162461bcd60e51b815260206004820152603960248201527f4f6e6c7920737570706c6965722063616e2063726561746520737570706c792060448201527f70726f706f73616c20666f7220746869732070726f64756374000000000000006064820152608490fd5b90503d805f833e6103618183611053565b8101906020818303126100f3578051906001600160401b0382116100f357019060e0828203126100f3576040519161039883611038565b8051835260208101516001600160401b0381116100f357826103bb918301611114565b60208401526040810151604084015260608101516001600160401b0381116100f35760c0926103eb918301611114565b60608401526103fc6080820161115a565b608084015261040d60a0820161116e565b60a0840152015160c0820152836101c7565b6040513d5f823e3d90fd5b60405162461bcd60e51b815260206004820152603160248201527f4f6e6c7920776f726b7370616365206d656d626572732063616e20637265617460448201527019481cdd5c1c1b1e481c1c9bdc1bdcd85b607a1b6064820152608490fd5b90506020813d6020116104bb575b816104a460209383611053565b810103126100f3576104b59061116e565b83610188565b3d9150610497565b346100f35760203660031901126100f3575f60a06040516104e38161101d565b82815282602082015282604082015282606082015282608082015201526004355f52600360205260405f2060405161051a8161101d565b815481526001820154602082019081526002830154926040830193845260038101549060ff821694606085019060038710156102bd5760046105969360c0988452608088019560018060a01b039060081c16865201549460a08701958652604051965187525160208701525160408601525160608501906110e3565b516001600160a01b031660808301525160a0820152f35b346100f35760603660031901126100f3576105c6610fd8565b6024356001600160a01b038116908190036100f3576044356001600160a01b03811691908290036100f3575f5160206116975f395f51905f525460ff8160401c1615936001600160401b03821680159081610745575b600114908161073b575b159081610732575b506107235767ffffffffffffffff1982166001175f5160206116975f395f51905f525561066c91856106f7575b5061066461159f565b61011b61159f565b6bffffffffffffffffffffffff60a01b5f5416175f556bffffffffffffffffffffffff60a01b60015416176001556106a057005b68ff0000000000000000195f5160206116975f395f51905f5254165f5160206116975f395f51905f52557fc7f505b2f371ae2175ee4913f4499e1f2633a7b5936321eed1cdaeb6115181d2602060405160018152a1005b68ffffffffffffffffff191668010000000000000001175f5160206116975f395f51905f52558561065b565b63f92ee8a960e01b5f5260045ffd5b9050158661062e565b303b159150610626565b86915061061c565b346100f3575f3660031901126100f35761079460405161076e604082611053565b60058152640352e302e360dc1b60208201526040519182916020835260208301906110f0565b0390f35b346100f3575f3660031901126100f3576001546040516001600160a01b039091168152602090f35b346100f35760203660031901126100f3576004355f52600360205260c060405f20805490600181015490600281015460046003830154920154926040519485526020850152604084015261081a6060840160ff83166110e3565b60081c6001600160a01b0316608083015260a0820152f35b346100f3575f3660031901126100f3575f5160206116575f395f51905f52546040516001600160a01b039091168152602090f35b346100f3575f3660031901126100f35761087e61156c565b5f5160206116575f395f51905f5280546001600160a01b031981169091555f906001600160a01b03167f8be0079c531659141344cd1fd0a4f28419497f9722a3daafe3b4186f6b6457e08280a3005b346100f35760e03660031901126100f35760243560043560038210156100f3576044356064356001600160401b0381116100f35761090f9036906004016110c5565b6084356001600160401b0381116100f35761092e9036906004016110c5565b60c4356001600160401b0381116100f35761094d9036906004016110c5565b845f52600360205260405f209260018060a01b03600154169460018501955f8754602460405180948193636649254160e11b835260048301525afa90811561041f575f91610ccd575b50608001516001600160a01b03163303610c6f576003850160ff81541660038110156102bd57610c1e57886109ca9161124d565b60018814610a0b575b87877f5d892e1e045791c9523d4068ee4304eb31b6698a77194070de4d19f4a7dc6f606020895493610a0860405180926110e3565ba3005b80610b0c575091602091610a535f610a659560018060a01b0382541693610a7f8a5491604051998a9889978896631a2f6d6b60e21b885260a0600489015260a48801906110f0565b868103600319016024880152906110f0565b60a4356044860152848103600319016064860152906110f0565b90608483015203925af190811561041f575f91610ad6575b5091610acd60209260027f5d892e1e045791c9523d4068ee4304eb31b6698a77194070de4d19f4a7dc6f6095915b015490611358565b918580806109d3565b9290506020833d602011610b04575b81610af260209383611053565b810103126100f3579151610acd610a97565b3d9150610ae5565b949250505060245f60018060a01b0381541660405192838092631362710d60e11b82528860048301525afa801561041f5760c0915f91610bfc575b500151815403610b8157610acd60209260027f5d892e1e045791c9523d4068ee4304eb31b6698a77194070de4d19f4a7dc6f609591610ac5565b60405162461bcd60e51b815260206004820152604760248201527f50726f6475637420776f726b737061636520646f6573206e6f742062656c6f6e60448201527f6720746f207468652073616d6520776f726b73706163652061732074686520706064820152661c9bdc1bdcd85b60ca1b608482015260a490fd5b610c1891503d805f833e610c108183611053565b810190611265565b87610b47565b60405162461bcd60e51b815260206004820152602360248201527f50726f706f73616c2068617320616c7265616479206265656e2070726f6365736044820152621cd95960ea1b6064820152608490fd5b60405162461bcd60e51b815260206004820152603060248201527f4f6e6c7920776f726b7370616365206f776e65722063616e2070726f6365737360448201526f081cdd5c1c1b1e481c1c9bdc1bdcd85b60821b6064820152608490fd5b610ce991503d805f833e610ce18183611053565b81019061117b565b89610996565b346100f3575f3660031901126100f3577f00000000000000000000000000000000000000000000000000000000000000006001600160a01b03163003610d465760206040515f5160206116775f395f51905f528152f35b63703e46dd60e11b5f5260045ffd5b60403660031901126100f357610d69610fd8565b6024356001600160401b0381116100f357366023820112156100f357610d9990369060248160040135910161108f565b906001600160a01b037f000000000000000000000000000000000000000000000000000000000000000016308114908115610efe575b50610d4657610ddc61156c565b6040516352d1902d60e01b81526001600160a01b0382169290602081600481875afa5f9181610eca575b50610e1e5783634c9c8ce360e01b5f5260045260245ffd5b805f5160206116775f395f51905f52859203610eb85750823b15610ea6575f5160206116775f395f51905f5280546001600160a01b031916821790557fbc7cd75a20ee27fd9adebab32041f755214dbc6bffa90cc0225b39da2e5c2d3b5f80a2805115610e8e57610120916115ca565b505034610e9757005b63b398979f60e01b5f5260045ffd5b634c9c8ce360e01b5f5260045260245ffd5b632a87526960e21b5f5260045260245ffd5b9091506020813d602011610ef6575b81610ee660209383611053565b810103126100f357519085610e06565b3d9150610ed9565b5f5160206116775f395f51905f52546001600160a01b03161415905083610dcf565b346100f357610f2e36610fc2565b905f6020604051610f3e81610fee565b82815201525f52600260205260405f20905f526020526040805f208151610f6481610fee565b6020600160ff845416151593848452015491019081528251918252516020820152f35b346100f357604090610f9836610fc2565b905f526002602052825f20905f52602052815f20600160ff82541691015490151582526020820152f35b60409060031901126100f3576004359060243590565b600435906001600160a01b03821682036100f357565b604081019081106001600160401b0382111761100957604052565b634e487b7160e01b5f52604160045260245ffd5b60c081019081106001600160401b0382111761100957604052565b60e081019081106001600160401b0382111761100957604052565b90601f801991011681019081106001600160401b0382111761100957604052565b6001600160401b03811161100957601f01601f191660200190565b92919261109b82611074565b916110a96040519384611053565b8294818452818301116100f3578281602093845f960137010152565b9080601f830112156100f3578160206110e09335910161108f565b90565b9060038210156102bd5752565b805180835260209291819084018484015e5f828201840152601f01601f1916010190565b81601f820112156100f35780519061112b82611074565b926111396040519485611053565b828452602083830101116100f357815f9260208093018386015e8301015290565b51906001600160a01b03821682036100f357565b519081151582036100f357565b6020818303126100f3578051906001600160401b0382116100f357019060e0828203126100f357604051916111af83611038565b8051835260208101516001600160401b0381116100f357826111d2918301611114565b602084015260408101516001600160401b0381116100f357826111f6918301611114565b604084015260608101516001600160401b0381116100f35760c09261121c918301611114565b606084015261122d6080820161115a565b608084015261123e60a0820161116e565b60a0840152015160c082015290565b9060038110156102bd5760ff80198354169116179055565b6020818303126100f3578051906001600160401b0382116100f3570190610120828203126100f3576040519161012083018381106001600160401b03821117611009576040528051835260208101516001600160401b0381116100f357826112ce918301611114565b602084015260408101516001600160401b0381116100f357826112f2918301611114565b60408401526060810151606084015260808101516001600160401b0381116100f35761010092611323918301611114565b608084015260a081015160a084015260c081015160c084015261134860e0820161116e565b60e0840152015161010082015290565b9060245f60018060a01b0381541660405192838092631362710d60e11b82528760048301525afa801561041f5760c0915f916114e1575b5001519160245f60018060a01b036001541660405192838092636649254160e11b82528860048301525afa90811561041f575f916114c7575b50608001516001600160a01b0316330361147657805f52600260205260405f20825f5260205260405f20805460ff81166114315760ff191660019081178255429101557ff10599b84a58040246b1f720160f36422186dc0829fcb67638e822f1fda26fb85f80a4565b60405162461bcd60e51b815260206004820152601960248201527f4d617070696e6720697320616c726561647920616374697665000000000000006044820152606490fd5b60405162461bcd60e51b8152602060048201526024808201527f4f6e6c7920776f726b7370616365206f776e65722063616e206d61702070726f604482015263191d58dd60e21b6064820152608490fd5b6114db91503d805f833e610ce18183611053565b5f6113c8565b6114f591503d805f833e610c108183611053565b5f61138f565b6001600160a01b03168015611559575f5160206116575f395f51905f5280546001600160a01b0319811683179091556001600160a01b03167f8be0079c531659141344cd1fd0a4f28419497f9722a3daafe3b4186f6b6457e05f80a3565b631e4fbdf760e01b5f525f60045260245ffd5b5f5160206116575f395f51905f52546001600160a01b0316330361158c57565b63118cdaa760e01b5f523360045260245ffd5b60ff5f5160206116975f395f51905f525460401c16156115bb57565b631afcd79f60e31b5f5260045ffd5b905f8091602081519101845af48080611643575b156115fe5750506040513d81523d5f602083013e60203d82010160405290565b1561162357639996b31560e01b5f9081526001600160a01b0391909116600452602490fd5b3d15611634576040513d5f823e3d90fd5b63d6bda27560e01b5f5260045ffd5b503d1515806115de5750813b15156115de56fe9016d09d72d40fdae2fd8ceac6b6234c7706214fd39c1cd1e609a0528c199300360894a13ba1a3210667c828492db98dca3e2076cc3735a920a3ca505d382bbcf0c57e16840df040f15088dc2f81fe391c3923bec73e23a9662efc9c229c6a00a2646970667358221220b1a3b4343c6c4f580c0449478ab2bd8c5f83af4297d90d6a30e5b5e67777d67864736f6c63430008210033f0c57e16840df040f15088dc2f81fe391c3923bec73e23a9662efc9c229c6a00","linkReferences":{}},"methodIdentifiers":{"UPGRADE_INTERFACE_VERSION()":"ad3cb1cc","createSupplyProposal(uint256,uint256)":"d2e3d33a","getProductMapping(uint256,uint256)":"3d6791e8","getSupplyProposal(uint256)":"c8eb5c56","initialize(address,address,address)":"c0c53b8b","mapProduct(uint256,uint256)":"de1b067c","owner()":"8da5cb5b","processSupplyProposal(uint256,uint8,uint256,string,string,bytes32,string)":"55d1612a","productManager()":"f426306f","productMappings(uint256,uint256)":"0d2a6e91","proxiableUUID()":"52d1902d","renounceOwnership()":"715018a6","supplyProposals(uint256)":"a1b82646","transferOwnership(address)":"f2fde38b","upgradeToAndCall(address,bytes)":"4f1ef286","workspaceManager()":"a948d6d7"},"storageLayout":{"storage":[{"astId":39628,"contract":"src/contracts/ProductMappingManager.sol:ProductMappingManager","label":"productManager","offset":0,"slot":"0","type":"t_contract(IProductManager)41242"},{"astId":39631,"contract":"src/contracts/ProductMappingManager.sol:ProductMappingManager","label":"workspaceManager","offset":0,"slot":"1","type":"t_contract(IWorkspaceManager)41560"},{"astId":39661,"contract":"src/contracts/ProductMappingManager.sol:ProductMappingManager","label":"productMappings","offset":0,"slot":"2","type":"t_mapping(t_uint256,t_mapping(t_uint256,t_struct(ProductMapping)39640_storage))"},{"astId":39666,"contract":"src/contracts/ProductMappingManager.sol:ProductMappingManager","label":"supplyProposals","offset":0,"slot":"3","type":"t_mapping(t_uint256,t_struct(SupplyProposal)39654_storage)"},{"astId":39668,"contract":"src/contracts/ProductMappingManager.sol:ProductMappingManager","label":"supplyProposalCounter","offset":0,"slot":"4","type":"t_uint256"},{"astId":39672,"contract":"src/contracts/ProductMappingManager.sol:ProductMappingManager","label":"__gap","offset":0,"slot":"5","type":"t_array(t_uint256)50_storage"}],"types":{"t_address":{"encoding":"inplace","label":"address","numberOfBytes":"20"},"t_array(t_uint256)50_storage":{"encoding":"inplace","label":"uint256[50]","numberOfBytes":"1600","base":"t_uint256"},"t_bool":{"encoding":"inplace","label":"bool","numberOfBytes":"1"},"t_contract(IProductManager)41242":{"encoding":"inplace","label":"contract IProductManager","numberOfBytes":"20"},"t_contract(IWorkspaceManager)41560":{"encoding":"inplace","label":"contract IWorkspaceManager","numberOfBytes":"20"},"t_enum(ProposalStatus)39635":{"encoding":"inplace","label":"enum ProductMappingManager.ProposalStatus","numberOfBytes":"1"},"t_mapping(t_uint256,t_mapping(t_uint256,t_struct(ProductMapping)39640_storage))":{"encoding":"mapping","key":"t_uint256","label":"mapping(uint256 => mapping(uint256 => struct ProductMappingManager.ProductMapping))","numberOfBytes":"32","value":"t_mapping(t_uint256,t_struct(ProductMapping)39640_storage)"},"t_mapping(t_uint256,t_struct(ProductMapping)39640_storage)":{"encoding":"mapping","key":"t_uint256","label":"mapping(uint256 => struct ProductMappingManager.ProductMapping)","numberOfBytes":"32","value":"t_struct(ProductMapping)39640_storage"},"t_mapping(t_uint256,t_struct(SupplyProposal)39654_storage)":{"encoding":"mapping","key":"t_uint256","label":"mapping(uint256 => struct ProductMappingManager.SupplyProposal)","numberOfBytes":"32","value":"t_struct(SupplyProposal)39654_storage"},"t_struct(ProductMapping)39640_storage":{"encoding":"inplace","label":"struct ProductMappingManager.ProductMapping","numberOfBytes":"64","members":[{"astId":39637,"contract":"src/contracts/ProductMappingManager.sol:ProductMappingManager","label":"isActive","offset":0,"slot":"0","type":"t_bool"},{"astId":39639,"contract":"src/contracts/ProductMappingManager.sol:ProductMappingManager","label":"createdAt","offset":0,"slot":"1","type":"t_uint256"}]},"t_struct(SupplyProposal)39654_storage":{"encoding":"inplace","label":"struct ProductMappingManager.SupplyProposal","numberOfBytes":"160","members":[{"astId":39642,"contract":"src/contracts/ProductMappingManager.sol:ProductMappingManager","label":"id","offset":0,"slot":"0","type":"t_uint256"},{"astId":39644,"contract":"src/contracts/ProductMappingManager.sol:ProductMappingManager","label":"workspaceId","offset":0,"slot":"1","type":"t_uint256"},{"astId":39646,"contract":"src/contracts/ProductMappingManager.sol:ProductMappingManager","label":"productId","offset":0,"slot":"2","type":"t_uint256"},{"astId":39649,"contract":"src/contracts/ProductMappingManager.sol:ProductMappingManager","label":"status","offset":0,"slot":"3","type":"t_enum(ProposalStatus)39635"},{"astId":39651,"contract":"src/contracts/ProductMappingManager.sol:ProductMappingManager","label":"userId","offset":1,"slot":"3","type":"t_address"},{"astId":39653,"contract":"src/contracts/ProductMappingManager.sol:ProductMappingManager","label":"createdAt","offset":0,"slot":"4","type":"t_uint256"}]},"t_uint256":{"encoding":"inplace","label":"uint256","numberOfBytes":"32"}}},"id":32}