{"abi":[{"type":"constructor","inputs":[],"stateMutability":"nonpayable"},{"type":"function","name":"UPGRADE_INTERFACE_VERSION","inputs":[],"outputs":[{"name":"","type":"string","internalType":"string"}],"stateMutability":"view"},{"type":"function","name":"getUser","inputs":[{"name":"wallet","type":"address","internalType":"address"}],"outputs":[{"name":"","type":"tuple","internalType":"struct UserManager.User","components":[{"name":"name","type":"string","internalType":"string"},{"name":"avatarHash","type":"string","internalType":"string"},{"name":"role","type":"uint8","internalType":"enum UserManager.Role"},{"name":"wallet","type":"address","internalType":"address"},{"name":"email","type":"string","internalType":"string"},{"name":"phone","type":"string","internalType":"string"},{"name":"isActive","type":"bool","internalType":"bool"},{"name":"registeredAt","type":"uint256","internalType":"uint256"}]}],"stateMutability":"view"},{"type":"function","name":"getUserRole","inputs":[{"name":"wallet","type":"address","internalType":"address"}],"outputs":[{"name":"","type":"uint8","internalType":"enum UserManager.Role"}],"stateMutability":"view"},{"type":"function","name":"grantAdmin","inputs":[{"name":"_wallet","type":"address","internalType":"address"}],"outputs":[],"stateMutability":"nonpayable"},{"type":"function","name":"initialize","inputs":[{"name":"initialOwner","type":"address","internalType":"address"}],"outputs":[],"stateMutability":"nonpayable"},{"type":"function","name":"isActiveUser","inputs":[{"name":"wallet","type":"address","internalType":"address"}],"outputs":[{"name":"","type":"bool","internalType":"bool"}],"stateMutability":"view"},{"type":"function","name":"owner","inputs":[],"outputs":[{"name":"","type":"address","internalType":"address"}],"stateMutability":"view"},{"type":"function","name":"pause","inputs":[],"outputs":[],"stateMutability":"nonpayable"},{"type":"function","name":"paused","inputs":[],"outputs":[{"name":"","type":"bool","internalType":"bool"}],"stateMutability":"view"},{"type":"function","name":"proxiableUUID","inputs":[],"outputs":[{"name":"","type":"bytes32","internalType":"bytes32"}],"stateMutability":"view"},{"type":"function","name":"registerUser","inputs":[{"name":"_name","type":"string","internalType":"string"},{"name":"_role","type":"uint8","internalType":"enum UserManager.Role"},{"name":"_wallet","type":"address","internalType":"address"},{"name":"_email","type":"string","internalType":"string"},{"name":"_phone","type":"string","internalType":"string"}],"outputs":[{"name":"","type":"address","internalType":"address"}],"stateMutability":"nonpayable"},{"type":"function","name":"renounceOwnership","inputs":[],"outputs":[],"stateMutability":"nonpayable"},{"type":"function","name":"transferOwnership","inputs":[{"name":"newOwner","type":"address","internalType":"address"}],"outputs":[],"stateMutability":"nonpayable"},{"type":"function","name":"unpause","inputs":[],"outputs":[],"stateMutability":"nonpayable"},{"type":"function","name":"updateActiveUser","inputs":[{"name":"wallet","type":"address","internalType":"address"}],"outputs":[],"stateMutability":"nonpayable"},{"type":"function","name":"updateInfoUser","inputs":[{"name":"_name","type":"string","internalType":"string"},{"name":"_avatarHash","type":"string","internalType":"string"},{"name":"_email","type":"string","internalType":"string"},{"name":"_phone","type":"string","internalType":"string"}],"outputs":[],"stateMutability":"nonpayable"},{"type":"function","name":"upgradeToAndCall","inputs":[{"name":"newImplementation","type":"address","internalType":"address"},{"name":"data","type":"bytes","internalType":"bytes"}],"outputs":[],"stateMutability":"payable"},{"type":"function","name":"users","inputs":[{"name":"","type":"address","internalType":"address"}],"outputs":[{"name":"name","type":"string","internalType":"string"},{"name":"avatarHash","type":"string","internalType":"string"},{"name":"role","type":"uint8","internalType":"enum UserManager.Role"},{"name":"wallet","type":"address","internalType":"address"},{"name":"email","type":"string","internalType":"string"},{"name":"phone","type":"string","internalType":"string"},{"name":"isActive","type":"bool","internalType":"bool"},{"name":"registeredAt","type":"uint256","internalType":"uint256"}],"stateMutability":"view"},{"type":"event","name":"GrantAdmin","inputs":[{"name":"wallet","type":"address","indexed":true,"internalType":"address"}],"anonymous":false},{"type":"event","name":"Initialized","inputs":[{"name":"version","type":"uint64","indexed":false,"internalType":"uint64"}],"anonymous":false},{"type":"event","name":"OwnershipTransferred","inputs":[{"name":"previousOwner","type":"address","indexed":true,"internalType":"address"},{"name":"newOwner","type":"address","indexed":true,"internalType":"address"}],"anonymous":false},{"type":"event","name":"Paused","inputs":[{"name":"account","type":"address","indexed":false,"internalType":"address"}],"anonymous":false},{"type":"event","name":"Unpaused","inputs":[{"name":"account","type":"address","indexed":false,"internalType":"address"}],"anonymous":false},{"type":"event","name":"Upgraded","inputs":[{"name":"implementation","type":"address","indexed":true,"internalType":"address"}],"anonymous":false},{"type":"event","name":"UserActiveUpdated","inputs":[{"name":"wallet","type":"address","indexed":true,"internalType":"address"},{"name":"isActive","type":"bool","indexed":false,"internalType":"bool"}],"anonymous":false},{"type":"event","name":"UserRegistered","inputs":[{"name":"wallet","type":"address","indexed":true,"internalType":"address"},{"name":"name","type":"string","indexed":false,"internalType":"string"},{"name":"role","type":"uint8","indexed":false,"internalType":"enum UserManager.Role"}],"anonymous":false},{"type":"event","name":"UserUpdated","inputs":[{"name":"wallet","type":"address","indexed":true,"internalType":"address"},{"name":"name","type":"string","indexed":false,"internalType":"string"},{"name":"avatarHash","type":"string","indexed":false,"internalType":"string"}],"anonymous":false},{"type":"error","name":"AddressEmptyCode","inputs":[{"name":"target","type":"address","internalType":"address"}]},{"type":"error","name":"ERC1967InvalidImplementation","inputs":[{"name":"implementation","type":"address","internalType":"address"}]},{"type":"error","name":"ERC1967NonPayable","inputs":[]},{"type":"error","name":"EnforcedPause","inputs":[]},{"type":"error","name":"ExpectedPause","inputs":[]},{"type":"error","name":"FailedCall","inputs":[]},{"type":"error","name":"InvalidInitialization","inputs":[]},{"type":"error","name":"NotInitializing","inputs":[]},{"type":"error","name":"OwnableInvalidOwner","inputs":[{"name":"owner","type":"address","internalType":"address"}]},{"type":"error","name":"OwnableUnauthorizedAccount","inputs":[{"name":"account","type":"address","internalType":"address"}]},{"type":"error","name":"UUPSUnauthorizedCallContext","inputs":[]},{"type":"error","name":"UUPSUnsupportedProxiableUUID","inputs":[{"name":"slot","type":"bytes32","internalType":"bytes32"}]}],"bytecode":{"object":"0x60a080604052346100c257306080525f51602061244b5f395f51905f525460ff8160401c166100b3576002600160401b03196001600160401b03821601610060575b60405161238490816100c78239608051818181611a670152611b0a0152f35b6001600160401b0319166001600160401b039081175f51602061244b5f395f51905f525581527fc7f505b2f371ae2175ee4913f4499e1f2633a7b5936321eed1cdaeb6115181d290602090a15f80610041565b63f92ee8a960e01b5f5260045ffd5b5f80fdfe6080806040526004361015610012575f80fd5b5f3560e01c9081632782085114611ea95750806335bb3e1614611d715780633f4ba83a14611cf35780634202d21414611c865780634f1ef28614611abb57806352d1902d14611a555780635c975abb14611a275780636f77926b14611850578063715018a6146117e95780638456cb59146117785780638da5cb5b14611744578063a3eae4f214611032578063a87430ba14610f45578063ad3cb1cc14610efa578063b1f8d0ab14610967578063b319626c14610879578063c4d66de8146101115763f2fde38b146100e2575f80fd5b3461010d57602036600319011261010d5761010b6100fe611ee9565b6101066121bd565b61214c565b005b5f80fd5b3461010d57602036600319011261010d5761012a611ee9565b5f51602061232f5f395f51905f52546001600160401b03811680159081610869575b600114908161085f575b159081610856575b506108475760016001600160401b03198216175f51602061232f5f395f51905f525560ff8160401c161561081b575b610195612217565b61019d612217565b6101a68261214c565b6101ae612217565b604051916101bb83611f0c565b60409182516101ca8482611f28565b600581526420b236b4b760d91b6020820152845260209183516101ed8482611f28565b5f81528584019081526001858701526001600160a01b038216606087015284516102178582611f28565b5f81526080870152845161022b8582611f28565b5f815260a0870152600160c08701524260e087015260018060a01b0382165f525f8452845f209086518051906001600160401b0382116105935781906102718554611fd0565b601f81116107c4575b508790601f831160011461075d575f92610752575b50508160011b915f199060031b1c19161782555b518051906001600160401b0382116105935781906102c46001850154611fd0565b601f81116106f8575b508690601f831160011461068b575f92610680575b50508160011b915f199060031b1c19161760018201555b8585015160028201600582101561066c5761031761033e92826120a8565b60608801518154610100600160a81b03191660089190911b610100600160a81b0316179055565b6003810160808701518051906001600160401b0382116105935781906103648454611fd0565b601f8111610615575b508790601f83116001146105b2575f926105a7575b50508160011b915f199060031b1c19161790555b600481019560a08101519687516001600160401b038111610593576103bb8254611fd0565b601f8111610544575b5086601f82116001146104d95791816006949260e09460ff9a9b9c5f926104ce575b50508160011b915f199060031b1c19161790555b61041960c08201511515600586019060ff801983541691151516179055565b015191015584518581526005818701526420b236b4b760d91b60608201526001858201526001600160a01b03909116907fc2e5d5da58bd71d1a2d14cdef02a4256d971b728088f8190d067ccfbae3bd73e90608090a260401c161561047a57005b7fc7f505b2f371ae2175ee4913f4499e1f2633a7b5936321eed1cdaeb6115181d29168ff0000000000000000195f51602061232f5f395f51905f5254165f51602061232f5f395f51905f52555160018152a1005b015190508c806103e6565b601f19821699835f52885f209a5f5b81811061052d57509260ff999a9b60e09593600193836006999710610515575b505050811b0190556103fa565b01515f1960f88460031b161c191690558c8080610508565b838301518d556001909c019b928a01928a016104e8565b818111156103c457825f52875f20601f830160051c9089841061058b575b81601f9101920160051c03905f5b82811061057e5750506103c4565b5f82820155600101610570565b5f9150610562565b634e487b7160e01b5f52604160045260245ffd5b015190508980610382565b5f8581528981209350601f198516905b8a8282106105ff5750509084600195949392106105e7575b505050811b019055610396565b01515f1960f88460031b161c191690558980806105da565b60018596829396860151815501950193016105c2565b8281111561036d57909150835f52875f20601f840160051c90898510610664575b849392601f0160051c82900391015f5b82811061065457505061036d565b5f81830155859450600101610646565b5f9150610636565b634e487b7160e01b5f52602160045260245ffd5b0151905088806102e2565b9250600184015f52865f20905f935b88601f19851686106106df57506001945083601f198116106106c7575b505050811b0160018201556102f9565b01515f1960f88460031b161c191690558880806106b7565b828201518455948501946001909301929091019061069a565b828111156102cd57909150600184015f52865f20601f840160051c9088851061074a575b849392601f0160051c82900391015f5b82811061073a5750506102cd565b5f8183015585945060010161072c565b5f915061071c565b01519050898061028f565b9250845f52875f20905f935b89601f19851686106107ab57506001945083601f19811610610793575b505050811b0182556102a3565b01515f1960f88460031b161c19169055898080610786565b8282015184559485019460019093019290910190610769565b8281111561027a57909150845f52875f20601f840160051c90898510610813575b849392601f0160051c82900391015f5b82811061080357505061027a565b5f818301558594506001016107f5565b5f91506107e5565b68ffffffffffffffffff19811668010000000000000001175f51602061232f5f395f51905f525561018d565b63f92ee8a960e01b5f5260045ffd5b9050158361015e565b303b159150610156565b604083901c60ff1615915061014c565b3461010d57602036600319011261010d57610892611ee9565b335f525f60205260ff600260405f20015416600581101561066c57600103610917576108bc6121f0565b6001600160a01b03165f8181526020818152604091829020600501805460ff808216151660ff199091168117909155915191151582527f1917ae6e6e72917d5c411808b6c221640dcd85788178f09616cee577eb9bebf891a2005b60405162461bcd60e51b815260206004820152602260248201527f4f6e6c792061646d696e2063616e20706572666f726d2074686973206163746960448201526137b760f11b6064820152608490fd5b3461010d57608036600319011261010d576004356001600160401b03811161010d57610997903690600401611fb2565b6024356001600160401b03811161010d576109b6903690600401611fb2565b6044356001600160401b03811161010d576109d5903690600401611fb2565b916064356001600160401b03811161010d576109f5903690600401611fb2565b92335f525f602052610a1a60018060a01b03600260405f20015460081c1615156120c0565b335f525f602052610a3460ff600560405f20015416612102565b335f525f60205260405f209082516001600160401b03811161059357610a5a8354611fd0565b601f8111610ea9575b50806020601f8211600114610e48575f91610e3d575b508160011b915f199060031b1c19161782555b6001820184516001600160401b03811161059357610aaa8254611fd0565b601f8111610dec575b50806020601f8211600114610d8b575f91610d80575b508160011b915f199060031b1c19161790555b805160038301916001600160401b03821161059357610afb8354611fd0565b601f8111610d2f575b50602090601f8311600114610cc8576004949392915f9183610cbd575b50508160011b915f199060031b1c19161790555b0183516001600160401b03811161059357610b508254611fd0565b601f8111610c6c575b506020601f8211600114610be3579080610bc49493927fe5d18d6612696bff7df1db8015eac613241613297fa2ba2783993e4fd0e76f3d96975f92610bd8575b50508160011b915f199060031b1c19161790555b610bd3604051928392604084526040840190611f8e565b82810360208401523395611f8e565b0390a2005b015190508780610b99565b601f19821695835f52815f20965f5b818110610c545750966001928492610bc49796957fe5d18d6612696bff7df1db8015eac613241613297fa2ba2783993e4fd0e76f3d999a10610c3c575b505050811b019055610bad565b01515f1960f88460031b161c19169055878080610c2f565b83830151895560019098019760209384019301610bf2565b81811115610b5957825f5260205f20601f830160051c9060208410610cb5575b81601f9101920160051c03905f5b828110610ca8575050610b59565b5f82820155600101610c9a565b5f9150610c8c565b015190508880610b21565b90601f19831691845f52815f20925f5b818110610d17575091600193918560049897969410610cff575b505050811b019055610b35565b01515f1960f88460031b161c19169055888080610cf2565b92936020600181928786015181550195019301610cd8565b82811115610b0457835f5260205f20601f840160051c9060208510610d78575b81601f9101920160051c03905f5b828110610d6b575050610b04565b5f82820155600101610d5d565b5f9150610d4f565b905086015188610ac9565b5f8481528181209250601f198416905b818110610dd457509083600194939210610dbc575b5050811b019055610adc565b8801515f1960f88460031b161c191690558880610db0565b9192602060018192868d015181550194019201610d9b565b81811115610ab357825f5260205f20601f830160051c9060208410610e35575b81601f9101920160051c03905f5b828110610e28575050610ab3565b5f82820155600101610e1a565b5f9150610e0c565b905084015187610a79565b5f8581528181209250601f198416905b818110610e9157509083600194939210610e79575b5050811b018255610a8c565b8601515f1960f88460031b161c191690558780610e6d565b9192602060018192868b015181550194019201610e58565b81811115610a6357835f5260205f20601f830160051c9060208410610ef2575b81601f9101920160051c03905f5b828110610ee5575050610a63565b5f82820155600101610ed7565b5f9150610ec9565b3461010d575f36600319011261010d57610f41604051610f1b604082611f28565b60058152640352e302e360dc1b6020820152604051918291602083526020830190611f8e565b0390f35b3461010d57602036600319011261010d576001600160a01b03610f66611ee9565b165f525f602052610fd660405f20610f7d81612008565b90610f8a60018201612008565b6110216002830154611013610fa160038601612008565b91610fae60048701612008565b92610fe4600660ff60058a015416980154966040519a8b9a6101008c526101008c0190611f8e565b908a820360208c0152611f8e565b91610ff560408a0160ff8316611eff565b60081c6001600160a01b031660608901528782036080890152611f8e565b9085820360a0870152611f8e565b91151560c084015260e08301520390f35b3461010d5760a036600319011261010d576004356001600160401b03811161010d57611062903690600401611fb2565b6005602435101561010d576044356001600160a01b038116810361010d576064356001600160401b03811161010d5761109f903690600401611fb2565b916084356001600160401b03811161010d576110bf903690600401611fb2565b926110c86121f0565b6001600160a01b038381165f9081526020819052604090206002015460081c166116ff576024351515806116f2575b156116be5760405161110881611f0c565b8281526020946040519261111c8785611f28565b5f845286830193845261113460243560408501612140565b6001600160a01b03861660608401819052608084019190915260a08301918252600160c08401524260e08401525f9081528087526040902082518051919491906001600160401b03821161059357819061118e8754611fd0565b601f8111611667575b508990601f8311600114611600575f926115f5575b50508160011b915f199060031b1c19161784555b518051906001600160401b0382116105935781906111e16001870154611fd0565b601f811161159b575b508890601f831160011461152e575f92611523575b50508160011b915f199060031b1c19161760018401555b604082015160028401600582101561066c5761123561125c92826120a8565b60608401518154610100600160a81b03191660089190911b610100600160a81b0316179055565b6003830160808301518051906001600160401b0382116105935781906112828454611fd0565b601f81116114cc575b508990601f8311600114611469575f9261145e575b50508160011b915f199060031b1c19161790555b51805160048401916001600160401b038211610593576112d48354611fd0565b601f811161140f575b508790601f83116001146113a657918060e09492600696945f9261139b575b50508160011b915f199060031b1c19161790555b61132f60c08201511515600586019060ff801983541691151516179055565b01519101557fc2e5d5da58bd71d1a2d14cdef02a4256d971b728088f8190d067ccfbae3bd73e61136a60405192604084526040840190611f8e565b91611379858201602435611eff565b6001600160a01b0384169281900390a26040516001600160a01b039091168152f35b015190508a806112fc565b90601f19831691845f52895f20925f5b8b8282106113f95750509260019285926006989660e09896106113e1575b505050811b019055611310565b01515f1960f88460031b161c191690558a80806113d4565b60018596829396860151815501950193016113b6565b828111156112dd57835f52885f20601f840160051c908a8510611456575b81601f9101920160051c03905f5b8281106114495750506112dd565b5f8282015560010161143b565b5f915061142d565b0151905089806112a0565b5f8581528b81209350601f198516905b8c8282106114b657505090846001959493921061149e575b505050811b0190556112b4565b01515f1960f88460031b161c19169055898080611491565b6001859682939686015181550195019301611479565b8281111561128b57909150835f52895f20601f840160051c908b851061151b575b849392601f0160051c82900391015f5b82811061150b57505061128b565b5f818301558594506001016114fd565b5f91506114ed565b0151905088806111ff565b9250600186015f52885f20905f935b8a601f198516861061158257506001945083601f1981161061156a575b505050811b016001840155611216565b01515f1960f88460031b161c1916905588808061155a565b828201518455948501946001909301929091019061153d565b828111156111ea57909150600186015f52885f20601f840160051c908a85106115ed575b849392601f0160051c82900391015f5b8281106115dd5750506111ea565b5f818301558594506001016115cf565b5f91506115bf565b0151905089806111ac565b9250865f52895f20905f935b8b601f198516861061164e57506001945083601f19811610611636575b505050811b0184556111c0565b01515f1960f88460031b161c19169055898080611629565b828201518455948501946001909301929091019061160c565b8281111561119757909150865f52895f20601f840160051c908b85106116b6575b849392601f0160051c82900391015f5b8281106116a6575050611197565b5f81830155859450600101611698565b5f9150611688565b60405162461bcd60e51b815260206004820152600c60248201526b496e76616c696420726f6c6560a01b6044820152606490fd5b50600160243514156110f7565b60405162461bcd60e51b815260206004820152601760248201527f5573657220616c726561647920726567697374657265640000000000000000006044820152606490fd5b3461010d575f36600319011261010d575f5160206122cf5f395f51905f52546040516001600160a01b039091168152602090f35b3461010d575f36600319011261010d576117906121bd565b6117986121f0565b600160ff195f51602061230f5f395f51905f525416175f51602061230f5f395f51905f52557f62e78cea01bee320cd4e420270b5ea74000d11b0c9f74754ebdbfc544b05a2586020604051338152a1005b3461010d575f36600319011261010d576118016121bd565b5f5160206122cf5f395f51905f5280546001600160a01b031981169091555f906001600160a01b03167f8be0079c531659141344cd1fd0a4f28419497f9722a3daafe3b4186f6b6457e08280a3005b3461010d57602036600319011261010d57611869611ee9565b5f60e060405161187881611f0c565b606081526060602082015282604082015282606082015260606080820152606060a08201528260c0820152015260018060a01b0316805f525f6020526118d160018060a01b03600260405f20015460081c1615156120c0565b805f525f6020526118eb60ff600560405f20015416612102565b5f525f60205261012060405f206040519061190582611f0c565b61190e81612008565b825261191c60018201612008565b60208301908152611a136002830154611a006040860161193f60ff841682612140565b60089290921c6001600160a01b0316606087019081529161196260038701612008565b6080880190815261197560048801612008565b9360a089019485526119df6119d3600660ff60058c0154169a60c08d019b15158c5201549860e08c01998a526119c0604051809e819e60208352519161010060208201520190611f8e565b90518c8203601f190160408e0152611f8e565b935160608b0190611eff565b516001600160a01b0316608089015251878203601f190160a0890152611f8e565b9051858203601f190160c0870152611f8e565b9151151560e0840152516101008301520390f35b3461010d575f36600319011261010d57602060ff5f51602061230f5f395f51905f5254166040519015158152f35b3461010d575f36600319011261010d577f00000000000000000000000000000000000000000000000000000000000000006001600160a01b03163003611aac5760206040515f5160206122ef5f395f51905f528152f35b63703e46dd60e11b5f5260045ffd5b604036600319011261010d57611acf611ee9565b6024356001600160401b03811161010d573660238201121561010d57611aff903690602481600401359101611f49565b906001600160a01b037f000000000000000000000000000000000000000000000000000000000000000016308114908115611c64575b50611aac57611b426121bd565b6040516352d1902d60e01b81526001600160a01b0382169290602081600481875afa5f9181611c30575b50611b845783634c9c8ce360e01b5f5260045260245ffd5b805f5160206122ef5f395f51905f52859203611c1e5750823b15611c0c575f5160206122ef5f395f51905f5280546001600160a01b031916821790557fbc7cd75a20ee27fd9adebab32041f755214dbc6bffa90cc0225b39da2e5c2d3b5f80a2805115611bf45761010b91612242565b505034611bfd57005b63b398979f60e01b5f5260045ffd5b634c9c8ce360e01b5f5260045260245ffd5b632a87526960e21b5f5260045260245ffd5b9091506020813d602011611c5c575b81611c4c60209383611f28565b8101031261010d57519085611b6c565b3d9150611c3f565b5f5160206122ef5f395f51905f52546001600160a01b03161415905083611b35565b3461010d57602036600319011261010d576001600160a01b03611ca7611ee9565b165f8181526020819052604090206002015460081c6001600160a01b0316151580611cda575b6020906040519015158152f35b505f525f602052602060ff600560405f20015416611ccd565b3461010d575f36600319011261010d57611d0b6121bd565b5f51602061230f5f395f51905f525460ff811615611d625760ff19165f51602061230f5f395f51905f52557f5db9ee0a495bf2e6ff9c91a7834c1ba4fdd244a5e8aa4e537bd38aeae4b073aa6020604051338152a1005b638dfc202b60e01b5f5260045ffd5b3461010d57602036600319011261010d57611d8a611ee9565b611d926121bd565b6001600160a01b038116908115611e7257815f525f60205260ff600260405f20015416600581101561066c57611e2d575f828152602081905260408120600281018054600160089590951b610100600160a81b03166001600160a81b03199091161784179055600501805460ff19169092179091557f5e006f8226b9e1bfdbd2bf21849efcc0ec1850e5d46b822a377beb17a360fd8d9080a2005b60405162461bcd60e51b815260206004820152601760248201527f5573657220616c726561647920686173206120726f6c650000000000000000006044820152606490fd5b60405162461bcd60e51b815260206004820152600f60248201526e496e76616c6964206164647265737360881b6044820152606490fd5b3461010d57602036600319011261010d576020906001600160a01b03611ecd611ee9565b165f525f8252611ee78160ff600260405f20015416611eff565bf35b600435906001600160a01b038216820361010d57565b90600582101561066c5752565b61010081019081106001600160401b0382111761059357604052565b90601f801991011681019081106001600160401b0382111761059357604052565b9291926001600160401b0382116105935760405191611f72601f8201601f191660200184611f28565b82948184528183011161010d578281602093845f960137010152565b805180835260209291819084018484015e5f828201840152601f01601f1916010190565b9080601f8301121561010d57816020611fcd93359101611f49565b90565b90600182811c92168015611ffe575b6020831014611fea57565b634e487b7160e01b5f52602260045260245ffd5b91607f1691611fdf565b9060405191825f82549261201b84611fd0565b80845293600181169081156120865750600114612042575b5061204092500383611f28565b565b90505f9291925260205f20905f915b81831061206a575050906020612040928201015f612033565b6020919350806001915483858901015201910190918492612051565b90506020925061204094915060ff191682840152151560051b8201015f612033565b90600581101561066c5760ff80198354169116179055565b156120c757565b60405162461bcd60e51b8152602060048201526013602482015272155cd95c88191bd95cc81b9bdd08195e1a5cdd606a1b6044820152606490fd5b1561210957565b60405162461bcd60e51b815260206004820152600f60248201526e155cd95c881a5cc8189b1bd8dad959608a1b6044820152606490fd5b600582101561066c5752565b6001600160a01b031680156121aa575f5160206122cf5f395f51905f5280546001600160a01b0319811683179091556001600160a01b03167f8be0079c531659141344cd1fd0a4f28419497f9722a3daafe3b4186f6b6457e05f80a3565b631e4fbdf760e01b5f525f60045260245ffd5b5f5160206122cf5f395f51905f52546001600160a01b031633036121dd57565b63118cdaa760e01b5f523360045260245ffd5b60ff5f51602061230f5f395f51905f52541661220857565b63d93c066560e01b5f5260045ffd5b60ff5f51602061232f5f395f51905f525460401c161561223357565b631afcd79f60e31b5f5260045ffd5b905f8091602081519101845af480806122bb575b156122765750506040513d81523d5f602083013e60203d82010160405290565b1561229b57639996b31560e01b5f9081526001600160a01b0391909116600452602490fd5b3d156122ac576040513d5f823e3d90fd5b63d6bda27560e01b5f5260045ffd5b503d1515806122565750813b151561225656fe9016d09d72d40fdae2fd8ceac6b6234c7706214fd39c1cd1e609a0528c199300360894a13ba1a3210667c828492db98dca3e2076cc3735a920a3ca505d382bbccd5ed15c6e187e77e9aee88184c21f4f2182ab5827cb3b7e07fbedcd63f03300f0c57e16840df040f15088dc2f81fe391c3923bec73e23a9662efc9c229c6a00a2646970667358221220b48a6ac6766214c37d6687223334bd4f1e540592148c18037447bdb2a719621664736f6c63430008210033f0c57e16840df040f15088dc2f81fe391c3923bec73e23a9662efc9c229c6a00","linkReferences":{}},"methodIdentifiers":{"UPGRADE_INTERFACE_VERSION()":"ad3cb1cc","getUser(address)":"6f77926b","getUserRole(address)":"27820851","grantAdmin(address)":"35bb3e16","initialize(address)":"c4d66de8","isActiveUser(address)":"4202d214","owner()":"8da5cb5b","pause()":"8456cb59","paused()":"5c975abb","proxiableUUID()":"52d1902d","registerUser(string,uint8,address,string,string)":"a3eae4f2","renounceOwnership()":"715018a6","transferOwnership(address)":"f2fde38b","unpause()":"3f4ba83a","updateActiveUser(address)":"b319626c","updateInfoUser(string,string,string,string)":"b1f8d0ab","upgradeToAndCall(address,bytes)":"4f1ef286","users(address)":"a87430ba"},"storageLayout":{"storage":[{"astId":37684,"contract":"src/contracts/UserManager.sol:UserManager","label":"users","offset":0,"slot":"0","type":"t_mapping(t_address,t_struct(User)37679_storage)"},{"astId":37688,"contract":"src/contracts/UserManager.sol:UserManager","label":"__gap","offset":0,"slot":"1","type":"t_array(t_uint256)50_storage"}],"types":{"t_address":{"encoding":"inplace","label":"address","numberOfBytes":"20"},"t_array(t_uint256)50_storage":{"encoding":"inplace","label":"uint256[50]","numberOfBytes":"1600","base":"t_uint256"},"t_bool":{"encoding":"inplace","label":"bool","numberOfBytes":"1"},"t_enum(Role)37661":{"encoding":"inplace","label":"enum UserManager.Role","numberOfBytes":"1"},"t_mapping(t_address,t_struct(User)37679_storage)":{"encoding":"mapping","key":"t_address","label":"mapping(address => struct UserManager.User)","numberOfBytes":"32","value":"t_struct(User)37679_storage"},"t_string_storage":{"encoding":"bytes","label":"string","numberOfBytes":"32"},"t_struct(User)37679_storage":{"encoding":"inplace","label":"struct UserManager.User","numberOfBytes":"224","members":[{"astId":37663,"contract":"src/contracts/UserManager.sol:UserManager","label":"name","offset":0,"slot":"0","type":"t_string_storage"},{"astId":37665,"contract":"src/contracts/UserManager.sol:UserManager","label":"avatarHash","offset":0,"slot":"1","type":"t_string_storage"},{"astId":37668,"contract":"src/contracts/UserManager.sol:UserManager","label":"role","offset":0,"slot":"2","type":"t_enum(Role)37661"},{"astId":37670,"contract":"src/contracts/UserManager.sol:UserManager","label":"wallet","offset":1,"slot":"2","type":"t_address"},{"astId":37672,"contract":"src/contracts/UserManager.sol:UserManager","label":"email","offset":0,"slot":"3","type":"t_string_storage"},{"astId":37674,"contract":"src/contracts/UserManager.sol:UserManager","label":"phone","offset":0,"slot":"4","type":"t_string_storage"},{"astId":37676,"contract":"src/contracts/UserManager.sol:UserManager","label":"isActive","offset":0,"slot":"5","type":"t_bool"},{"astId":37678,"contract":"src/contracts/UserManager.sol:UserManager","label":"registeredAt","offset":0,"slot":"6","type":"t_uint256"}]},"t_uint256":{"encoding":"inplace","label":"uint256","numberOfBytes":"32"}}},"id":30}