{"abi":[{"type":"constructor","inputs":[],"stateMutability":"nonpayable"},{"type":"function","name":"UPGRADE_INTERFACE_VERSION","inputs":[],"outputs":[{"name":"","type":"string","internalType":"string"}],"stateMutability":"view"},{"type":"function","name":"createJoinRequest","inputs":[{"name":"_workspaceId","type":"uint256","internalType":"uint256"},{"name":"_representativeName","type":"string","internalType":"string"},{"name":"_message","type":"string","internalType":"string"}],"outputs":[{"name":"","type":"uint256","internalType":"uint256"}],"stateMutability":"nonpayable"},{"type":"function","name":"createWorkspace","inputs":[{"name":"_name","type":"string","internalType":"string"},{"name":"_description","type":"string","internalType":"string"},{"name":"_imageHash","type":"string","internalType":"string"}],"outputs":[{"name":"","type":"uint256","internalType":"uint256"}],"stateMutability":"nonpayable"},{"type":"function","name":"deleteWorkspace","inputs":[{"name":"_workspaceId","type":"uint256","internalType":"uint256"}],"outputs":[],"stateMutability":"nonpayable"},{"type":"function","name":"getJoinRequest","inputs":[{"name":"_requestId","type":"uint256","internalType":"uint256"}],"outputs":[{"name":"","type":"tuple","internalType":"struct WorkspaceManager.JoinRequest","components":[{"name":"id","type":"uint256","internalType":"uint256"},{"name":"userId","type":"address","internalType":"address"},{"name":"workspaceId","type":"uint256","internalType":"uint256"},{"name":"representativeName","type":"string","internalType":"string"},{"name":"message","type":"string","internalType":"string"},{"name":"status","type":"uint8","internalType":"enum WorkspaceManager.RequestStatus"},{"name":"requestedAt","type":"uint256","internalType":"uint256"}]}],"stateMutability":"view"},{"type":"function","name":"getMember","inputs":[{"name":"_workspaceId","type":"uint256","internalType":"uint256"},{"name":"_userId","type":"address","internalType":"address"}],"outputs":[{"name":"","type":"tuple","internalType":"struct WorkspaceManager.MemberWorkspace","components":[{"name":"representativeName","type":"string","internalType":"string"},{"name":"role","type":"uint8","internalType":"enum IUserManager.Role"},{"name":"joinedAt","type":"uint256","internalType":"uint256"},{"name":"isActive","type":"bool","internalType":"bool"}]}],"stateMutability":"view"},{"type":"function","name":"getWorkspace","inputs":[{"name":"_workspaceId","type":"uint256","internalType":"uint256"}],"outputs":[{"name":"","type":"tuple","internalType":"struct WorkspaceManager.Workspace","components":[{"name":"id","type":"uint256","internalType":"uint256"},{"name":"name","type":"string","internalType":"string"},{"name":"description","type":"string","internalType":"string"},{"name":"imageHash","type":"string","internalType":"string"},{"name":"owner","type":"address","internalType":"address"},{"name":"isActive","type":"bool","internalType":"bool"},{"name":"createdAt","type":"uint256","internalType":"uint256"}]}],"stateMutability":"view"},{"type":"function","name":"initialize","inputs":[{"name":"initialOwner","type":"address","internalType":"address"},{"name":"_userManager","type":"address","internalType":"address"}],"outputs":[],"stateMutability":"nonpayable"},{"type":"function","name":"isMemberWorkspace","inputs":[{"name":"_workspaceId","type":"uint256","internalType":"uint256"},{"name":"_userId","type":"address","internalType":"address"}],"outputs":[{"name":"","type":"bool","internalType":"bool"}],"stateMutability":"view"},{"type":"function","name":"isWorkspaceMember","inputs":[{"name":"","type":"uint256","internalType":"uint256"},{"name":"","type":"address","internalType":"address"}],"outputs":[{"name":"","type":"bool","internalType":"bool"}],"stateMutability":"view"},{"type":"function","name":"joinRequests","inputs":[{"name":"","type":"uint256","internalType":"uint256"}],"outputs":[{"name":"id","type":"uint256","internalType":"uint256"},{"name":"userId","type":"address","internalType":"address"},{"name":"workspaceId","type":"uint256","internalType":"uint256"},{"name":"representativeName","type":"string","internalType":"string"},{"name":"message","type":"string","internalType":"string"},{"name":"status","type":"uint8","internalType":"enum WorkspaceManager.RequestStatus"},{"name":"requestedAt","type":"uint256","internalType":"uint256"}],"stateMutability":"view"},{"type":"function","name":"leaveWorkspace","inputs":[{"name":"_workspaceId","type":"uint256","internalType":"uint256"}],"outputs":[],"stateMutability":"nonpayable"},{"type":"function","name":"owner","inputs":[],"outputs":[{"name":"","type":"address","internalType":"address"}],"stateMutability":"view"},{"type":"function","name":"processJoinRequest","inputs":[{"name":"requestId","type":"uint256","internalType":"uint256"},{"name":"status","type":"uint8","internalType":"enum WorkspaceManager.RequestStatus"}],"outputs":[],"stateMutability":"nonpayable"},{"type":"function","name":"proxiableUUID","inputs":[],"outputs":[{"name":"","type":"bytes32","internalType":"bytes32"}],"stateMutability":"view"},{"type":"function","name":"removeMember","inputs":[{"name":"_workspaceId","type":"uint256","internalType":"uint256"},{"name":"_userId","type":"address","internalType":"address"}],"outputs":[],"stateMutability":"nonpayable"},{"type":"function","name":"renounceOwnership","inputs":[],"outputs":[],"stateMutability":"nonpayable"},{"type":"function","name":"transferOwnership","inputs":[{"name":"newOwner","type":"address","internalType":"address"}],"outputs":[],"stateMutability":"nonpayable"},{"type":"function","name":"updateWorkspace","inputs":[{"name":"_workspaceId","type":"uint256","internalType":"uint256"},{"name":"_name","type":"string","internalType":"string"},{"name":"_description","type":"string","internalType":"string"},{"name":"_imageHash","type":"string","internalType":"string"}],"outputs":[],"stateMutability":"nonpayable"},{"type":"function","name":"upgradeToAndCall","inputs":[{"name":"newImplementation","type":"address","internalType":"address"},{"name":"data","type":"bytes","internalType":"bytes"}],"outputs":[],"stateMutability":"payable"},{"type":"function","name":"userJoinedWorkspaces","inputs":[{"name":"","type":"address","internalType":"address"},{"name":"","type":"uint256","internalType":"uint256"}],"outputs":[{"name":"","type":"uint256","internalType":"uint256"}],"stateMutability":"view"},{"type":"function","name":"userManager","inputs":[],"outputs":[{"name":"","type":"address","internalType":"contract IUserManager"}],"stateMutability":"view"},{"type":"function","name":"workspaceMembers","inputs":[{"name":"","type":"uint256","internalType":"uint256"},{"name":"","type":"address","internalType":"address"}],"outputs":[{"name":"representativeName","type":"string","internalType":"string"},{"name":"role","type":"uint8","internalType":"enum IUserManager.Role"},{"name":"joinedAt","type":"uint256","internalType":"uint256"},{"name":"isActive","type":"bool","internalType":"bool"}],"stateMutability":"view"},{"type":"function","name":"workspaces","inputs":[{"name":"","type":"uint256","internalType":"uint256"}],"outputs":[{"name":"id","type":"uint256","internalType":"uint256"},{"name":"name","type":"string","internalType":"string"},{"name":"description","type":"string","internalType":"string"},{"name":"imageHash","type":"string","internalType":"string"},{"name":"owner","type":"address","internalType":"address"},{"name":"isActive","type":"bool","internalType":"bool"},{"name":"createdAt","type":"uint256","internalType":"uint256"}],"stateMutability":"view"},{"type":"event","name":"AddMember","inputs":[{"name":"workspaceId","type":"uint256","indexed":true,"internalType":"uint256"},{"name":"userId","type":"address","indexed":true,"internalType":"address"},{"name":"representativeName","type":"string","indexed":false,"internalType":"string"},{"name":"role","type":"uint8","indexed":false,"internalType":"enum IUserManager.Role"}],"anonymous":false},{"type":"event","name":"Initialized","inputs":[{"name":"version","type":"uint64","indexed":false,"internalType":"uint64"}],"anonymous":false},{"type":"event","name":"JoinRequestCreated","inputs":[{"name":"requestId","type":"uint256","indexed":true,"internalType":"uint256"},{"name":"userId","type":"address","indexed":true,"internalType":"address"},{"name":"workspaceId","type":"uint256","indexed":true,"internalType":"uint256"}],"anonymous":false},{"type":"event","name":"JoinRequestProcessed","inputs":[{"name":"requestId","type":"uint256","indexed":true,"internalType":"uint256"},{"name":"workspaceId","type":"uint256","indexed":true,"internalType":"uint256"},{"name":"status","type":"uint8","indexed":false,"internalType":"enum WorkspaceManager.RequestStatus"}],"anonymous":false},{"type":"event","name":"OwnershipTransferred","inputs":[{"name":"previousOwner","type":"address","indexed":true,"internalType":"address"},{"name":"newOwner","type":"address","indexed":true,"internalType":"address"}],"anonymous":false},{"type":"event","name":"RemoveMember","inputs":[{"name":"workspaceId","type":"uint256","indexed":true,"internalType":"uint256"},{"name":"userId","type":"address","indexed":true,"internalType":"address"}],"anonymous":false},{"type":"event","name":"Upgraded","inputs":[{"name":"implementation","type":"address","indexed":true,"internalType":"address"}],"anonymous":false},{"type":"event","name":"WorkspaceCreated","inputs":[{"name":"workspaceId","type":"uint256","indexed":true,"internalType":"uint256"},{"name":"name","type":"string","indexed":false,"internalType":"string"},{"name":"owner","type":"address","indexed":true,"internalType":"address"},{"name":"imageHash","type":"string","indexed":false,"internalType":"string"}],"anonymous":false},{"type":"event","name":"WorkspaceRemoved","inputs":[{"name":"workspaceId","type":"uint256","indexed":true,"internalType":"uint256"}],"anonymous":false},{"type":"event","name":"WorkspaceUpdated","inputs":[{"name":"workspaceId","type":"uint256","indexed":true,"internalType":"uint256"},{"name":"name","type":"string","indexed":false,"internalType":"string"},{"name":"description","type":"string","indexed":false,"internalType":"string"},{"name":"imageHash","type":"string","indexed":false,"internalType":"string"}],"anonymous":false},{"type":"error","name":"AddressEmptyCode","inputs":[{"name":"target","type":"address","internalType":"address"}]},{"type":"error","name":"ERC1967InvalidImplementation","inputs":[{"name":"implementation","type":"address","internalType":"address"}]},{"type":"error","name":"ERC1967NonPayable","inputs":[]},{"type":"error","name":"FailedCall","inputs":[]},{"type":"error","name":"InvalidInitialization","inputs":[]},{"type":"error","name":"NotInitializing","inputs":[]},{"type":"error","name":"OwnableInvalidOwner","inputs":[{"name":"owner","type":"address","internalType":"address"}]},{"type":"error","name":"OwnableUnauthorizedAccount","inputs":[{"name":"account","type":"address","internalType":"address"}]},{"type":"error","name":"UUPSUnauthorizedCallContext","inputs":[]},{"type":"error","name":"UUPSUnsupportedProxiableUUID","inputs":[{"name":"slot","type":"bytes32","internalType":"bytes32"}]}],"bytecode":{"object":"0x60a080604052346100c257306080525f516020612cbf5f395f51905f525460ff8160401c166100b3576002600160401b03196001600160401b03821601610060575b604051612bf890816100c78239608051818181610d0d0152610db00152f35b6001600160401b0319166001600160401b039081175f516020612cbf5f395f51905f525581527fc7f505b2f371ae2175ee4913f4499e1f2633a7b5936321eed1cdaeb6115181d290602090a15f80610041565b63f92ee8a960e01b5f5260045ffd5b5f80fdfe60806040526004361015610011575f80fd5b5f3560e01c80631f81235814611c5e578063212c1914146117975780632482396f146116b657806328cddfe61461163f5780632a01d5ee146111dc57806334f58bc1146111285780633f7646ea14611099578063485cc95514610f2c5780634f1ef28614610d6157806352d1902d14610cfb5780635c8a768714610cd45780636b406bdd1461085e5780636be7658b14610751578063715018a6146106ea5780638b4968cf146106045780638da5cb5b146105d05780639f01352a1461034b578063ad3cb1cc14610585578063cc924a82146103ec578063ce01c95714610394578063e0180c4b1461034b578063f2fde38b14610320578063f96374dd146101ce5763f9a8286f14610121575f80fd5b346101ca5760203660031901126101ca576004355f52600260205260405f20805460018060a01b036001830154169160028101546101c16101b66101676003850161265b565b6101a86101766004870161265b565b91600660ff60058901541697015495604051998a998a5260208a0152604089015260e0606089015260e08801906126fb565b9086820360808801526126fb565b9260a0850190612781565b60c08301520390f35b5f80fd5b346101ca5760203660031901126101ca575f60c06040516101ee8161255d565b828152826020820152826040820152606080820152606060808201528260a082015201526004355f52600260205260405f2060405161022c8161255d565b8154815260018201546001600160a01b0316602082019081526002830154604083019081529092906102606003830161265b565b606084019081526102736004840161265b565b6080850190815260ff6005850154169060a0860194600383101561030c576103029360066102e3926102f695895201549560c08901968752604051998a9960208b525160208b015260018060a01b0390511660408a01525160608901525160e060808901526101008801906126fb565b9051868203601f190160a08801526126fb565b925160c0850190612781565b5160e08301520390f35b634e487b7160e01b5f52602160045260245ffd5b346101ca5760203660031901126101ca5761034961033c612735565b610344612a78565b61290e565b005b346101ca5760403660031901126101ca5761036461271f565b6004355f52600560205260405f209060018060a01b03165f52602052602060ff60405f2054166040519015158152f35b346101ca5760403660031901126101ca576103ad612735565b6001600160a01b03165f908152600460205260409020805460243591908210156101ca576020916103dd91612758565b90549060031b1c604051908152f35b346101ca5760203660031901126101ca576004355f60c060405161040f8161255d565b82815260606020820152606060408201526060808201528260808201528260a08201520152805f52600160205260ff600460405f20015460a01c1615610549575f52600160205260405f206040516104668161255d565b815481526104766001830161265b565b916020820192835261048a6002820161265b565b6040830190815261049d6003830161265b565b606084019081526105276004840154916105146005608088019660018060a01b038616885260ff60a08a019660a01c161515865201549460c08801958652610501604051998a9960208b525160208b01525160e060408b01526101008a01906126fb565b9051888203601f190160608a01526126fb565b9051868203601f190160808801526126fb565b92516001600160a01b031660a085015251151560c08401525160e08301520390f35b60405162461bcd60e51b8152602060048201526014602482015273576f726b7370616365206e6f742061637469766560601b6044820152606490fd5b346101ca575f3660031901126101ca576105cc6040516105a6604082612593565b60058152640352e302e360dc1b60208201526040519182916020835260208301906126fb565b0390f35b346101ca575f3660031901126101ca575f516020612b635f395f51905f52546040516001600160a01b039091168152602090f35b346101ca5760403660031901126101ca5761061d61271f565b5f606060405161062c81612578565b81815282602082015282604082015201526004355f52600360205260405f209060018060a01b03165f526020526106cc60405f206040519061066d82612578565b6106768161265b565b825260ff6001820154169061068f60208401928361280e565b60ff600360028301549260408601938452015416906060840191151582526106d860405195869560208752516080602088015260a08701906126fb565b9351604086019061274b565b51606084015251151560808301520390f35b346101ca575f3660031901126101ca57610702612a78565b5f516020612b635f395f51905f5280546001600160a01b031981169091555f906001600160a01b03167f8be0079c531659141344cd1fd0a4f28419497f9722a3daafe3b4186f6b6457e08280a3005b346101ca5760403660031901126101ca5760043561076d61271f565b90805f52600160205261079060018060a01b03600460405f2001541633146128ad565b805f52600560205260405f2060018060a01b0383165f526020526107ba60ff60405f205416612872565b5f818152600160205260409020600401546001600160a01b03838116939116831461080f576107e9908261297f565b7f43a9e34f13aa885459b52f18c7d9d3bf754f3b8d4d5adbade4bd3436abbbf7ac5f80a3005b60405162461bcd60e51b815260206004820152602160248201527f576f726b7370616365206f776e65722063616e6e6f742062652072656d6f76656044820152601960fa1b6064820152608490fd5b346101ca5760403660031901126101ca5760243560043560038210156101ca57805f526002602052600260405f2001545f5260016020526108af60018060a01b03600460405f2001541633146128ad565b5f52600260205260405f206005810160ff815416600381101561030c57610c8f57826108da9161285a565b6001821461091e575b7fbf6368092222e733a0ba922f127ee63f9ca642197758d28106291c17b350bf916020600283549301549361091b6040518092612781565ba3005b5f54600182018054604051632782085160e01b81526001600160a01b039182166004820181905293909160209183916024918391165afa908115610c84575f91610c55575b50600384019260405161097581612578565b61097e8561265b565b8152602081019061098f848361280e565b604081014281526060820160018152600289019485545f52600360205260405f209060018060a01b03165f5260205260405f2092518051906001600160401b038211610c415781906109e18654612623565b601f8111610be8575b50602090601f8311600114610b85575f92610b7a575b50508160011b915f199060031b1c19161783555b60018301935191600583101561030c57610a539460039360ff8019835416911617905551600284015551151591019060ff801983541691151516179055565b80545f90815260056020908152604080832086546001600160a01b039081168552908352818420805460ff191660011790558654168352600490915290208154610a9c9161281a565b549160018060a01b039054169260405191604083525f91805490610abf82612623565b918260408701526001811690815f14610b535750600114610b17575b5050918091610b0f7f3c0d8c3fe17aecd287ba8a0e1e4db1dd696d1c73a65e4c9f61b2bbdb231aab0d94602084019061274b565b0390a36108e3565b5f90815260208120929350915b818310610b3c57505082016060019080610b0f610adb565b805460608487010152602090920191600101610b24565b60ff191660608088019190915292151560051b86019092019350829150610b0f9050610adb565b015190508c80610a00565b5f8781528281209350601f198516905b818110610bd05750908460019594939210610bb8575b505050811b018355610a14565b01515f1960f88460031b161c191690558c8080610bab565b92936020600181928786015181550195019301610b95565b828111156109ea57909150855f5260205f20601f840160051c9060208510610c39575b849392601f0160051c82900391015f5b828110610c295750506109ea565b5f81830155859450600101610c1b565b5f9150610c0b565b634e487b7160e01b5f52604160045260245ffd5b610c77915060203d602011610c7d575b610c6f8183612593565b81019061278e565b85610963565b503d610c65565b6040513d5f823e3d90fd5b60405162461bcd60e51b815260206004820152601960248201527f5265717565737420616c72656164792070726f636573736564000000000000006044820152606490fd5b346101ca575f3660031901126101ca575f546040516001600160a01b039091168152602090f35b346101ca575f3660031901126101ca577f00000000000000000000000000000000000000000000000000000000000000006001600160a01b03163003610d525760206040515f516020612b835f395f51905f528152f35b63703e46dd60e11b5f5260045ffd5b60403660031901126101ca57610d75612735565b6024356001600160401b0381116101ca57366023820112156101ca57610da59036906024816004013591016125cf565b906001600160a01b037f000000000000000000000000000000000000000000000000000000000000000016308114908115610f0a575b50610d5257610de8612a78565b6040516352d1902d60e01b81526001600160a01b0382169290602081600481875afa5f9181610ed6575b50610e2a5783634c9c8ce360e01b5f5260045260245ffd5b805f516020612b835f395f51905f52859203610ec45750823b15610eb2575f516020612b835f395f51905f5280546001600160a01b031916821790557fbc7cd75a20ee27fd9adebab32041f755214dbc6bffa90cc0225b39da2e5c2d3b5f80a2805115610e9a5761034991612ad6565b505034610ea357005b63b398979f60e01b5f5260045ffd5b634c9c8ce360e01b5f5260045260245ffd5b632a87526960e21b5f5260045260245ffd5b9091506020813d602011610f02575b81610ef260209383612593565b810103126101ca57519085610e12565b3d9150610ee5565b5f516020612b835f395f51905f52546001600160a01b03161415905083610ddb565b346101ca5760403660031901126101ca57610f45612735565b610f4d61271f565b5f516020612ba35f395f51905f525460ff8160401c1615926001600160401b03821680159081611091575b6001149081611087575b15908161107e575b5061106f5767ffffffffffffffff1982166001175f516020612ba35f395f51905f5255610fc89184611043575b50610fc0612aab565b610344612aab565b60018060a01b03166bffffffffffffffffffffffff60a01b5f5416175f55610fec57005b68ff0000000000000000195f516020612ba35f395f51905f5254165f516020612ba35f395f51905f52557fc7f505b2f371ae2175ee4913f4499e1f2633a7b5936321eed1cdaeb6115181d2602060405160018152a1005b68ffffffffffffffffff191668010000000000000001175f516020612ba35f395f51905f525584610fb7565b63f92ee8a960e01b5f5260045ffd5b90501585610f8a565b303b159150610f82565b859150610f78565b346101ca5760403660031901126101ca576110b261271f565b6004355f52600360205260405f209060018060a01b03165f5260205261110d60405f206110de8161265b565b9060ff6001820154169060ff6003600283015492015416906111186040519586956080875260808701906126fb565b93602086019061274b565b6040840152151560608301520390f35b346101ca5760203660031901126101ca576004355f52600160205260405f2080546111556001830161265b565b916111626002820161265b565b60ff6111b96111736003850161265b565b6111ab600560048701549601549461119d604051998a998a5260e060208b015260e08a01906126fb565b9088820360408a01526126fb565b9086820360608801526126fb565b9260018060a01b038116608086015260a01c16151560a084015260c08301520390f35b346101ca5760803660031901126101ca576004356024356001600160401b0381116101ca5761120f903690600401612605565b906044356001600160401b0381116101ca5761122f903690600401612605565b916064356001600160401b0381116101ca5761124f903690600401612605565b825f52600160205261127160018060a01b03600460405f2001541633146128ad565b825f52600160205260405f20936001850183516001600160401b038111610c415761129c8254612623565b601f81116115ee575b50806020601f821160011461158d575f91611582575b508160011b915f199060031b1c19161790555b805194600281016001600160401b038711610c41576112ed8154612623565b601f8111611531575b50602096601f81116001146114cd5780600394959697985f916114c2575b508160011b915f1990861b1c19161790555b0182516001600160401b038111610c41576113418254612623565b601f8111611471575b506020601f82116001146113e3577f334538b4755a31ad58fda2623833d428c1b08ef5f9eb67a8f538f53320154b4895936113d393836113b797946113c5945f916113d8575b508160011b915f199060031b1c19161790555b6040519586956060875260608701906126fb565b9085820360208701526126fb565b9083820360408501526126fb565b0390a2005b90508501518b611390565b601f19821690835f52805f20915f5b8181106114595750936001846113c5947f334538b4755a31ad58fda2623833d428c1b08ef5f9eb67a8f538f53320154b489a98946113b79a976113d39910611441575b5050811b0190556113a3565b8701515f1960f88460031b161c191690558b80611435565b9192602060018192868b0151815501940192016113f2565b8181111561134a57825f5260205f20601f830160051c90602084106114ba575b81601f9101920160051c03905f5b8281106114ad57505061134a565b5f8282015560010161149f565b5f9150611491565b905085015189611314565b601f198116825f52885f20905f5b81811061151957509060039596979899836001949310611502575b5050811b019055611326565b8701515f1983881b60f8161c1916905589806114f6565b868b0151835560209a8b019a600190930192016114db565b878111156112f657815f5260205f20601f890160051c9060208a1061157a575b81601f9101920160051c03905f5b82811061156d5750506112f6565b5f8282015560010161155f565b5f9150611551565b9050850151886112bb565b5f8481528181209250601f198416905b8181106115d6575090836001949392106115be575b5050811b0190556112ce565b8701515f1960f88460031b161c1916905588806115b2565b9192602060018192868c01518155019401920161159d565b818111156112a557825f5260205f20601f830160051c9060208410611637575b81601f9101920160051c03905f5b82811061162a5750506112a5565b5f8282015560010161161c565b5f915061160e565b346101ca5760203660031901126101ca57600435805f52600160205261167560018060a01b03600460405f2001541633146128ad565b5f818152600160205260408120600401805460ff60a01b191690557f27db9750298141a82b0cef474fe2d64d4ce73786563be41dcac1cba2494075cb9080a2005b346101ca5760203660031901126101ca57600435805f52600160205260018060a01b03600460405f20015416331461173f575f81815260056020908152604080832033845290915290205461170d9060ff16612872565b611717338261297f565b33907f43a9e34f13aa885459b52f18c7d9d3bf754f3b8d4d5adbade4bd3436abbbf7ac5f80a3005b60405162461bcd60e51b815260206004820152602a60248201527f576f726b7370616365206f776e65722063616e6e6f74206c656176652074686560448201526920776f726b737061636560b01b6064820152608490fd5b346101ca5760603660031901126101ca576004356024356001600160401b0381116101ca576117ca903690600401612605565b906044356001600160401b0381116101ca576117ea903690600401612605565b5f54604051632782085160e01b815233600482015291939190602090829060249082906001600160a01b03165afa908115610c84575f91611c3f575b50600581101561030c5760038114908115611c34575b5015611bc9575f82815260056020908152604080832033845290915290205460ff16611b7a5761186d6007546127a6565b90816007556040519061187f8261255d565b82825260208201943386526040830191858352606084019081526080840191825260a08401925f845260c0850197428952865f52600260205260405f209551865560018060a01b03905116600186019060018060a01b03166bffffffffffffffffffffffff60a01b8254161790555160028501556003840190518051906001600160401b038211610c415781906119168454612623565b601f8111611b21575b50602090601f8311600114611abe575f92611ab3575b50508160011b915f199060031b1c19161790555b51805160048401916001600160401b038211610c4157819061196b8454612623565b601f8111611a5a575b50602090601f83116001146119f7575f926119ec575b50508160011b915f199060031b1c19161790555b51600381101561030c576020946119ba6006926005850161285a565b519101556040519133827f7c86f618f8255fa9259843798efda2272bb270e94c5afbcf18c087ec334685e45f80a48152f35b01519050888061198a565b5f8581528281209350601f198516905b818110611a425750908460019594939210611a2a575b505050811b01905561199e565b01515f1960f88460031b161c19169055888080611a1d565b92936020600181928786015181550195019301611a07565b8281111561197457909150835f5260205f20601f840160051c9060208510611aab575b849392601f0160051c82900391015f5b828110611a9b575050611974565b5f81830155859450600101611a8d565b5f9150611a7d565b015190508980611935565b5f8581528281209350601f198516905b818110611b095750908460019594939210611af1575b505050811b019055611949565b01515f1960f88460031b161c19169055898080611ae4565b92936020600181928786015181550195019301611ace565b8281111561191f57909150835f5260205f20601f840160051c9060208510611b72575b849392601f0160051c82900391015f5b828110611b6257505061191f565b5f81830155859450600101611b54565b5f9150611b44565b60405162461bcd60e51b815260206004820152602160248201527f416c72656164792061206d656d626572206f662074686520776f726b737061636044820152606560f81b6064820152608490fd5b60405162461bcd60e51b815260206004820152603a60248201527f4f6e6c7920537570706c696572206f72205472616e73706f727465722063616e60448201527f207265717565737420746f206a6f696e20776f726b73706163650000000000006064820152608490fd5b60049150148461183c565b611c58915060203d602011610c7d57610c6f8183612593565b84611826565b346101ca5760603660031901126101ca576004356001600160401b0381116101ca57611c8e903690600401612605565b6024356001600160401b0381116101ca57611cad903690600401612605565b906044356001600160401b0381116101ca57611ccd903690600401612605565b5f54604051632782085160e01b815233600482015290602090829060249082906001600160a01b03165afa908115610c84575f9161253e575b50600581101561030c576002036124e957611d226006546127a6565b9081600655604051611d338161255d565b82815260208101848152604082019586526060820195838752608083019033825260a08401906001825260c0850193428552875f52600160205260405f20955186556001860190518051906001600160401b038211610c41578190611d988454612623565b601f8111612490575b50602090601f831160011461242d575f92612422575b50508160011b915f199060031b1c19161790555b51805160028601916001600160401b038211610c41578190611ded8454612623565b601f81116123c9575b50602090601f8311600114612366575f9261235b575b50508160011b915f199060031b1c19161790555b6003840197519788516001600160401b038111610c4157611e418254612623565b601f811161230a575b506020601f82116001146122a257819060059798999a9b5f92612297575b50508160011b915f199060031b1c19161790555b90516004858101805493516001600160a81b03199094166001600160a01b039384161793151560a01b60ff60a01b1693909317909255915192909301919091555f8054604051636f77926b60e01b81523394810194909452909183916024918391165afa908115610c84575f91612163575b50519060405193611efe85612578565b82855260208501906002825260408601428152606087019160018352865f52600360205260405f2060018060a01b0333165f5260205260405f2097518051906001600160401b038211610c41578190611f578b54612623565b601f811161210a575b50602090601f83116001146120a7575f9261209c575b50508160011b915f199060031b1c19161788555b60018801935193600585101561030c5760209860037f173c8e81f68ce9825af163dfa413eaa4244d479724cf076d73013083eb4bf47f9561203f95611ff3948c9960ff8019835416911617905551600284015551151591019060ff801983541691151516179055565b5f84815260058952604080822033808452908b52818320805460ff19166001179055825260048a52902061202890859061281a565b61204d6040519283926040845260408401906126fb565b8281038a84015233966126fb565b0390a3817f3c0d8c3fe17aecd287ba8a0e1e4db1dd696d1c73a65e4c9f61b2bbdb231aab0d612087604051936040855260408501906126fb565b926002868201528033940390a3604051908152f35b015190508a80611f76565b5f8c81528281209350601f198516905b8181106120f257509084600195949392106120da575b505050811b018855611f8a565b01515f1960f88460031b161c191690558a80806120cd565b929360206001819287860151815501950193016120b7565b82811115611f60579091508a5f5260205f20601f840160051c906020851061215b575b849392601f0160051c82900391015f5b82811061214b575050611f60565b5f8183015585945060010161213d565b5f915061212d565b90503d805f833e6121748183612593565b8101906020818303126101ca578051906001600160401b0382116101ca5701610100818303126101ca576040519161010083018381106001600160401b03821117610c415760405281516001600160401b0381116101ca57816121d89184016127c8565b835260208201516001600160401b0381116101ca57816121f99184016127c8565b6020840152604082015160058110156101ca57604084015260608201516001600160a01b03811681036101ca57606084015260808201516001600160401b0381116101ca578161224a9184016127c8565b608084015260a0820151906001600160401b0382116101ca5761226e9183016127c8565b60a083015260c08101519081151582036101ca5760e09160c0840152015160e082015284611eee565b015190508b80611e68565b601f1982169a835f52815f209b5f5b8181106122f2575091600598999a9b9c918460019594106122da575b505050811b019055611e7c565b01515f1960f88460031b161c191690558b80806122cd565b838301518e556001909d019c602093840193016122b1565b81811115611e4a57825f5260205f20601f830160051c9060208410612353575b81601f9101920160051c03905f5b828110612346575050611e4a565b5f82820155600101612338565b5f915061232a565b015190508b80611e0c565b5f8581528281209350601f198516905b8181106123b15750908460019594939210612399575b505050811b019055611e20565b01515f1960f88460031b161c191690558b808061238c565b92936020600181928786015181550195019301612376565b82811115611df657909150835f5260205f20601f840160051c906020851061241a575b849392601f0160051c82900391015f5b82811061240a575050611df6565b5f818301558594506001016123fc565b5f91506123ec565b015190508c80611db7565b5f8581528281209350601f198516905b8181106124785750908460019594939210612460575b505050811b019055611dcb565b01515f1960f88460031b161c191690558c8080612453565b9293602060018192878601518155019501930161243d565b82811115611da157909150835f5260205f20601f840160051c90602085106124e1575b849392601f0160051c82900391015f5b8281106124d1575050611da1565b5f818301558594506001016124c3565b5f91506124b3565b60405162461bcd60e51b815260206004820152602760248201527f4f6e6c79204469737472696275746f72732063616e2063726561746520776f726044820152666b73706163657360c81b6064820152608490fd5b612557915060203d602011610c7d57610c6f8183612593565b84611d06565b60e081019081106001600160401b03821117610c4157604052565b608081019081106001600160401b03821117610c4157604052565b90601f801991011681019081106001600160401b03821117610c4157604052565b6001600160401b038111610c4157601f01601f191660200190565b9291926125db826125b4565b916125e96040519384612593565b8294818452818301116101ca578281602093845f960137010152565b9080601f830112156101ca57816020612620933591016125cf565b90565b90600182811c92168015612651575b602083101461263d57565b634e487b7160e01b5f52602260045260245ffd5b91607f1691612632565b9060405191825f82549261266e84612623565b80845293600181169081156126d95750600114612695575b5061269392500383612593565b565b90505f9291925260205f20905f915b8183106126bd575050906020612693928201015f612686565b60209193508060019154838589010152019101909184926126a4565b90506020925061269394915060ff191682840152151560051b8201015f612686565b805180835260209291819084018484015e5f828201840152601f01601f1916010190565b602435906001600160a01b03821682036101ca57565b600435906001600160a01b03821682036101ca57565b90600582101561030c5752565b805482101561276d575f5260205f2001905f90565b634e487b7160e01b5f52603260045260245ffd5b90600382101561030c5752565b908160209103126101ca575160058110156101ca5790565b5f1981146127b45760010190565b634e487b7160e01b5f52601160045260245ffd5b81601f820112156101ca578051906127df826125b4565b926127ed6040519485612593565b828452602083830101116101ca57815f9260208093018386015e8301015290565b600582101561030c5752565b9081549168010000000000000000831015610c41578261284291600161269395018155612758565b90919082549060031b91821b915f19901b1916179055565b90600381101561030c5760ff80198354169116179055565b1561287957565b60405162461bcd60e51b815260206004820152600c60248201526b2737ba10309036b2b6b132b960a11b6044820152606490fd5b156128b457565b60405162461bcd60e51b815260206004820152602c60248201527f4f6e6c7920776f726b7370616365206f776e65722063616e20706572666f726d60448201526b103a3434b99030b1ba34b7b760a11b6064820152608490fd5b6001600160a01b0316801561296c575f516020612b635f395f51905f5280546001600160a01b0319811683179091556001600160a01b03167f8be0079c531659141344cd1fd0a4f28419497f9722a3daafe3b4186f6b6457e05f80a3565b631e4fbdf760e01b5f525f60045260245ffd5b5f8181526003602081815260408084206001600160a01b03909616808552958252808420909201805460ff199081169091558484526005825282842095845294815281832080549095169094556004909352918220805491929091905b8181106129ea575b50505050565b836129f58285612758565b90549060031b1c14612a09576001016129dc565b9192505f198101919082116127b457612842612a28612a369385612758565b90549060031b1c9184612758565b80548015612a64575f190190612a4c8282612758565b8154905f199060031b1b19169055555f8080806129e4565b634e487b7160e01b5f52603160045260245ffd5b5f516020612b635f395f51905f52546001600160a01b03163303612a9857565b63118cdaa760e01b5f523360045260245ffd5b60ff5f516020612ba35f395f51905f525460401c1615612ac757565b631afcd79f60e31b5f5260045ffd5b905f8091602081519101845af48080612b4f575b15612b0a5750506040513d81523d5f602083013e60203d82010160405290565b15612b2f57639996b31560e01b5f9081526001600160a01b0391909116600452602490fd5b3d15612b40576040513d5f823e3d90fd5b63d6bda27560e01b5f5260045ffd5b503d151580612aea5750813b1515612aea56fe9016d09d72d40fdae2fd8ceac6b6234c7706214fd39c1cd1e609a0528c199300360894a13ba1a3210667c828492db98dca3e2076cc3735a920a3ca505d382bbcf0c57e16840df040f15088dc2f81fe391c3923bec73e23a9662efc9c229c6a00a26469706673582212207b288095073f6de1590223c757a10a6a79826149b0ed3fd451c9e4feaa9c82eb64736f6c63430008210033f0c57e16840df040f15088dc2f81fe391c3923bec73e23a9662efc9c229c6a00","linkReferences":{}},"methodIdentifiers":{"UPGRADE_INTERFACE_VERSION()":"ad3cb1cc","createJoinRequest(uint256,string,string)":"212c1914","createWorkspace(string,string,string)":"1f812358","deleteWorkspace(uint256)":"28cddfe6","getJoinRequest(uint256)":"f96374dd","getMember(uint256,address)":"8b4968cf","getWorkspace(uint256)":"cc924a82","initialize(address,address)":"485cc955","isMemberWorkspace(uint256,address)":"e0180c4b","isWorkspaceMember(uint256,address)":"9f01352a","joinRequests(uint256)":"f9a8286f","leaveWorkspace(uint256)":"2482396f","owner()":"8da5cb5b","processJoinRequest(uint256,uint8)":"6b406bdd","proxiableUUID()":"52d1902d","removeMember(uint256,address)":"6be7658b","renounceOwnership()":"715018a6","transferOwnership(address)":"f2fde38b","updateWorkspace(uint256,string,string,string)":"2a01d5ee","upgradeToAndCall(address,bytes)":"4f1ef286","userJoinedWorkspaces(address,uint256)":"ce01c957","userManager()":"5c8a7687","workspaceMembers(uint256,address)":"3f7646ea","workspaces(uint256)":"34f58bc1"},"storageLayout":{"storage":[{"astId":40033,"contract":"src/contracts/WorkspaceManager.sol:WorkspaceManager","label":"userManager","offset":0,"slot":"0","type":"t_contract(IUserManager)41358"},{"astId":40083,"contract":"src/contracts/WorkspaceManager.sol:WorkspaceManager","label":"workspaces","offset":0,"slot":"1","type":"t_mapping(t_uint256,t_struct(Workspace)40052_storage)"},{"astId":40088,"contract":"src/contracts/WorkspaceManager.sol:WorkspaceManager","label":"joinRequests","offset":0,"slot":"2","type":"t_mapping(t_uint256,t_struct(JoinRequest)40068_storage)"},{"astId":40095,"contract":"src/contracts/WorkspaceManager.sol:WorkspaceManager","label":"workspaceMembers","offset":0,"slot":"3","type":"t_mapping(t_uint256,t_mapping(t_address,t_struct(MemberWorkspace)40078_storage))"},{"astId":40100,"contract":"src/contracts/WorkspaceManager.sol:WorkspaceManager","label":"userJoinedWorkspaces","offset":0,"slot":"4","type":"t_mapping(t_address,t_array(t_uint256)dyn_storage)"},{"astId":40106,"contract":"src/contracts/WorkspaceManager.sol:WorkspaceManager","label":"isWorkspaceMember","offset":0,"slot":"5","type":"t_mapping(t_uint256,t_mapping(t_address,t_bool))"},{"astId":40108,"contract":"src/contracts/WorkspaceManager.sol:WorkspaceManager","label":"workspaceCounter","offset":0,"slot":"6","type":"t_uint256"},{"astId":40110,"contract":"src/contracts/WorkspaceManager.sol:WorkspaceManager","label":"requestCounter","offset":0,"slot":"7","type":"t_uint256"},{"astId":40114,"contract":"src/contracts/WorkspaceManager.sol:WorkspaceManager","label":"__gap","offset":0,"slot":"8","type":"t_array(t_uint256)50_storage"}],"types":{"t_address":{"encoding":"inplace","label":"address","numberOfBytes":"20"},"t_array(t_uint256)50_storage":{"encoding":"inplace","label":"uint256[50]","numberOfBytes":"1600","base":"t_uint256"},"t_array(t_uint256)dyn_storage":{"encoding":"dynamic_array","label":"uint256[]","numberOfBytes":"32","base":"t_uint256"},"t_bool":{"encoding":"inplace","label":"bool","numberOfBytes":"1"},"t_contract(IUserManager)41358":{"encoding":"inplace","label":"contract IUserManager","numberOfBytes":"20"},"t_enum(RequestStatus)40037":{"encoding":"inplace","label":"enum WorkspaceManager.RequestStatus","numberOfBytes":"1"},"t_enum(Role)41250":{"encoding":"inplace","label":"enum IUserManager.Role","numberOfBytes":"1"},"t_mapping(t_address,t_array(t_uint256)dyn_storage)":{"encoding":"mapping","key":"t_address","label":"mapping(address => uint256[])","numberOfBytes":"32","value":"t_array(t_uint256)dyn_storage"},"t_mapping(t_address,t_bool)":{"encoding":"mapping","key":"t_address","label":"mapping(address => bool)","numberOfBytes":"32","value":"t_bool"},"t_mapping(t_address,t_struct(MemberWorkspace)40078_storage)":{"encoding":"mapping","key":"t_address","label":"mapping(address => struct WorkspaceManager.MemberWorkspace)","numberOfBytes":"32","value":"t_struct(MemberWorkspace)40078_storage"},"t_mapping(t_uint256,t_mapping(t_address,t_bool))":{"encoding":"mapping","key":"t_uint256","label":"mapping(uint256 => mapping(address => bool))","numberOfBytes":"32","value":"t_mapping(t_address,t_bool)"},"t_mapping(t_uint256,t_mapping(t_address,t_struct(MemberWorkspace)40078_storage))":{"encoding":"mapping","key":"t_uint256","label":"mapping(uint256 => mapping(address => struct WorkspaceManager.MemberWorkspace))","numberOfBytes":"32","value":"t_mapping(t_address,t_struct(MemberWorkspace)40078_storage)"},"t_mapping(t_uint256,t_struct(JoinRequest)40068_storage)":{"encoding":"mapping","key":"t_uint256","label":"mapping(uint256 => struct WorkspaceManager.JoinRequest)","numberOfBytes":"32","value":"t_struct(JoinRequest)40068_storage"},"t_mapping(t_uint256,t_struct(Workspace)40052_storage)":{"encoding":"mapping","key":"t_uint256","label":"mapping(uint256 => struct WorkspaceManager.Workspace)","numberOfBytes":"32","value":"t_struct(Workspace)40052_storage"},"t_string_storage":{"encoding":"bytes","label":"string","numberOfBytes":"32"},"t_struct(JoinRequest)40068_storage":{"encoding":"inplace","label":"struct WorkspaceManager.JoinRequest","numberOfBytes":"224","members":[{"astId":40054,"contract":"src/contracts/WorkspaceManager.sol:WorkspaceManager","label":"id","offset":0,"slot":"0","type":"t_uint256"},{"astId":40056,"contract":"src/contracts/WorkspaceManager.sol:WorkspaceManager","label":"userId","offset":0,"slot":"1","type":"t_address"},{"astId":40058,"contract":"src/contracts/WorkspaceManager.sol:WorkspaceManager","label":"workspaceId","offset":0,"slot":"2","type":"t_uint256"},{"astId":40060,"contract":"src/contracts/WorkspaceManager.sol:WorkspaceManager","label":"representativeName","offset":0,"slot":"3","type":"t_string_storage"},{"astId":40062,"contract":"src/contracts/WorkspaceManager.sol:WorkspaceManager","label":"message","offset":0,"slot":"4","type":"t_string_storage"},{"astId":40065,"contract":"src/contracts/WorkspaceManager.sol:WorkspaceManager","label":"status","offset":0,"slot":"5","type":"t_enum(RequestStatus)40037"},{"astId":40067,"contract":"src/contracts/WorkspaceManager.sol:WorkspaceManager","label":"requestedAt","offset":0,"slot":"6","type":"t_uint256"}]},"t_struct(MemberWorkspace)40078_storage":{"encoding":"inplace","label":"struct WorkspaceManager.MemberWorkspace","numberOfBytes":"128","members":[{"astId":40070,"contract":"src/contracts/WorkspaceManager.sol:WorkspaceManager","label":"representativeName","offset":0,"slot":"0","type":"t_string_storage"},{"astId":40073,"contract":"src/contracts/WorkspaceManager.sol:WorkspaceManager","label":"role","offset":0,"slot":"1","type":"t_enum(Role)41250"},{"astId":40075,"contract":"src/contracts/WorkspaceManager.sol:WorkspaceManager","label":"joinedAt","offset":0,"slot":"2","type":"t_uint256"},{"astId":40077,"contract":"src/contracts/WorkspaceManager.sol:WorkspaceManager","label":"isActive","offset":0,"slot":"3","type":"t_bool"}]},"t_struct(Workspace)40052_storage":{"encoding":"inplace","label":"struct WorkspaceManager.Workspace","numberOfBytes":"192","members":[{"astId":40039,"contract":"src/contracts/WorkspaceManager.sol:WorkspaceManager","label":"id","offset":0,"slot":"0","type":"t_uint256"},{"astId":40041,"contract":"src/contracts/WorkspaceManager.sol:WorkspaceManager","label":"name","offset":0,"slot":"1","type":"t_string_storage"},{"astId":40043,"contract":"src/contracts/WorkspaceManager.sol:WorkspaceManager","label":"description","offset":0,"slot":"2","type":"t_string_storage"},{"astId":40045,"contract":"src/contracts/WorkspaceManager.sol:WorkspaceManager","label":"imageHash","offset":0,"slot":"3","type":"t_string_storage"},{"astId":40047,"contract":"src/contracts/WorkspaceManager.sol:WorkspaceManager","label":"owner","offset":0,"slot":"4","type":"t_address"},{"astId":40049,"contract":"src/contracts/WorkspaceManager.sol:WorkspaceManager","label":"isActive","offset":20,"slot":"4","type":"t_bool"},{"astId":40051,"contract":"src/contracts/WorkspaceManager.sol:WorkspaceManager","label":"createdAt","offset":0,"slot":"5","type":"t_uint256"}]},"t_uint256":{"encoding":"inplace","label":"uint256","numberOfBytes":"32"}}},"id":33}